{
  "contractName": "Beima",
  "abi": [
    {
      "inputs": [
        {
          "internalType": "address",
          "name": "_xend",
          "type": "address"
        },
        {
          "internalType": "address",
          "name": "_xendFinanceIndividual_Yearn_V1",
          "type": "address"
        },
        {
          "internalType": "address",
          "name": "_comptroller",
          "type": "address"
        },
        {
          "internalType": "address",
          "name": "_priceOracle",
          "type": "address"
        },
        {
          "internalType": "uint256",
          "name": "_upKeepInterval",
          "type": "uint256"
        }
      ],
      "stateMutability": "nonpayable",
      "type": "constructor"
    },
    {
      "anonymous": false,
      "inputs": [
        {
          "indexed": true,
          "internalType": "address",
          "name": "sender",
          "type": "address"
        },
        {
          "indexed": false,
          "internalType": "address",
          "name": "receiver",
          "type": "address"
        },
        {
          "indexed": true,
          "internalType": "uint256",
          "name": "amountSpent",
          "type": "uint256"
        }
      ],
      "name": "Deposit",
      "type": "event"
    },
    {
      "anonymous": false,
      "inputs": [
        {
          "indexed": true,
          "internalType": "address",
          "name": "previousOwner",
          "type": "address"
        },
        {
          "indexed": true,
          "internalType": "address",
          "name": "newOwner",
          "type": "address"
        }
      ],
      "name": "OwnershipTransferred",
      "type": "event"
    },
    {
      "anonymous": false,
      "inputs": [
        {
          "indexed": false,
          "internalType": "address",
          "name": "account",
          "type": "address"
        }
      ],
      "name": "Paused",
      "type": "event"
    },
    {
      "anonymous": false,
      "inputs": [
        {
          "indexed": false,
          "internalType": "address",
          "name": "user",
          "type": "address"
        },
        {
          "indexed": false,
          "internalType": "string",
          "name": "planDetails",
          "type": "string"
        },
        {
          "indexed": false,
          "internalType": "uint256",
          "name": "lockTime",
          "type": "uint256"
        }
      ],
      "name": "Plan",
      "type": "event"
    },
    {
      "anonymous": false,
      "inputs": [
        {
          "indexed": false,
          "internalType": "string",
          "name": "",
          "type": "string"
        },
        {
          "indexed": false,
          "internalType": "uint256",
          "name": "",
          "type": "uint256"
        }
      ],
      "name": "Redeem",
      "type": "event"
    },
    {
      "anonymous": false,
      "inputs": [
        {
          "indexed": true,
          "internalType": "address",
          "name": "applicant",
          "type": "address"
        },
        {
          "indexed": true,
          "internalType": "string",
          "name": "applicantDetails",
          "type": "string"
        }
      ],
      "name": "Register",
      "type": "event"
    },
    {
      "anonymous": false,
      "inputs": [
        {
          "indexed": false,
          "internalType": "address",
          "name": "sender",
          "type": "address"
        },
        {
          "indexed": false,
          "internalType": "uint256",
          "name": "amount",
          "type": "uint256"
        }
      ],
      "name": "Supply",
      "type": "event"
    },
    {
      "anonymous": false,
      "inputs": [
        {
          "indexed": true,
          "internalType": "address",
          "name": "sender",
          "type": "address"
        },
        {
          "indexed": false,
          "internalType": "uint256",
          "name": "amount",
          "type": "uint256"
        },
        {
          "indexed": true,
          "internalType": "address",
          "name": "receiver",
          "type": "address"
        }
      ],
      "name": "Transfer",
      "type": "event"
    },
    {
      "anonymous": false,
      "inputs": [
        {
          "indexed": false,
          "internalType": "address",
          "name": "account",
          "type": "address"
        }
      ],
      "name": "Unpaused",
      "type": "event"
    },
    {
      "anonymous": false,
      "inputs": [
        {
          "indexed": false,
          "internalType": "uint256",
          "name": "timeDuration",
          "type": "uint256"
        }
      ],
      "name": "Update",
      "type": "event"
    },
    {
      "anonymous": false,
      "inputs": [
        {
          "indexed": false,
          "internalType": "address",
          "name": "sender",
          "type": "address"
        },
        {
          "indexed": false,
          "internalType": "bool",
          "name": "upkeep",
          "type": "bool"
        }
      ],
      "name": "Upkeep",
      "type": "event"
    },
    {
      "anonymous": false,
      "inputs": [
        {
          "indexed": false,
          "internalType": "address",
          "name": "from",
          "type": "address"
        },
        {
          "indexed": false,
          "internalType": "address",
          "name": "to",
          "type": "address"
        },
        {
          "indexed": false,
          "internalType": "uint256",
          "name": "amount",
          "type": "uint256"
        }
      ],
      "name": "Withdraw",
      "type": "event"
    },
    {
      "inputs": [],
      "name": "admin",
      "outputs": [
        {
          "internalType": "address",
          "name": "",
          "type": "address"
        }
      ],
      "stateMutability": "view",
      "type": "function",
      "constant": true
    },
    {
      "inputs": [
        {
          "internalType": "address",
          "name": "",
          "type": "address"
        },
        {
          "internalType": "address",
          "name": "",
          "type": "address"
        }
      ],
      "name": "assets",
      "outputs": [
        {
          "internalType": "uint256",
          "name": "",
          "type": "uint256"
        }
      ],
      "stateMutability": "view",
      "type": "function",
      "constant": true
    },
    {
      "inputs": [],
      "name": "busd",
      "outputs": [
        {
          "internalType": "contract IERC20",
          "name": "",
          "type": "address"
        }
      ],
      "stateMutability": "view",
      "type": "function",
      "constant": true
    },
    {
      "inputs": [],
      "name": "comptroller",
      "outputs": [
        {
          "internalType": "contract ComptrollerInterface",
          "name": "",
          "type": "address"
        }
      ],
      "stateMutability": "view",
      "type": "function",
      "constant": true
    },
    {
      "inputs": [
        {
          "internalType": "address",
          "name": "",
          "type": "address"
        }
      ],
      "name": "hasRedeemed",
      "outputs": [
        {
          "internalType": "bool",
          "name": "",
          "type": "bool"
        }
      ],
      "stateMutability": "view",
      "type": "function",
      "constant": true
    },
    {
      "inputs": [
        {
          "internalType": "address",
          "name": "",
          "type": "address"
        }
      ],
      "name": "isRegistered",
      "outputs": [
        {
          "internalType": "bool",
          "name": "",
          "type": "bool"
        }
      ],
      "stateMutability": "view",
      "type": "function",
      "constant": true
    },
    {
      "inputs": [],
      "name": "lastTimeStamp",
      "outputs": [
        {
          "internalType": "uint256",
          "name": "",
          "type": "uint256"
        }
      ],
      "stateMutability": "view",
      "type": "function",
      "constant": true
    },
    {
      "inputs": [],
      "name": "owner",
      "outputs": [
        {
          "internalType": "address",
          "name": "",
          "type": "address"
        }
      ],
      "stateMutability": "view",
      "type": "function",
      "constant": true
    },
    {
      "inputs": [],
      "name": "paused",
      "outputs": [
        {
          "internalType": "bool",
          "name": "",
          "type": "bool"
        }
      ],
      "stateMutability": "view",
      "type": "function",
      "constant": true
    },
    {
      "inputs": [
        {
          "internalType": "address",
          "name": "",
          "type": "address"
        }
      ],
      "name": "pensionServiceApplicant",
      "outputs": [
        {
          "internalType": "uint256",
          "name": "id",
          "type": "uint256"
        },
        {
          "internalType": "address payable",
          "name": "userAddress",
          "type": "address"
        },
        {
          "internalType": "string",
          "name": "userDetails",
          "type": "string"
        },
        {
          "components": [
            {
              "internalType": "address",
              "name": "underlyingAsset",
              "type": "address"
            },
            {
              "internalType": "uint256",
              "name": "depositedAmount",
              "type": "uint256"
            },
            {
              "internalType": "uint256",
              "name": "amountToSpend",
              "type": "uint256"
            },
            {
              "internalType": "uint256",
              "name": "approvedAmountToSpend",
              "type": "uint256"
            },
            {
              "internalType": "uint256",
              "name": "startTime",
              "type": "uint256"
            },
            {
              "internalType": "uint256",
              "name": "timeDurationOfdeposit",
              "type": "uint256"
            },
            {
              "internalType": "uint256",
              "name": "lockTime",
              "type": "uint256"
            },
            {
              "internalType": "string",
              "name": "ipfsHashOfUserPensionDetails",
              "type": "string"
            },
            {
              "internalType": "uint256",
              "name": "userLastRewardBlock",
              "type": "uint256"
            },
            {
              "internalType": "bool",
              "name": "hasPlan",
              "type": "bool"
            }
          ],
          "internalType": "struct Beima.Client",
          "name": "client",
          "type": "tuple"
        }
      ],
      "stateMutability": "view",
      "type": "function",
      "constant": true
    },
    {
      "inputs": [],
      "name": "priceOracle",
      "outputs": [
        {
          "internalType": "contract PriceOracleInterface",
          "name": "",
          "type": "address"
        }
      ],
      "stateMutability": "view",
      "type": "function",
      "constant": true
    },
    {
      "inputs": [],
      "name": "renounceOwnership",
      "outputs": [],
      "stateMutability": "nonpayable",
      "type": "function"
    },
    {
      "inputs": [
        {
          "internalType": "address",
          "name": "",
          "type": "address"
        }
      ],
      "name": "stakedBalance",
      "outputs": [
        {
          "internalType": "uint256",
          "name": "",
          "type": "uint256"
        }
      ],
      "stateMutability": "view",
      "type": "function",
      "constant": true
    },
    {
      "inputs": [
        {
          "internalType": "address",
          "name": "newOwner",
          "type": "address"
        }
      ],
      "name": "transferOwnership",
      "outputs": [],
      "stateMutability": "nonpayable",
      "type": "function"
    },
    {
      "inputs": [
        {
          "internalType": "address",
          "name": "",
          "type": "address"
        }
      ],
      "name": "unsuppliedAmount",
      "outputs": [
        {
          "internalType": "uint256",
          "name": "",
          "type": "uint256"
        }
      ],
      "stateMutability": "view",
      "type": "function",
      "constant": true
    },
    {
      "inputs": [],
      "name": "upKeepInterval",
      "outputs": [
        {
          "internalType": "uint256",
          "name": "",
          "type": "uint256"
        }
      ],
      "stateMutability": "view",
      "type": "function",
      "constant": true
    },
    {
      "inputs": [
        {
          "internalType": "uint256",
          "name": "",
          "type": "uint256"
        }
      ],
      "name": "users",
      "outputs": [
        {
          "internalType": "uint256",
          "name": "id",
          "type": "uint256"
        },
        {
          "internalType": "address payable",
          "name": "userAddress",
          "type": "address"
        },
        {
          "internalType": "string",
          "name": "userDetails",
          "type": "string"
        },
        {
          "components": [
            {
              "internalType": "address",
              "name": "underlyingAsset",
              "type": "address"
            },
            {
              "internalType": "uint256",
              "name": "depositedAmount",
              "type": "uint256"
            },
            {
              "internalType": "uint256",
              "name": "amountToSpend",
              "type": "uint256"
            },
            {
              "internalType": "uint256",
              "name": "approvedAmountToSpend",
              "type": "uint256"
            },
            {
              "internalType": "uint256",
              "name": "startTime",
              "type": "uint256"
            },
            {
              "internalType": "uint256",
              "name": "timeDurationOfdeposit",
              "type": "uint256"
            },
            {
              "internalType": "uint256",
              "name": "lockTime",
              "type": "uint256"
            },
            {
              "internalType": "string",
              "name": "ipfsHashOfUserPensionDetails",
              "type": "string"
            },
            {
              "internalType": "uint256",
              "name": "userLastRewardBlock",
              "type": "uint256"
            },
            {
              "internalType": "bool",
              "name": "hasPlan",
              "type": "bool"
            }
          ],
          "internalType": "struct Beima.Client",
          "name": "client",
          "type": "tuple"
        }
      ],
      "stateMutability": "view",
      "type": "function",
      "constant": true
    },
    {
      "inputs": [],
      "name": "xend",
      "outputs": [
        {
          "internalType": "contract IERC20",
          "name": "",
          "type": "address"
        }
      ],
      "stateMutability": "view",
      "type": "function",
      "constant": true
    },
    {
      "inputs": [],
      "name": "xendFinance",
      "outputs": [
        {
          "internalType": "contract XendFinanceInterface",
          "name": "",
          "type": "address"
        }
      ],
      "stateMutability": "view",
      "type": "function",
      "constant": true
    },
    {
      "stateMutability": "payable",
      "type": "receive",
      "payable": true
    },
    {
      "inputs": [
        {
          "internalType": "string",
          "name": "_userDetails",
          "type": "string"
        }
      ],
      "name": "register",
      "outputs": [],
      "stateMutability": "nonpayable",
      "type": "function"
    },
    {
      "inputs": [
        {
          "internalType": "address",
          "name": "_asset",
          "type": "address"
        },
        {
          "internalType": "uint256",
          "name": "_amount",
          "type": "uint256"
        }
      ],
      "name": "depositToken",
      "outputs": [],
      "stateMutability": "nonpayable",
      "type": "function"
    },
    {
      "inputs": [
        {
          "internalType": "address",
          "name": "_asset",
          "type": "address"
        }
      ],
      "name": "withdrawToken",
      "outputs": [],
      "stateMutability": "nonpayable",
      "type": "function"
    },
    {
      "inputs": [
        {
          "internalType": "address",
          "name": "_asset",
          "type": "address"
        }
      ],
      "name": "forcedWithdraw",
      "outputs": [],
      "stateMutability": "nonpayable",
      "type": "function"
    },
    {
      "inputs": [
        {
          "internalType": "address",
          "name": "cTokenaddress",
          "type": "address"
        }
      ],
      "name": "supply",
      "outputs": [
        {
          "internalType": "uint256",
          "name": "",
          "type": "uint256"
        }
      ],
      "stateMutability": "nonpayable",
      "type": "function"
    },
    {
      "inputs": [
        {
          "internalType": "address",
          "name": "_cErc20Contract",
          "type": "address"
        }
      ],
      "name": "redeemCErc20Tokens",
      "outputs": [
        {
          "internalType": "bool",
          "name": "",
          "type": "bool"
        }
      ],
      "stateMutability": "nonpayable",
      "type": "function"
    },
    {
      "inputs": [
        {
          "internalType": "address",
          "name": "_underlyingAsset",
          "type": "address"
        },
        {
          "internalType": "string",
          "name": "_ipfsHashOfUserPensionDetails",
          "type": "string"
        },
        {
          "internalType": "uint256",
          "name": "_approvedAmountToSpend",
          "type": "uint256"
        },
        {
          "internalType": "uint256",
          "name": "_amountToSpend",
          "type": "uint256"
        },
        {
          "internalType": "uint256",
          "name": "_timeDurationOfDeposit",
          "type": "uint256"
        },
        {
          "internalType": "uint256",
          "name": "_lockTime",
          "type": "uint256"
        }
      ],
      "name": "setPlan",
      "outputs": [],
      "stateMutability": "nonpayable",
      "type": "function"
    },
    {
      "inputs": [
        {
          "internalType": "address",
          "name": "ctokenAddress",
          "type": "address"
        }
      ],
      "name": "getAssetAddress",
      "outputs": [
        {
          "internalType": "address",
          "name": "",
          "type": "address"
        }
      ],
      "stateMutability": "view",
      "type": "function",
      "constant": true
    },
    {
      "inputs": [
        {
          "internalType": "address",
          "name": "_asset",
          "type": "address"
        }
      ],
      "name": "getAccruedInterest",
      "outputs": [
        {
          "internalType": "uint256",
          "name": "",
          "type": "uint256"
        }
      ],
      "stateMutability": "view",
      "type": "function",
      "constant": true
    },
    {
      "inputs": [
        {
          "internalType": "address",
          "name": "_asset",
          "type": "address"
        }
      ],
      "name": "withdrawPenalty",
      "outputs": [],
      "stateMutability": "nonpayable",
      "type": "function"
    },
    {
      "inputs": [],
      "name": "updateLockTime",
      "outputs": [],
      "stateMutability": "nonpayable",
      "type": "function"
    }
  ],
  "bytecode": "0x60806040523480156200001157600080fd5b50604051620061373803806200613783398181016040528101906200003791906200033f565b60016000819055506000600160006101000a81548160ff0219169083151502179055506200007a6200006e6200021860201b60201c565b6200022060201b60201c565b84600960006101000a81548173ffffffffffffffffffffffffffffffffffffffff021916908373ffffffffffffffffffffffffffffffffffffffff16021790555082600260006101000a81548173ffffffffffffffffffffffffffffffffffffffff021916908373ffffffffffffffffffffffffffffffffffffffff16021790555081600360006101000a81548173ffffffffffffffffffffffffffffffffffffffff021916908373ffffffffffffffffffffffffffffffffffffffff16021790555083600860006101000a81548173ffffffffffffffffffffffffffffffffffffffff021916908373ffffffffffffffffffffffffffffffffffffffff160217905550620001a1600a6729a2241af62c0000620002e360201b620044d71790919060201c565b60078190555042600c8190555080600d8190555033600b60006101000a81548173ffffffffffffffffffffffffffffffffffffffff021916908373ffffffffffffffffffffffffffffffffffffffff1602179055506200020d6004620002fb60201b620044ed1760201c565b50505050506200049a565b600033905090565b600060018054906101000a900473ffffffffffffffffffffffffffffffffffffffff169050816001806101000a81548173ffffffffffffffffffffffffffffffffffffffff021916908373ffffffffffffffffffffffffffffffffffffffff1602179055508173ffffffffffffffffffffffffffffffffffffffff168173ffffffffffffffffffffffffffffffffffffffff167f8be0079c531659141344cd1fd0a4f28419497f9722a3daafe3b4186f6b6457e060405160405180910390a35050565b60008183620002f39190620003c1565b905092915050565b6001816000016000828254019250508190555050565b600081519050620003228162000466565b92915050565b600081519050620003398162000480565b92915050565b600080600080600060a086880312156200035857600080fd5b6000620003688882890162000311565b95505060206200037b8882890162000311565b94505060406200038e8882890162000311565b9350506060620003a18882890162000311565b9250506080620003b48882890162000328565b9150509295509295909350565b6000620003ce826200042d565b9150620003db836200042d565b925082620003ee57620003ed62000437565b5b828204905092915050565b600062000406826200040d565b9050919050565b600073ffffffffffffffffffffffffffffffffffffffff82169050919050565b6000819050919050565b7f4e487b7100000000000000000000000000000000000000000000000000000000600052601260045260246000fd5b6200047181620003f9565b81146200047d57600080fd5b50565b6200048b816200042d565b81146200049757600080fd5b50565b615c8d80620004aa6000396000f3fe6080604052600436106101d15760003560e01c80635fe3b567116100f7578063c3c5a54711610095578063f2c298be11610064578063f2c298be146106dc578063f2fde38b14610705578063f5dd60651461072e578063f851a44014610759576101df565b8063c3c5a547146105fc578063db78b67c14610639578063de15f0da14610676578063e8ab50b81461069f576101df565b806389476069116100d157806389476069146105545780638da5cb5b1461057d578063a07d6fe8146105a8578063bbf14e74146105bf576101df565b80635fe3b567146104d55780636021726714610500578063715018a61461053d576101df565b80633245f2281161016f5780633f3b3b271161013e5780633f3b3b27146104165780634537f7d1146104415780635bc9d2bf1461046a5780635c975abb146104aa576101df565b80633245f22814610357578063338b5dea14610382578063365b98b2146103ab5780633ca5b234146103eb576101df565b80632630c12f116101ab5780632630c12f146102895780632a1a6031146102b45780632b6a7221146102f15780632ce8abed1461031a576101df565b806319ae58f0146101e45780631a15687b146102215780632108234d1461024c576101df565b366101df5734600581905550005b600080fd5b3480156101f057600080fd5b5061020b60048036038101906102069190614792565b610784565b60405161021891906157b6565b60405180910390f35b34801561022d57600080fd5b50610236610d24565b60405161024391906157b6565b60405180910390f35b34801561025857600080fd5b50610273600480360381019061026e91906147e4565b610d2a565b60405161028091906157b6565b60405180910390f35b34801561029557600080fd5b5061029e610d4f565b6040516102ab9190615492565b60405180910390f35b3480156102c057600080fd5b506102db60048036038101906102d69190614792565b610d75565b6040516102e89190615388565b60405180910390f35b3480156102fd57600080fd5b5061031860048036038101906103139190614792565b610e01565b005b34801561032657600080fd5b50610341600480360381019061033c9190614792565b611073565b60405161034e91906157b6565b60405180910390f35b34801561036357600080fd5b5061036c61108b565b6040516103799190615477565b60405180910390f35b34801561038e57600080fd5b506103a960048036038101906103a491906148c1565b6110b1565b005b3480156103b757600080fd5b506103d260048036038101906103cd9190614967565b611618565b6040516103e294939291906157d1565b60405180910390f35b3480156103f757600080fd5b50610400611854565b60405161040d9190615477565b60405180910390f35b34801561042257600080fd5b5061042b61187a565b60405161043891906157b6565b60405180910390f35b34801561044d57600080fd5b5061046860048036038101906104639190614792565b611880565b005b34801561047657600080fd5b50610491600480360381019061048c9190614792565b612321565b6040516104a194939291906157d1565b60405180910390f35b3480156104b657600080fd5b506104bf61254d565b6040516104cc9190615441565b60405180910390f35b3480156104e157600080fd5b506104ea612564565b6040516104f7919061545c565b60405180910390f35b34801561050c57600080fd5b5061052760048036038101906105229190614792565b61258a565b60405161053491906157b6565b60405180910390f35b34801561054957600080fd5b506105526125a2565b005b34801561056057600080fd5b5061057b60048036038101906105769190614792565b61262a565b005b34801561058957600080fd5b50610592612f9a565b60405161059f9190615388565b60405180910390f35b3480156105b457600080fd5b506105bd612fc2565b005b3480156105cb57600080fd5b506105e660048036038101906105e19190614792565b6130a1565b6040516105f391906157b6565b60405180910390f35b34801561060857600080fd5b50610623600480360381019061061e9190614792565b6134fa565b6040516106309190615441565b60405180910390f35b34801561064557600080fd5b50610660600480360381019061065b9190614792565b61351a565b60405161066d9190615441565b60405180910390f35b34801561068257600080fd5b5061069d60048036038101906106989190614820565b61353a565b005b3480156106ab57600080fd5b506106c660048036038101906106c19190614792565b6137ff565b6040516106d39190615441565b60405180910390f35b3480156106e857600080fd5b5061070360048036038101906106fe9190614926565b613e8f565b005b34801561071157600080fd5b5061072c60048036038101906107279190614792565b614393565b005b34801561073a57600080fd5b5061074361448b565b60405161075091906154ad565b60405180910390f35b34801561076557600080fd5b5061076e6144b1565b60405161077b9190615388565b60405180910390f35b6000601260003373ffffffffffffffffffffffffffffffffffffffff1673ffffffffffffffffffffffffffffffffffffffff16815260200190815260200160002060009054906101000a900460ff16610812576040517f08c379a000000000000000000000000000000000000000000000000000000000815260040161080990615616565b60405180910390fd5b6000601060003373ffffffffffffffffffffffffffffffffffffffff1673ffffffffffffffffffffffffffffffffffffffff1681526020019081526020016000205411610894576040517f08c379a000000000000000000000000000000000000000000000000000000000815260040161088b90615676565b60405180910390fd5b600082905060008173ffffffffffffffffffffffffffffffffffffffff16636f307dc36040518163ffffffff1660e01b815260040160206040518083038186803b1580156108e157600080fd5b505afa1580156108f5573d6000803e3d6000fd5b505050506040513d601f19601f8201168201806040525081019061091991906147bb565b90508073ffffffffffffffffffffffffffffffffffffffff1663095ea7b385601060003373ffffffffffffffffffffffffffffffffffffffff1673ffffffffffffffffffffffffffffffffffffffff168152602001908152602001600020546040518363ffffffff1660e01b8152600401610995929190615418565b602060405180830381600087803b1580156109af57600080fd5b505af11580156109c3573d6000803e3d6000fd5b505050506040513d601f19601f820116820180604052508101906109e791906148fd565b5060008273ffffffffffffffffffffffffffffffffffffffff1663a0712d68601060003373ffffffffffffffffffffffffffffffffffffffff1673ffffffffffffffffffffffffffffffffffffffff168152602001908152602001600020546040518263ffffffff1660e01b8152600401610a6291906157b6565b602060405180830381600087803b158015610a7c57600080fd5b505af1158015610a90573d6000803e3d6000fd5b505050506040513d601f19601f82011682018060405250810190610ab49190614990565b9050610b47601060003373ffffffffffffffffffffffffffffffffffffffff1673ffffffffffffffffffffffffffffffffffffffff16815260200190815260200160002054601160003373ffffffffffffffffffffffffffffffffffffffff1673ffffffffffffffffffffffffffffffffffffffff1681526020019081526020016000205461450390919063ffffffff16565b601160003373ffffffffffffffffffffffffffffffffffffffff1673ffffffffffffffffffffffffffffffffffffffff16815260200190815260200160002081905550610c1b601060003373ffffffffffffffffffffffffffffffffffffffff1673ffffffffffffffffffffffffffffffffffffffff16815260200190815260200160002054601060003373ffffffffffffffffffffffffffffffffffffffff1673ffffffffffffffffffffffffffffffffffffffff1681526020019081526020016000205461451990919063ffffffff16565b601060003373ffffffffffffffffffffffffffffffffffffffff1673ffffffffffffffffffffffffffffffffffffffff1681526020019081526020016000208190555060008114610ca1576040517f08c379a0000000000000000000000000000000000000000000000000000000008152600401610c9890615536565b60405180910390fd5b7fadacf827efe383160192c092d8658471945c074229a9746679b5e2b74adff19133601160003373ffffffffffffffffffffffffffffffffffffffff1673ffffffffffffffffffffffffffffffffffffffff16815260200190815260200160002054604051610d11929190615418565b60405180910390a1809350505050919050565b600d5481565b600f602052816000526040600020602052806000526040600020600091509150505481565b600360009054906101000a900473ffffffffffffffffffffffffffffffffffffffff1681565b6000808290508073ffffffffffffffffffffffffffffffffffffffff16636f307dc36040518163ffffffff1660e01b815260040160206040518083038186803b158015610dc157600080fd5b505afa158015610dd5573d6000803e3d6000fd5b505050506040513d601f19601f82011682018060405250810190610df991906147bb565b915050919050565b610e0961452f565b73ffffffffffffffffffffffffffffffffffffffff16610e27612f9a565b73ffffffffffffffffffffffffffffffffffffffff1614610e7d576040517f08c379a0000000000000000000000000000000000000000000000000000000008152600401610e7490615656565b60405180910390fd5b6000600f60008373ffffffffffffffffffffffffffffffffffffffff1673ffffffffffffffffffffffffffffffffffffffff16815260200190815260200160002060003073ffffffffffffffffffffffffffffffffffffffff1673ffffffffffffffffffffffffffffffffffffffff1681526020019081526020016000205411610f3c576040517f08c379a0000000000000000000000000000000000000000000000000000000008152600401610f3390615716565b60405180910390fd5b8073ffffffffffffffffffffffffffffffffffffffff1663a9059cbb600b60009054906101000a900473ffffffffffffffffffffffffffffffffffffffff16600f60008573ffffffffffffffffffffffffffffffffffffffff1673ffffffffffffffffffffffffffffffffffffffff16815260200190815260200160002060003073ffffffffffffffffffffffffffffffffffffffff1673ffffffffffffffffffffffffffffffffffffffff168152602001908152602001600020546040518363ffffffff1660e01b8152600401611015929190615418565b602060405180830381600087803b15801561102f57600080fd5b505af1158015611043573d6000803e3d6000fd5b505050506040513d601f19601f8201168201806040525081019061106791906148fd565b61107057600080fd5b50565b60106020528060005260406000206000915090505481565b600960009054906101000a900473ffffffffffffffffffffffffffffffffffffffff1681565b6000600e60003373ffffffffffffffffffffffffffffffffffffffff1673ffffffffffffffffffffffffffffffffffffffff1681526020019081526020016000209050806003016002015481600301600301541015611145576040517f08c379a000000000000000000000000000000000000000000000000000000000815260040161113c906155d6565b60405180910390fd5b601260003373ffffffffffffffffffffffffffffffffffffffff1673ffffffffffffffffffffffffffffffffffffffff16815260200190815260200160002060009054906101000a900460ff166111d1576040517f08c379a00000000000000000000000000000000000000000000000000000000081526004016111c890615616565b60405180910390fd5b8060030160090160009054906101000a900460ff16611225576040517f08c379a000000000000000000000000000000000000000000000000000000000815260040161121c906155b6565b60405180910390fd5b600073ffffffffffffffffffffffffffffffffffffffff168373ffffffffffffffffffffffffffffffffffffffff161415611295576040517f08c379a000000000000000000000000000000000000000000000000000000000815260040161128c90615796565b60405180910390fd5b8273ffffffffffffffffffffffffffffffffffffffff166323b872dd3330856040518463ffffffff1660e01b81526004016112d2939291906153a3565b602060405180830381600087803b1580156112ec57600080fd5b505af1158015611300573d6000803e3d6000fd5b505050506040513d601f19601f8201168201806040525081019061132491906148fd565b611363576040517f08c379a000000000000000000000000000000000000000000000000000000000815260040161135a906156f6565b60405180910390fd5b6113f282600f60008673ffffffffffffffffffffffffffffffffffffffff1673ffffffffffffffffffffffffffffffffffffffff16815260200190815260200160002060003373ffffffffffffffffffffffffffffffffffffffff1673ffffffffffffffffffffffffffffffffffffffff1681526020019081526020016000205461450390919063ffffffff16565b600f60008573ffffffffffffffffffffffffffffffffffffffff1673ffffffffffffffffffffffffffffffffffffffff16815260200190815260200160002060003373ffffffffffffffffffffffffffffffffffffffff1673ffffffffffffffffffffffffffffffffffffffff168152602001908152602001600020819055506114c482601060003373ffffffffffffffffffffffffffffffffffffffff1673ffffffffffffffffffffffffffffffffffffffff1681526020019081526020016000205461450390919063ffffffff16565b601060003373ffffffffffffffffffffffffffffffffffffffff1673ffffffffffffffffffffffffffffffffffffffff1681526020019081526020016000208190555061152182826003016003015461451990919063ffffffff16565b8160030160030181905550611542600160075461450390919063ffffffff16565b600781905550600f60008473ffffffffffffffffffffffffffffffffffffffff1673ffffffffffffffffffffffffffffffffffffffff16815260200190815260200160002060003373ffffffffffffffffffffffffffffffffffffffff1673ffffffffffffffffffffffffffffffffffffffff168152602001908152602001600020543373ffffffffffffffffffffffffffffffffffffffff167f5548c837ab068cf56a2c2479df0882a4922fd203edb7517321831d95078c5f623060405161160b9190615388565b60405180910390a3505050565b6014818154811061162857600080fd5b90600052602060002090600d02016000915090508060000154908060010160009054906101000a900473ffffffffffffffffffffffffffffffffffffffff169080600201805461167790615b13565b80601f01602080910402602001604051908101604052809291908181526020018280546116a390615b13565b80156116f05780601f106116c5576101008083540402835291602001916116f0565b820191906000526020600020905b8154815290600101906020018083116116d357829003601f168201915b50505050509080600301604051806101400160405290816000820160009054906101000a900473ffffffffffffffffffffffffffffffffffffffff1673ffffffffffffffffffffffffffffffffffffffff1673ffffffffffffffffffffffffffffffffffffffff1681526020016001820154815260200160028201548152602001600382015481526020016004820154815260200160058201548152602001600682015481526020016007820180546117a890615b13565b80601f01602080910402602001604051908101604052809291908181526020018280546117d490615b13565b80156118215780601f106117f657610100808354040283529160200191611821565b820191906000526020600020905b81548152906001019060200180831161180457829003601f168201915b50505050508152602001600882015481526020016009820160009054906101000a900460ff161515151581525050905084565b600a60009054906101000a900473ffffffffffffffffffffffffffffffffffffffff1681565b600c5481565b6000600f60008373ffffffffffffffffffffffffffffffffffffffff1673ffffffffffffffffffffffffffffffffffffffff16815260200190815260200160002060003373ffffffffffffffffffffffffffffffffffffffff1673ffffffffffffffffffffffffffffffffffffffff168152602001908152602001600020541015611940576040517f08c379a0000000000000000000000000000000000000000000000000000000008152600401611937906156b6565b60405180910390fd5b600073ffffffffffffffffffffffffffffffffffffffff168173ffffffffffffffffffffffffffffffffffffffff16141561197a57600080fd5b6000600e60003373ffffffffffffffffffffffffffffffffffffffff1673ffffffffffffffffffffffffffffffffffffffff16815260200190815260200160002090506000611a626014611a546064600f60008873ffffffffffffffffffffffffffffffffffffffff1673ffffffffffffffffffffffffffffffffffffffff16815260200190815260200160002060003373ffffffffffffffffffffffffffffffffffffffff1673ffffffffffffffffffffffffffffffffffffffff168152602001908152602001600020546144d790919063ffffffff16565b61453790919063ffffffff16565b9050611af381600f60008673ffffffffffffffffffffffffffffffffffffffff1673ffffffffffffffffffffffffffffffffffffffff16815260200190815260200160002060003073ffffffffffffffffffffffffffffffffffffffff1673ffffffffffffffffffffffffffffffffffffffff1681526020019081526020016000205461450390919063ffffffff16565b600f60008573ffffffffffffffffffffffffffffffffffffffff1673ffffffffffffffffffffffffffffffffffffffff16815260200190815260200160002060003073ffffffffffffffffffffffffffffffffffffffff1673ffffffffffffffffffffffffffffffffffffffff16815260200190815260200160002081905550600080601060003373ffffffffffffffffffffffffffffffffffffffff1673ffffffffffffffffffffffffffffffffffffffff16815260200190815260200160002054111561200057611c9c601060003373ffffffffffffffffffffffffffffffffffffffff1673ffffffffffffffffffffffffffffffffffffffff16815260200190815260200160002054611c8e84600f60008973ffffffffffffffffffffffffffffffffffffffff1673ffffffffffffffffffffffffffffffffffffffff16815260200190815260200160002060003373ffffffffffffffffffffffffffffffffffffffff1673ffffffffffffffffffffffffffffffffffffffff1681526020019081526020016000205461451990919063ffffffff16565b61450390919063ffffffff16565b9050611d2f601060003373ffffffffffffffffffffffffffffffffffffffff1673ffffffffffffffffffffffffffffffffffffffff16815260200190815260200160002054601060003373ffffffffffffffffffffffffffffffffffffffff1673ffffffffffffffffffffffffffffffffffffffff1681526020019081526020016000205461451990919063ffffffff16565b601060003373ffffffffffffffffffffffffffffffffffffffff1673ffffffffffffffffffffffffffffffffffffffff16815260200190815260200160002081905550611e7d600f60008673ffffffffffffffffffffffffffffffffffffffff1673ffffffffffffffffffffffffffffffffffffffff16815260200190815260200160002060003373ffffffffffffffffffffffffffffffffffffffff1673ffffffffffffffffffffffffffffffffffffffff16815260200190815260200160002054600f60008773ffffffffffffffffffffffffffffffffffffffff1673ffffffffffffffffffffffffffffffffffffffff16815260200190815260200160002060003373ffffffffffffffffffffffffffffffffffffffff1673ffffffffffffffffffffffffffffffffffffffff1681526020019081526020016000205461451990919063ffffffff16565b600f60008673ffffffffffffffffffffffffffffffffffffffff1673ffffffffffffffffffffffffffffffffffffffff16815260200190815260200160002060003373ffffffffffffffffffffffffffffffffffffffff1673ffffffffffffffffffffffffffffffffffffffff168152602001908152602001600020819055508373ffffffffffffffffffffffffffffffffffffffff1663a9059cbb33836040518363ffffffff1660e01b8152600401611f38929190615418565b602060405180830381600087803b158015611f5257600080fd5b505af1158015611f66573d6000803e3d6000fd5b505050506040513d601f19601f82011682018060405250810190611f8a91906148fd565b611f9357600080fd5b60008360030160090160006101000a81548160ff021916908315150217905550600083600301600601819055507f9b1bfa7fa9ee420a16e124f794c35ac9f90472acc99140eb2f6447c714cad8eb303383604051611ff3939291906153a3565b60405180910390a161231b565b61208f82600f60008773ffffffffffffffffffffffffffffffffffffffff1673ffffffffffffffffffffffffffffffffffffffff16815260200190815260200160002060003373ffffffffffffffffffffffffffffffffffffffff1673ffffffffffffffffffffffffffffffffffffffff1681526020019081526020016000205461451990919063ffffffff16565b905061219c600f60008673ffffffffffffffffffffffffffffffffffffffff1673ffffffffffffffffffffffffffffffffffffffff16815260200190815260200160002060003373ffffffffffffffffffffffffffffffffffffffff1673ffffffffffffffffffffffffffffffffffffffff16815260200190815260200160002054600f60008773ffffffffffffffffffffffffffffffffffffffff1673ffffffffffffffffffffffffffffffffffffffff16815260200190815260200160002060003373ffffffffffffffffffffffffffffffffffffffff1673ffffffffffffffffffffffffffffffffffffffff1681526020019081526020016000205461451990919063ffffffff16565b600f60008673ffffffffffffffffffffffffffffffffffffffff1673ffffffffffffffffffffffffffffffffffffffff16815260200190815260200160002060003373ffffffffffffffffffffffffffffffffffffffff1673ffffffffffffffffffffffffffffffffffffffff168152602001908152602001600020819055508373ffffffffffffffffffffffffffffffffffffffff1663a9059cbb33836040518363ffffffff1660e01b8152600401612257929190615418565b602060405180830381600087803b15801561227157600080fd5b505af1158015612285573d6000803e3d6000fd5b505050506040513d601f19601f820116820180604052508101906122a991906148fd565b6122b257600080fd5b60008360030160090160006101000a81548160ff021916908315150217905550600083600301600601819055507f9b1bfa7fa9ee420a16e124f794c35ac9f90472acc99140eb2f6447c714cad8eb303383604051612312939291906153a3565b60405180910390a15b50505050565b600e6020528060005260406000206000915090508060000154908060010160009054906101000a900473ffffffffffffffffffffffffffffffffffffffff169080600201805461237090615b13565b80601f016020809104026020016040519081016040528092919081815260200182805461239c90615b13565b80156123e95780601f106123be576101008083540402835291602001916123e9565b820191906000526020600020905b8154815290600101906020018083116123cc57829003601f168201915b50505050509080600301604051806101400160405290816000820160009054906101000a900473ffffffffffffffffffffffffffffffffffffffff1673ffffffffffffffffffffffffffffffffffffffff1673ffffffffffffffffffffffffffffffffffffffff1681526020016001820154815260200160028201548152602001600382015481526020016004820154815260200160058201548152602001600682015481526020016007820180546124a190615b13565b80601f01602080910402602001604051908101604052809291908181526020018280546124cd90615b13565b801561251a5780601f106124ef5761010080835404028352916020019161251a565b820191906000526020600020905b8154815290600101906020018083116124fd57829003601f168201915b50505050508152602001600882015481526020016009820160009054906101000a900460ff161515151581525050905084565b6000600160009054906101000a900460ff16905090565b600260009054906101000a900473ffffffffffffffffffffffffffffffffffffffff1681565b60116020528060005260406000206000915090505481565b6125aa61452f565b73ffffffffffffffffffffffffffffffffffffffff166125c8612f9a565b73ffffffffffffffffffffffffffffffffffffffff161461261e576040517f08c379a000000000000000000000000000000000000000000000000000000000815260040161261590615656565b60405180910390fd5b612628600061454d565b565b60026000541415612670576040517f08c379a000000000000000000000000000000000000000000000000000000000815260040161266790615756565b60405180910390fd5b600260008190555061268061254d565b156126c0576040517f08c379a00000000000000000000000000000000000000000000000000000000081526004016126b790615576565b60405180910390fd5b6000600f60008373ffffffffffffffffffffffffffffffffffffffff1673ffffffffffffffffffffffffffffffffffffffff16815260200190815260200160002060003373ffffffffffffffffffffffffffffffffffffffff1673ffffffffffffffffffffffffffffffffffffffff168152602001908152602001600020541161277f576040517f08c379a000000000000000000000000000000000000000000000000000000000815260040161277690615596565b60405180910390fd5b600073ffffffffffffffffffffffffffffffffffffffff168173ffffffffffffffffffffffffffffffffffffffff1614156127b957600080fd5b6000600e60003373ffffffffffffffffffffffffffffffffffffffff1673ffffffffffffffffffffffffffffffffffffffff168152602001908152602001600020905080600301600601544211612845576040517f08c379a000000000000000000000000000000000000000000000000000000000815260040161283c906156d6565b60405180910390fd5b6000601060003373ffffffffffffffffffffffffffffffffffffffff1673ffffffffffffffffffffffffffffffffffffffff168152602001908152602001600020541115612d97578173ffffffffffffffffffffffffffffffffffffffff1663a9059cbb33601060003373ffffffffffffffffffffffffffffffffffffffff1673ffffffffffffffffffffffffffffffffffffffff168152602001908152602001600020546040518363ffffffff1660e01b8152600401612907929190615418565b602060405180830381600087803b15801561292157600080fd5b505af1158015612935573d6000803e3d6000fd5b505050506040513d601f19601f8201168201806040525081019061295991906148fd565b61296257600080fd5b6000612a32601060003373ffffffffffffffffffffffffffffffffffffffff1673ffffffffffffffffffffffffffffffffffffffff16815260200190815260200160002054600f60008673ffffffffffffffffffffffffffffffffffffffff1673ffffffffffffffffffffffffffffffffffffffff16815260200190815260200160002060003373ffffffffffffffffffffffffffffffffffffffff1673ffffffffffffffffffffffffffffffffffffffff1681526020019081526020016000205461451990919063ffffffff16565b9050612ac5601060003373ffffffffffffffffffffffffffffffffffffffff1673ffffffffffffffffffffffffffffffffffffffff16815260200190815260200160002054601060003373ffffffffffffffffffffffffffffffffffffffff1673ffffffffffffffffffffffffffffffffffffffff1681526020019081526020016000205461451990919063ffffffff16565b601060003373ffffffffffffffffffffffffffffffffffffffff1673ffffffffffffffffffffffffffffffffffffffff16815260200190815260200160002081905550612c13600f60008573ffffffffffffffffffffffffffffffffffffffff1673ffffffffffffffffffffffffffffffffffffffff16815260200190815260200160002060003373ffffffffffffffffffffffffffffffffffffffff1673ffffffffffffffffffffffffffffffffffffffff16815260200190815260200160002054600f60008673ffffffffffffffffffffffffffffffffffffffff1673ffffffffffffffffffffffffffffffffffffffff16815260200190815260200160002060003373ffffffffffffffffffffffffffffffffffffffff1673ffffffffffffffffffffffffffffffffffffffff1681526020019081526020016000205461451990919063ffffffff16565b600f60008573ffffffffffffffffffffffffffffffffffffffff1673ffffffffffffffffffffffffffffffffffffffff16815260200190815260200160002060003373ffffffffffffffffffffffffffffffffffffffff1673ffffffffffffffffffffffffffffffffffffffff168152602001908152602001600020819055508273ffffffffffffffffffffffffffffffffffffffff1663a9059cbb33836040518363ffffffff1660e01b8152600401612cce929190615418565b602060405180830381600087803b158015612ce857600080fd5b505af1158015612cfc573d6000803e3d6000fd5b505050506040513d601f19601f82011682018060405250810190612d2091906148fd565b612d2957600080fd5b60008260030160090160006101000a81548160ff021916908315150217905550600082600301600601819055507f9b1bfa7fa9ee420a16e124f794c35ac9f90472acc99140eb2f6447c714cad8eb303383604051612d89939291906153a3565b60405180910390a150612f8e565b8173ffffffffffffffffffffffffffffffffffffffff1663a9059cbb33600f60008673ffffffffffffffffffffffffffffffffffffffff1673ffffffffffffffffffffffffffffffffffffffff16815260200190815260200160002060003373ffffffffffffffffffffffffffffffffffffffff1673ffffffffffffffffffffffffffffffffffffffff168152602001908152602001600020546040518363ffffffff1660e01b8152600401612e4e929190615418565b602060405180830381600087803b158015612e6857600080fd5b505af1158015612e7c573d6000803e3d6000fd5b505050506040513d601f19601f82011682018060405250810190612ea091906148fd565b612ea957600080fd5b60008160030160090160006101000a81548160ff021916908315150217905550600081600301600601819055507f9b1bfa7fa9ee420a16e124f794c35ac9f90472acc99140eb2f6447c714cad8eb3033600f60008673ffffffffffffffffffffffffffffffffffffffff1673ffffffffffffffffffffffffffffffffffffffff16815260200190815260200160002060003373ffffffffffffffffffffffffffffffffffffffff1673ffffffffffffffffffffffffffffffffffffffff16815260200190815260200160002054604051612f85939291906153a3565b60405180910390a15b50600160008190555050565b600060018054906101000a900473ffffffffffffffffffffffffffffffffffffffff16905090565b601260003373ffffffffffffffffffffffffffffffffffffffff1673ffffffffffffffffffffffffffffffffffffffff16815260200190815260200160002060009054906101000a900460ff1661304e576040517f08c379a0000000000000000000000000000000000000000000000000000000008152600401613045906154c8565b60405180910390fd5b6000600e60003373ffffffffffffffffffffffffffffffffffffffff1673ffffffffffffffffffffffffffffffffffffffff16815260200190815260200160002090506000816003016006018190555050565b600080600e60003373ffffffffffffffffffffffffffffffffffffffff1673ffffffffffffffffffffffffffffffffffffffff168152602001908152602001600020604051806080016040529081600082015481526020016001820160009054906101000a900473ffffffffffffffffffffffffffffffffffffffff1673ffffffffffffffffffffffffffffffffffffffff1673ffffffffffffffffffffffffffffffffffffffff16815260200160028201805461315e90615b13565b80601f016020809104026020016040519081016040528092919081815260200182805461318a90615b13565b80156131d75780601f106131ac576101008083540402835291602001916131d7565b820191906000526020600020905b8154815290600101906020018083116131ba57829003601f168201915b5050505050815260200160038201604051806101400160405290816000820160009054906101000a900473ffffffffffffffffffffffffffffffffffffffff1673ffffffffffffffffffffffffffffffffffffffff1673ffffffffffffffffffffffffffffffffffffffff16815260200160018201548152602001600282015481526020016003820154815260200160048201548152602001600582015481526020016006820154815260200160078201805461329390615b13565b80601f01602080910402602001604051908101604052809291908181526020018280546132bf90615b13565b801561330c5780601f106132e15761010080835404028352916020019161330c565b820191906000526020600020905b8154815290600101906020018083116132ef57829003601f168201915b50505050508152602001600882015481526020016009820160009054906101000a900460ff161515151581525050815250509050601260003373ffffffffffffffffffffffffffffffffffffffff1673ffffffffffffffffffffffffffffffffffffffff16815260200190815260200160002060009054906101000a900460ff166133cc576040517f08c379a00000000000000000000000000000000000000000000000000000000081526004016133c390615616565b60405180910390fd5b6000816060015160000151905060008173ffffffffffffffffffffffffffffffffffffffff1663ae9d70b06040518163ffffffff1660e01b815260040160206040518083038186803b15801561342157600080fd5b505afa158015613435573d6000803e3d6000fd5b505050506040513d601f19601f820116820180604052508101906134599190614990565b905060006134ec82600f60008973ffffffffffffffffffffffffffffffffffffffff1673ffffffffffffffffffffffffffffffffffffffff16815260200190815260200160002060003373ffffffffffffffffffffffffffffffffffffffff1673ffffffffffffffffffffffffffffffffffffffff1681526020019081526020016000205461453790919063ffffffff16565b905080945050505050919050565b60126020528060005260406000206000915054906101000a900460ff1681565b60136020528060005260406000206000915054906101000a900460ff1681565b82841161357c576040517f08c379a000000000000000000000000000000000000000000000000000000000815260040161357390615736565b60405180910390fd5b600083116135bf576040517f08c379a00000000000000000000000000000000000000000000000000000000081526004016135b690615696565b60405180910390fd5b601260003373ffffffffffffffffffffffffffffffffffffffff1673ffffffffffffffffffffffffffffffffffffffff16815260200190815260200160002060009054906101000a900460ff1661364b576040517f08c379a000000000000000000000000000000000000000000000000000000000815260040161364290615636565b60405180910390fd5b6000600e60003373ffffffffffffffffffffffffffffffffffffffff1673ffffffffffffffffffffffffffffffffffffffff168152602001908152602001600020905060008160030160060154146136d8576040517f08c379a00000000000000000000000000000000000000000000000000000000081526004016136cf906155f6565b60405180910390fd5b868160030160000160006101000a81548173ffffffffffffffffffffffffffffffffffffffff021916908373ffffffffffffffffffffffffffffffffffffffff160217905550613731824261450390919063ffffffff16565b816003016006018190555061374f834261450390919063ffffffff16565b81600301600501819055508581600301600701908051906020019061377592919061461e565b5084816003016003018190555083816003016002018190555060018160030160090160006101000a81548160ff0219169083151502179055507f0a342f2e207c3c328a10158ad0b71a9e64a10e319c5d635be24f8c7e418ea6e4338260030160070183600301600601546040516137ee939291906153da565b60405180910390a150505050505050565b600060026000541415613847576040517f08c379a000000000000000000000000000000000000000000000000000000000815260040161383e90615756565b60405180910390fd5b6002600081905550601260003373ffffffffffffffffffffffffffffffffffffffff1673ffffffffffffffffffffffffffffffffffffffff16815260200190815260200160002060009054906101000a900460ff166138db576040517f08c379a00000000000000000000000000000000000000000000000000000000081526004016138d290615616565b60405180910390fd5b6000601160003373ffffffffffffffffffffffffffffffffffffffff1673ffffffffffffffffffffffffffffffffffffffff168152602001908152602001600020541161395d576040517f08c379a000000000000000000000000000000000000000000000000000000000815260040161395490615776565b60405180910390fd5b6000600e60003373ffffffffffffffffffffffffffffffffffffffff1673ffffffffffffffffffffffffffffffffffffffff168152602001908152602001600020604051806080016040529081600082015481526020016001820160009054906101000a900473ffffffffffffffffffffffffffffffffffffffff1673ffffffffffffffffffffffffffffffffffffffff1673ffffffffffffffffffffffffffffffffffffffff168152602001600282018054613a1990615b13565b80601f0160208091040260200160405190810160405280929190818152602001828054613a4590615b13565b8015613a925780601f10613a6757610100808354040283529160200191613a92565b820191906000526020600020905b815481529060010190602001808311613a7557829003601f168201915b5050505050815260200160038201604051806101400160405290816000820160009054906101000a900473ffffffffffffffffffffffffffffffffffffffff1673ffffffffffffffffffffffffffffffffffffffff1673ffffffffffffffffffffffffffffffffffffffff168152602001600182015481526020016002820154815260200160038201548152602001600482015481526020016005820154815260200160068201548152602001600782018054613b4e90615b13565b80601f0160208091040260200160405190810160405280929190818152602001828054613b7a90615b13565b8015613bc75780601f10613b9c57610100808354040283529160200191613bc7565b820191906000526020600020905b815481529060010190602001808311613baa57829003601f168201915b50505050508152602001600882015481526020016009820160009054906101000a900460ff161515151581525050815250509050806060015160c001514211613c45576040517f08c379a0000000000000000000000000000000000000000000000000000000008152600401613c3c906156d6565b60405180910390fd5b600083905060008173ffffffffffffffffffffffffffffffffffffffff1663852a12e3601160003373ffffffffffffffffffffffffffffffffffffffff1673ffffffffffffffffffffffffffffffffffffffff168152602001908152602001600020546040518263ffffffff1660e01b8152600401613cc491906157b6565b602060405180830381600087803b158015613cde57600080fd5b505af1158015613cf2573d6000803e3d6000fd5b505050506040513d601f19601f82011682018060405250810190613d169190614990565b90506001601360003373ffffffffffffffffffffffffffffffffffffffff1673ffffffffffffffffffffffffffffffffffffffff16815260200190815260200160002060006101000a81548160ff021916908315150217905550613e01601160003373ffffffffffffffffffffffffffffffffffffffff1673ffffffffffffffffffffffffffffffffffffffff16815260200190815260200160002054601160003373ffffffffffffffffffffffffffffffffffffffff1673ffffffffffffffffffffffffffffffffffffffff1681526020019081526020016000205461451990919063ffffffff16565b601160003373ffffffffffffffffffffffffffffffffffffffff1673ffffffffffffffffffffffffffffffffffffffff168152602001908152602001600020819055507f603e4c2c8c15da5a0be62bd1c07839013be08e4b28a49d0ab0224958a2feb65181604051613e739190615508565b60405180910390a1600193505050506001600081905550919050565b601260003373ffffffffffffffffffffffffffffffffffffffff1673ffffffffffffffffffffffffffffffffffffffff16815260200190815260200160002060009054906101000a900460ff1615613f1c576040517f08c379a0000000000000000000000000000000000000000000000000000000008152600401613f1390615556565b60405180910390fd5b6000604051806101400160405280600073ffffffffffffffffffffffffffffffffffffffff168152602001600081526020016000815260200160008152602001428152602001600081526020016000815260200160405180602001604052806000815250815260200143815260200160001515815250905060006040518060800160405280613fab6004614610565b81526020013373ffffffffffffffffffffffffffffffffffffffff16815260200184815260200183815250905080600e60003373ffffffffffffffffffffffffffffffffffffffff1673ffffffffffffffffffffffffffffffffffffffff1681526020019081526020016000206000820151816000015560208201518160010160006101000a81548173ffffffffffffffffffffffffffffffffffffffff021916908373ffffffffffffffffffffffffffffffffffffffff160217905550604082015181600201908051906020019061408592919061461e565b5060608201518160030160008201518160000160006101000a81548173ffffffffffffffffffffffffffffffffffffffff021916908373ffffffffffffffffffffffffffffffffffffffff1602179055506020820151816001015560408201518160020155606082015181600301556080820151816004015560a0820151816005015560c0820151816006015560e082015181600701908051906020019061412e92919061461e565b5061010082015181600801556101208201518160090160006101000a81548160ff021916908315150217905550505090505060148190806001815401808255809150506001900390600052602060002090600d02016000909190919091506000820151816000015560208201518160010160006101000a81548173ffffffffffffffffffffffffffffffffffffffff021916908373ffffffffffffffffffffffffffffffffffffffff16021790555060408201518160020190805190602001906141f992919061461e565b5060608201518160030160008201518160000160006101000a81548173ffffffffffffffffffffffffffffffffffffffff021916908373ffffffffffffffffffffffffffffffffffffffff1602179055506020820151816001015560408201518160020155606082015181600301556080820151816004015560a0820151816005015560c0820151816006015560e08201518160070190805190602001906142a292919061461e565b5061010082015181600801556101208201518160090160006101000a81548160ff021916908315150217905550505050506001601260003373ffffffffffffffffffffffffffffffffffffffff1673ffffffffffffffffffffffffffffffffffffffff16815260200190815260200160002060006101000a81548160ff02191690831515021790555061433560046144ed565b826040516143439190615371565b60405180910390203373ffffffffffffffffffffffffffffffffffffffff167f6ba0831d2f62ae5cbf7214bcc1d79c5da1d705f12811efda0beaa840006f874e60405160405180910390a3505050565b61439b61452f565b73ffffffffffffffffffffffffffffffffffffffff166143b9612f9a565b73ffffffffffffffffffffffffffffffffffffffff161461440f576040517f08c379a000000000000000000000000000000000000000000000000000000000815260040161440690615656565b60405180910390fd5b600073ffffffffffffffffffffffffffffffffffffffff168173ffffffffffffffffffffffffffffffffffffffff16141561447f576040517f08c379a0000000000000000000000000000000000000000000000000000000008152600401614476906154e8565b60405180910390fd5b6144888161454d565b50565b600860009054906101000a900473ffffffffffffffffffffffffffffffffffffffff1681565b600b60009054906101000a900473ffffffffffffffffffffffffffffffffffffffff1681565b600081836144e59190615928565b905092915050565b6001816000016000828254019250508190555050565b6000818361451191906158d2565b905092915050565b6000818361452791906159b3565b905092915050565b600033905090565b600081836145459190615959565b905092915050565b600060018054906101000a900473ffffffffffffffffffffffffffffffffffffffff169050816001806101000a81548173ffffffffffffffffffffffffffffffffffffffff021916908373ffffffffffffffffffffffffffffffffffffffff1602179055508173ffffffffffffffffffffffffffffffffffffffff168173ffffffffffffffffffffffffffffffffffffffff167f8be0079c531659141344cd1fd0a4f28419497f9722a3daafe3b4186f6b6457e060405160405180910390a35050565b600081600001549050919050565b82805461462a90615b13565b90600052602060002090601f01602090048101928261464c5760008555614693565b82601f1061466557805160ff1916838001178555614693565b82800160010185558215614693579182015b82811115614692578251825591602001919060010190614677565b5b5090506146a091906146a4565b5090565b5b808211156146bd5760008160009055506001016146a5565b5090565b60006146d46146cf84615855565b615824565b9050828152602081018484840111156146ec57600080fd5b6146f7848285615ad1565b509392505050565b60008135905061470e81615c12565b92915050565b60008151905061472381615c12565b92915050565b60008151905061473881615c29565b92915050565b600082601f83011261474f57600080fd5b813561475f8482602086016146c1565b91505092915050565b60008135905061477781615c40565b92915050565b60008151905061478c81615c40565b92915050565b6000602082840312156147a457600080fd5b60006147b2848285016146ff565b91505092915050565b6000602082840312156147cd57600080fd5b60006147db84828501614714565b91505092915050565b600080604083850312156147f757600080fd5b6000614805858286016146ff565b9250506020614816858286016146ff565b9150509250929050565b60008060008060008060c0878903121561483957600080fd5b600061484789828a016146ff565b965050602087013567ffffffffffffffff81111561486457600080fd5b61487089828a0161473e565b955050604061488189828a01614768565b945050606061489289828a01614768565b93505060806148a389828a01614768565b92505060a06148b489828a01614768565b9150509295509295509295565b600080604083850312156148d457600080fd5b60006148e2858286016146ff565b92505060206148f385828601614768565b9150509250929050565b60006020828403121561490f57600080fd5b600061491d84828501614729565b91505092915050565b60006020828403121561493857600080fd5b600082013567ffffffffffffffff81111561495257600080fd5b61495e8482850161473e565b91505092915050565b60006020828403121561497957600080fd5b600061498784828501614768565b91505092915050565b6000602082840312156149a257600080fd5b60006149b08482850161477d565b91505092915050565b6149c2816159f9565b82525050565b6149d1816159e7565b82525050565b6149e0816159e7565b82525050565b6149ef81615a0b565b82525050565b6149fe81615a0b565b82525050565b614a0d81615a41565b82525050565b614a1c81615a65565b82525050565b614a2b81615a89565b82525050565b614a3a81615aad565b82525050565b6000614a4b8261589a565b614a5581856158a5565b9350614a65818560208601615ae0565b614a6e81615c01565b840191505092915050565b6000614a848261589a565b614a8e81856158b6565b9350614a9e818560208601615ae0565b614aa781615c01565b840191505092915050565b6000614abd8261589a565b614ac781856158c7565b9350614ad7818560208601615ae0565b80840191505092915050565b60008154614af081615b13565b614afa81866158b6565b94506001821660008114614b155760018114614b2757614b5a565b60ff1983168652602086019350614b5a565b614b3085615885565b60005b83811015614b5257815481890152600182019150602081019050614b33565b808801955050505b50505092915050565b6000614b706018836158b6565b91507f63616c6c6572206973206e6f74207265676973746572656400000000000000006000830152602082019050919050565b6000614bb06026836158b6565b91507f4f776e61626c653a206e6577206f776e657220697320746865207a65726f206160008301527f64647265737300000000000000000000000000000000000000000000000000006020830152604082019050919050565b6000614c166024836158b6565b91507f49662074686973206973206e6f7420302c2074686572652077617320616e206560008301527f72726f72000000000000000000000000000000000000000000000000000000006020830152604082019050919050565b6000614c7c6034836158b6565b91507f63546f6b656e236d696e742829206661696c65642e2073656520436f6d706f7560008301527f6e64204572726f725265706f727465722e736f6c0000000000000000000000006020830152604082019050919050565b6000614ce2601d836158b6565b91507f43616c6c6572206164647265737320616c7265616479206578697374730000006000830152602082019050919050565b6000614d226010836158b6565b91507f5061757361626c653a20706175736564000000000000000000000000000000006000830152602082019050919050565b6000614d626027836158b6565b91507f596f752068617665206e6f2066756e647320617661696c61626c6520746f207760008301527f69746864726177000000000000000000000000000000000000000000000000006020830152604082019050919050565b6000614dc86012836158b6565b91507f43616c6c657220686173206e6f20706c616e00000000000000000000000000006000830152602082019050919050565b6000614e08604e836158b6565b91507f596f752068617665206578656365656465642074686520617070726f7665642060008301527f616d6f756e7420666f72207468697320706c616e2c20706c65617365206d616b60208301527f6520616e6f7468657220706c616e0000000000000000000000000000000000006040830152606082019050919050565b6000614e946022836158b6565b91507f43616c6c657220616c7265616479206861732061206c6f636b2054696d65205360008301527f65740000000000000000000000000000000000000000000000000000000000006020830152604082019050919050565b6000614efa6015836158b6565b91507f43616c6c6572206e6f74207265676973746572656400000000000000000000006000830152602082019050919050565b6000614f3a601b836158b6565b91507f43616c6c65722068617320746f206265205265676973746572656400000000006000830152602082019050919050565b6000614f7a6020836158b6565b91507f4f776e61626c653a2063616c6c6572206973206e6f7420746865206f776e65726000830152602082019050919050565b6000614fba6012836158b6565b91507f416d6f756e742063616e6e6f74206265203000000000000000000000000000006000830152602082019050919050565b6000614ffa6020836158b6565b91507f617070726f766520616e20616d6f756e742067726561746572207468616e20306000830152602082019050919050565b600061503a601c836158b6565b91507f596f752063616e6e6f74207769746864726177203020616d6f756e74000000006000830152602082019050919050565b600061507a602f836158b6565b91507f556e61626c6520746f207769746864726177206265666f726520796f7572206c60008301527f6f636b74696d65206578706972657300000000000000000000000000000000006020830152604082019050919050565b60006150e06012836158b6565b91507f4465706f73697420686173206661696c656400000000000000000000000000006000830152602082019050919050565b60006151206018836158b6565b91507f43616e6e6f74207769746864726177203020616d6f756e7400000000000000006000830152602082019050919050565b6000615160602f836158b6565b91507f53657420616e20616d6f756e742067726561746572207468616e20746865207260008301527f6563757272696e6720616d6f756e7400000000000000000000000000000000006020830152604082019050919050565b60006151c6601f836158b6565b91507f5265656e7472616e637947756172643a207265656e7472616e742063616c6c006000830152602082019050919050565b6000615206601d836158b6565b91507f43616c6c657220686173206e6f7420737570706c6965642066756e64730000006000830152602082019050919050565b60006152466012836158b6565b91507f4164647265737320697320696e76616c696400000000000000000000000000006000830152602082019050919050565b60006101408301600083015161529260008601826149c8565b5060208301516152a56020860182615353565b5060408301516152b86040860182615353565b5060608301516152cb6060860182615353565b5060808301516152de6080860182615353565b5060a08301516152f160a0860182615353565b5060c083015161530460c0860182615353565b5060e083015184820360e086015261531c8282614a40565b915050610100830151615333610100860182615353565b506101208301516153486101208601826149e6565b508091505092915050565b61535c81615a37565b82525050565b61536b81615a37565b82525050565b600061537d8284614ab2565b915081905092915050565b600060208201905061539d60008301846149d7565b92915050565b60006060820190506153b860008301866149d7565b6153c560208301856149d7565b6153d26040830184615362565b949350505050565b60006060820190506153ef60008301866149d7565b81810360208301526154018185614ae3565b90506154106040830184615362565b949350505050565b600060408201905061542d60008301856149d7565b61543a6020830184615362565b9392505050565b600060208201905061545660008301846149f5565b92915050565b60006020820190506154716000830184614a04565b92915050565b600060208201905061548c6000830184614a13565b92915050565b60006020820190506154a76000830184614a22565b92915050565b60006020820190506154c26000830184614a31565b92915050565b600060208201905081810360008301526154e181614b63565b9050919050565b6000602082019050818103600083015261550181614ba3565b9050919050565b6000604082019050818103600083015261552181614c09565b90506155306020830184615362565b92915050565b6000602082019050818103600083015261554f81614c6f565b9050919050565b6000602082019050818103600083015261556f81614cd5565b9050919050565b6000602082019050818103600083015261558f81614d15565b9050919050565b600060208201905081810360008301526155af81614d55565b9050919050565b600060208201905081810360008301526155cf81614dbb565b9050919050565b600060208201905081810360008301526155ef81614dfb565b9050919050565b6000602082019050818103600083015261560f81614e87565b9050919050565b6000602082019050818103600083015261562f81614eed565b9050919050565b6000602082019050818103600083015261564f81614f2d565b9050919050565b6000602082019050818103600083015261566f81614f6d565b9050919050565b6000602082019050818103600083015261568f81614fad565b9050919050565b600060208201905081810360008301526156af81614fed565b9050919050565b600060208201905081810360008301526156cf8161502d565b9050919050565b600060208201905081810360008301526156ef8161506d565b9050919050565b6000602082019050818103600083015261570f816150d3565b9050919050565b6000602082019050818103600083015261572f81615113565b9050919050565b6000602082019050818103600083015261574f81615153565b9050919050565b6000602082019050818103600083015261576f816151b9565b9050919050565b6000602082019050818103600083015261578f816151f9565b9050919050565b600060208201905081810360008301526157af81615239565b9050919050565b60006020820190506157cb6000830184615362565b92915050565b60006080820190506157e66000830187615362565b6157f360208301866149b9565b81810360408301526158058185614a79565b905081810360608301526158198184615279565b905095945050505050565b6000604051905081810181811067ffffffffffffffff8211171561584b5761584a615bd2565b5b8060405250919050565b600067ffffffffffffffff8211156158705761586f615bd2565b5b601f19601f8301169050602081019050919050565b60008190508160005260206000209050919050565b600081519050919050565b600082825260208201905092915050565b600082825260208201905092915050565b600081905092915050565b60006158dd82615a37565b91506158e883615a37565b9250827fffffffffffffffffffffffffffffffffffffffffffffffffffffffffffffffff0382111561591d5761591c615b45565b5b828201905092915050565b600061593382615a37565b915061593e83615a37565b92508261594e5761594d615b74565b5b828204905092915050565b600061596482615a37565b915061596f83615a37565b9250817fffffffffffffffffffffffffffffffffffffffffffffffffffffffffffffffff04831182151516156159a8576159a7615b45565b5b828202905092915050565b60006159be82615a37565b91506159c983615a37565b9250828210156159dc576159db615b45565b5b828203905092915050565b60006159f282615a17565b9050919050565b6000615a0482615a17565b9050919050565b60008115159050919050565b600073ffffffffffffffffffffffffffffffffffffffff82169050919050565b6000819050919050565b6000615a4c82615a53565b9050919050565b6000615a5e82615a17565b9050919050565b6000615a7082615a77565b9050919050565b6000615a8282615a17565b9050919050565b6000615a9482615a9b565b9050919050565b6000615aa682615a17565b9050919050565b6000615ab882615abf565b9050919050565b6000615aca82615a17565b9050919050565b82818337600083830152505050565b60005b83811015615afe578082015181840152602081019050615ae3565b83811115615b0d576000848401525b50505050565b60006002820490506001821680615b2b57607f821691505b60208210811415615b3f57615b3e615ba3565b5b50919050565b7f4e487b7100000000000000000000000000000000000000000000000000000000600052601160045260246000fd5b7f4e487b7100000000000000000000000000000000000000000000000000000000600052601260045260246000fd5b7f4e487b7100000000000000000000000000000000000000000000000000000000600052602260045260246000fd5b7f4e487b7100000000000000000000000000000000000000000000000000000000600052604160045260246000fd5b6000601f19601f8301169050919050565b615c1b816159e7565b8114615c2657600080fd5b50565b615c3281615a0b565b8114615c3d57600080fd5b50565b615c4981615a37565b8114615c5457600080fd5b5056fea26469706673582212203ddc157133c524a9dfd718fd28b00b4de20fd2db84ac7ec98533a6305a697b8164736f6c63430008000033",
  "immutableReferences": {},
  "source": "//SPDX-License-Identifier: Unlicense\r\npragma solidity ^0.8.0;\r\n\r\n\r\nimport \"@openzeppelin/contracts/utils/math/SafeMath.sol\";\r\nimport '@openzeppelin/contracts/token/ERC20/IERC20.sol';\r\nimport \"@openzeppelin/contracts/security/Pausable.sol\";\r\nimport \"@openzeppelin/contracts/security/ReentrancyGuard.sol\";\r\nimport \"@openzeppelin/contracts/access/Ownable.sol\";\r\nimport \"@openzeppelin/contracts/utils/Counters.sol\";\r\nimport './CTokenInterface.sol';\r\nimport './ComptrollerInterface.sol';\r\nimport './PriceOracleInterface.sol';\r\nimport \"./XendFinanceInterface.sol\";\r\n\r\n\r\n\r\ncontract Beima is ReentrancyGuard, Pausable, Ownable{\r\n    using SafeMath for uint;\r\n    using Counters for Counters.Counter;\r\n\r\n    // variables\r\n    ComptrollerInterface public comptroller;\r\n\tPriceOracleInterface public priceOracle;\r\n    Counters.Counter private id;\r\n    uint balance;\r\n\r\n    uint accXendTokens;\r\n    uint256 ccInterest;\r\n    XendFinanceInterface public xendFinance;\r\n    IERC20 public xend;\r\n    IERC20 public busd;\r\n    address public admin;\r\n\r\n    uint public lastTimeStamp;\r\n    uint public upKeepInterval;\r\n\r\n\r\n\r\n    \r\n\r\n\r\n\r\n    struct Client {\r\n        address underlyingAsset;\r\n        uint256 depositedAmount;\r\n        uint256 amountToSpend;\r\n        uint256 approvedAmountToSpend;\r\n        uint256 startTime;\r\n        uint256 timeDurationOfdeposit;\r\n        uint256 lockTime;\r\n        string ipfsHashOfUserPensionDetails;\r\n        uint256 userLastRewardBlock;\r\n        bool hasPlan;\r\n    }\r\n\r\n\r\n    // A user Object\r\n    struct User {\r\n        uint256 id;\r\n        address payable userAddress;\r\n        string  userDetails;\r\n        Client client;\r\n\r\n    }\r\n\r\n\r\n\r\n    \r\n\r\n    \r\n\r\n\r\n    event Register(address indexed applicant, string indexed applicantDetails);\r\n    event Withdraw(address from, address to, uint amount);\r\n    event Deposit(address indexed sender, address receiver, uint indexed amountSpent);\r\n    event Upkeep(address sender, bool upkeep);\r\n    event Plan(address user, string planDetails, uint lockTime);\r\n    event Update(uint256 timeDuration);\r\n    event Transfer(address indexed sender, uint amount, address indexed receiver);\r\n    event Supply(address sender, uint amount);\r\n    event Redeem(string, uint256);\r\n\r\n    mapping(address => User) public pensionServiceApplicant;\r\n    address constant ETHER = address(0); // Stores ether in the tokens mapping\r\n\tmapping(address => mapping(address => uint256)) public assets;\r\n    mapping(address => uint) public unsuppliedAmount;\r\n    mapping(address => uint) public stakedBalance;\r\n\r\n    // keep track of registered users\r\n    mapping(address => bool) public isRegistered;\r\n    mapping(address => bool) public hasRedeemed;\r\n\r\n    User[] public users;\r\n\r\n\r\n    constructor(address _xend, address _xendFinanceIndividual_Yearn_V1,  address _comptroller, address _priceOracle, uint _upKeepInterval)  {\r\n        xend = IERC20(_xend);\r\n        comptroller = ComptrollerInterface(_comptroller);\r\n\t\tpriceOracle = PriceOracleInterface(_priceOracle);\r\n        xendFinance = XendFinanceInterface(_xendFinanceIndividual_Yearn_V1);\r\n        ccInterest = uint256(3 ether).div(10); // .3% \r\n        lastTimeStamp = block.timestamp;\r\n        upKeepInterval = _upKeepInterval;\r\n        admin = msg.sender;\r\n\r\n        id.increment();\r\n        \r\n    }\r\n\r\n\r\n    receive() external payable {\r\n        balance = msg.value;\r\n    }\r\n\r\n\r\n\r\n    function register(\r\n        string memory _userDetails\r\n        ) \r\n        public  {\r\n        require(!isRegistered[msg.sender], \"Caller address already exists\");\r\n\r\n        Client memory client = Client({\r\n            underlyingAsset: address(0),\r\n            depositedAmount: 0,\r\n            amountToSpend: 0,\r\n            approvedAmountToSpend: 0,\r\n            startTime: block.timestamp,\r\n            timeDurationOfdeposit: 0,\r\n            lockTime: 0,\r\n            ipfsHashOfUserPensionDetails: \"\",\r\n            userLastRewardBlock: block.number,\r\n            hasPlan: false\r\n        });\r\n\r\n        User memory user = User({\r\n            id: id.current(),\r\n            userAddress: payable(msg.sender),\r\n            userDetails: _userDetails,\r\n            client: client\r\n        });\r\n\r\n       \r\n\r\n        pensionServiceApplicant[msg.sender] = user;\r\n        users.push(user);\r\n        isRegistered[msg.sender] = true;\r\n\r\n        id.increment();\r\n\r\n        emit Register(msg.sender, _userDetails);\r\n    }\r\n\r\n\r\n    function depositToken (address _asset, uint _amount)public {\r\n        User storage user = pensionServiceApplicant[msg.sender];\r\n        require(user.client.approvedAmountToSpend >= user.client.amountToSpend, \"You have execeeded the approved amount for this plan, please make another plan\");\r\n        require(isRegistered[msg.sender], \"Caller not registered\");\r\n        require(user.client.hasPlan, \"Caller has no plan\");\r\n\t\trequire(_asset != ETHER, \"Address is invalid\");\r\n\t\trequire(IERC20(_asset).transferFrom(msg.sender, address(this), _amount), \"Deposit has failed\");\r\n\t\tassets[_asset][msg.sender] = assets[_asset][msg.sender].add(_amount);\r\n        unsuppliedAmount[msg.sender] = unsuppliedAmount[msg.sender].add(_amount);\r\n        user.client.approvedAmountToSpend = user.client.approvedAmountToSpend.sub(_amount);\r\n        ccInterest = ccInterest.add(1);\r\n\t\temit Deposit (msg.sender, address(this), assets[_asset][msg.sender]);\r\n\t}\r\n\r\n\r\n\r\n    function withdrawToken(address _asset) public nonReentrant() whenNotPaused() {\r\n        // require(hasRedeemed[msg.sender], \"Funds need to be redeemed before withdraw\");\r\n\t\trequire(assets[_asset][msg.sender] > 0, \"You have no funds available to withdraw\");\r\n\t\trequire(_asset != ETHER);\r\n        User storage user = pensionServiceApplicant[msg.sender];\r\n        require(block.timestamp > user.client.lockTime, \"Unable to withdraw before your locktime expires\");\r\n        // uint interestAccrued = \r\n        // uint amountToSend = assets[_asset][msg.sender];\r\n        if(unsuppliedAmount[msg.sender] > 0 ) {\r\n            require(IERC20(_asset).transfer(msg.sender, unsuppliedAmount[msg.sender]));\r\n            uint amountToSend = assets[_asset][msg.sender].sub(unsuppliedAmount[msg.sender]);\r\n            unsuppliedAmount[msg.sender] = unsuppliedAmount[msg.sender].sub(unsuppliedAmount[msg.sender]);   \r\n\t\t    assets[_asset][msg.sender] = assets[_asset][msg.sender].sub(assets[_asset][msg.sender]);\r\n            require(IERC20(_asset).transfer(msg.sender, amountToSend));\r\n            user.client.hasPlan = false;\r\n            user.client.lockTime = 0;\r\n            emit Withdraw(address(this), msg.sender, amountToSend);\r\n        } else {\r\n            require(IERC20(_asset).transfer(msg.sender, assets[_asset][msg.sender]));\r\n            user.client.hasPlan = false; \r\n            user.client.lockTime = 0;\r\n            emit Withdraw(address(this), msg.sender, assets[_asset][msg.sender]);\r\n        }\r\n\r\n\t}\r\n\r\n\r\n    function forcedWithdraw(address _asset) public {\r\n        // require(hasRedeemed[msg.sender], \"Funds need to be redeemed before withdraw\");\r\n        require(assets[_asset][msg.sender] >= 0, \"You cannot withdraw 0 amount\");\r\n\t\trequire(_asset != ETHER);\r\n        User storage user = pensionServiceApplicant[msg.sender];\r\n        \t\t\r\n        uint penalty = assets[_asset][msg.sender].div(100).mul(20);\r\n        assets[_asset][address(this)] = assets[_asset][address(this)].add(penalty);\r\n        uint amountToSend;\r\n        if(unsuppliedAmount[msg.sender] > 0 ) {\r\n            amountToSend  = assets[_asset][msg.sender].sub(penalty).add(unsuppliedAmount[msg.sender]);\r\n            unsuppliedAmount[msg.sender] = unsuppliedAmount[msg.sender].sub(unsuppliedAmount[msg.sender]);\r\n            assets[_asset][msg.sender] = assets[_asset][msg.sender].sub(assets[_asset][msg.sender]);\r\n            require(IERC20(_asset).transfer(msg.sender, amountToSend));\r\n            user.client.hasPlan = false;\r\n            user.client.lockTime = 0;\r\n            emit Withdraw(address(this), msg.sender, amountToSend);\r\n        } else {\r\n            amountToSend  = assets[_asset][msg.sender].sub(penalty);\r\n            assets[_asset][msg.sender] = assets[_asset][msg.sender].sub(assets[_asset][msg.sender]);\r\n            require(IERC20(_asset).transfer(msg.sender, amountToSend));\r\n            user.client.hasPlan = false;\r\n            user.client.lockTime = 0;\r\n            emit Withdraw(address(this), msg.sender, amountToSend);\r\n\r\n        }\r\n\r\n    }\r\n\r\n\r\n    function supply(address cTokenaddress) public returns(uint) {\r\n        require(isRegistered[msg.sender], \"Caller not registered\");\r\n        require(unsuppliedAmount[msg.sender] > 0, \"Amount cannot be 0\");\r\n\t\tCTokenInterface cToken = CTokenInterface(cTokenaddress);\r\n\t\taddress underlyingAddress = cToken.underlying();\r\n\t\tIERC20(underlyingAddress).approve(cTokenaddress, unsuppliedAmount[msg.sender]);\r\n\r\n\t\tuint result = cToken.mint(unsuppliedAmount[msg.sender]);\r\n        stakedBalance[msg.sender] = stakedBalance[msg.sender].add(unsuppliedAmount[msg.sender]);\r\n        unsuppliedAmount[msg.sender] = unsuppliedAmount[msg.sender].sub(unsuppliedAmount[msg.sender]);\r\n\t\trequire(result == 0, 'cToken#mint() failed. see Compound ErrorReporter.sol');\r\n        emit Supply(msg.sender, stakedBalance[msg.sender]);\r\n        return result;\r\n\t}\r\n\r\n\r\n    function redeemCErc20Tokens(\r\n        address _cErc20Contract\r\n    ) public nonReentrant() returns (bool) {\r\n        require(isRegistered[msg.sender], \"Caller not registered\");\r\n        require(stakedBalance[msg.sender] > 0, \"Caller has not supplied funds\");\r\n        User memory user = pensionServiceApplicant[msg.sender];\r\n        require(block.timestamp > user.client.lockTime, \"Unable to withdraw before your locktime expires\");\r\n      \r\n        CTokenInterface cToken = CTokenInterface(_cErc20Contract);\r\n        uint256 redeemResult;\r\n\r\n        redeemResult = cToken.redeemUnderlying(stakedBalance[msg.sender]);\r\n        hasRedeemed[msg.sender] = true;\r\n        stakedBalance[msg.sender] = stakedBalance[msg.sender].sub(stakedBalance[msg.sender]);\r\n\r\n        emit Redeem(\"If this is not 0, there was an error\", redeemResult);\r\n\r\n        return true;\r\n    }\r\n\r\n    function setPlan(\r\n        address _underlyingAsset, \r\n        string memory _ipfsHashOfUserPensionDetails, \r\n        uint _approvedAmountToSpend, \r\n        uint _amountToSpend, \r\n        uint _timeDurationOfDeposit, \r\n        uint _lockTime) \r\n        public {\r\n        require(_approvedAmountToSpend > _amountToSpend, \"Set an amount greater than the recurring amount\");\r\n        require(_amountToSpend > 0, \"approve an amount greater than 0\");\r\n        require(isRegistered[msg.sender], \"Caller has to be Registered\");\r\n        User storage user = pensionServiceApplicant[msg.sender];\r\n        require(user.client.lockTime == 0, \"Caller already has a lock Time Set\");\r\n        user.client.underlyingAsset = _underlyingAsset;\r\n        user.client.lockTime = block.timestamp.add(_lockTime);\r\n        user.client.timeDurationOfdeposit = block.timestamp.add(_timeDurationOfDeposit);\r\n        user.client.ipfsHashOfUserPensionDetails = _ipfsHashOfUserPensionDetails;\r\n        user.client.approvedAmountToSpend = _approvedAmountToSpend;\r\n        user.client.amountToSpend = _amountToSpend;\r\n        user.client.hasPlan = true;\r\n\r\n        emit Plan(msg.sender, user.client.ipfsHashOfUserPensionDetails, user.client.lockTime);\r\n    }\r\n\r\n    function getAssetAddress(address ctokenAddress) public view returns(address) {\r\n        CTokenInterface cToken = CTokenInterface(ctokenAddress);\r\n        return cToken.underlying();\r\n\r\n    }\r\n\r\n    function getAccruedInterest(address _asset) public view returns(uint) {\r\n        User memory user = pensionServiceApplicant[msg.sender];\r\n        require(isRegistered[msg.sender], \"Caller not registered\");\r\n        CTokenInterface ctoken = CTokenInterface(user.client.underlyingAsset);\r\n        uint supplyRatePerBlock = ctoken.supplyRatePerBlock();\r\n        uint accInterest = assets[_asset][msg.sender].mul(supplyRatePerBlock);\r\n        return accInterest;\r\n    }\r\n\r\n    function withdrawPenalty(address _asset) public onlyOwner() {\r\n        require(assets[_asset][address(this)] > 0, \"Cannot withdraw 0 amount\");\r\n        require(IERC20(_asset).transfer(admin, assets[_asset][address(this)]));\r\n    }\r\n\r\n    // helper function to be deleted on migration to mainet\r\n    function updateLockTime() public {\r\n        require(isRegistered[msg.sender], \"caller is not registered\");\r\n        User storage user = pensionServiceApplicant[msg.sender];\r\n        user.client.lockTime = 0;\r\n    }\r\n\r\n\r\n}",
  "sourcePath": "/mnt/c/Users/chuks/Desktop/Project/beima_project/beima_core/contracts/Beima.sol",
  "compiler": {
    "name": "solc",
    "version": "0.8.0+commit.c7dfd78e.Emscripten.clang"
  },
  "schemaVersion": "3.4.3",
  "updatedAt": "2021-12-16T17:33:00.243Z",
  "networkType": "ethereum",
  "devdoc": {
    "kind": "dev",
    "methods": {
      "owner()": {
        "details": "Returns the address of the current owner."
      },
      "paused()": {
        "details": "Returns true if the contract is paused, and false otherwise."
      },
      "renounceOwnership()": {
        "details": "Leaves the contract without owner. It will not be possible to call `onlyOwner` functions anymore. Can only be called by the current owner. NOTE: Renouncing ownership will leave the contract without an owner, thereby removing any functionality that is only available to the owner."
      },
      "transferOwnership(address)": {
        "details": "Transfers ownership of the contract to a new account (`newOwner`). Can only be called by the current owner."
      }
    },
    "version": 1
  },
  "userdoc": {
    "kind": "user",
    "methods": {},
    "version": 1
  }
}