{
  "contractName": "PensionServiceProvider",
  "abi": [
    {
      "inputs": [
        {
          "internalType": "address",
          "name": "_xend",
          "type": "address"
        },
        {
          "internalType": "address",
          "name": "_busd",
          "type": "address"
        },
        {
          "internalType": "address",
          "name": "_xendFinanceIndividual_Yearn_V1",
          "type": "address"
        },
        {
          "internalType": "uint256",
          "name": "_upKeepInterval",
          "type": "uint256"
        }
      ],
      "stateMutability": "nonpayable",
      "type": "constructor"
    },
    {
      "anonymous": false,
      "inputs": [
        {
          "indexed": true,
          "internalType": "address",
          "name": "sender",
          "type": "address"
        },
        {
          "indexed": false,
          "internalType": "address",
          "name": "receiver",
          "type": "address"
        },
        {
          "indexed": true,
          "internalType": "uint256",
          "name": "amountSpent",
          "type": "uint256"
        }
      ],
      "name": "Deposit",
      "type": "event"
    },
    {
      "anonymous": false,
      "inputs": [
        {
          "indexed": false,
          "internalType": "string",
          "name": "",
          "type": "string"
        },
        {
          "indexed": false,
          "internalType": "uint256",
          "name": "",
          "type": "uint256"
        }
      ],
      "name": "MyLog",
      "type": "event"
    },
    {
      "anonymous": false,
      "inputs": [
        {
          "indexed": true,
          "internalType": "address",
          "name": "previousOwner",
          "type": "address"
        },
        {
          "indexed": true,
          "internalType": "address",
          "name": "newOwner",
          "type": "address"
        }
      ],
      "name": "OwnershipTransferred",
      "type": "event"
    },
    {
      "anonymous": false,
      "inputs": [
        {
          "indexed": false,
          "internalType": "address",
          "name": "account",
          "type": "address"
        }
      ],
      "name": "Paused",
      "type": "event"
    },
    {
      "anonymous": false,
      "inputs": [
        {
          "indexed": false,
          "internalType": "address",
          "name": "user",
          "type": "address"
        },
        {
          "indexed": false,
          "internalType": "string",
          "name": "planDetails",
          "type": "string"
        },
        {
          "indexed": false,
          "internalType": "uint256",
          "name": "lockTime",
          "type": "uint256"
        }
      ],
      "name": "Plan",
      "type": "event"
    },
    {
      "anonymous": false,
      "inputs": [
        {
          "indexed": true,
          "internalType": "address",
          "name": "applicant",
          "type": "address"
        },
        {
          "indexed": true,
          "internalType": "string",
          "name": "applicantDetails",
          "type": "string"
        }
      ],
      "name": "Register",
      "type": "event"
    },
    {
      "anonymous": false,
      "inputs": [
        {
          "indexed": true,
          "internalType": "address",
          "name": "sender",
          "type": "address"
        },
        {
          "indexed": false,
          "internalType": "uint256",
          "name": "amount",
          "type": "uint256"
        },
        {
          "indexed": true,
          "internalType": "address",
          "name": "receiver",
          "type": "address"
        }
      ],
      "name": "Transfer",
      "type": "event"
    },
    {
      "anonymous": false,
      "inputs": [
        {
          "indexed": false,
          "internalType": "address",
          "name": "account",
          "type": "address"
        }
      ],
      "name": "Unpaused",
      "type": "event"
    },
    {
      "anonymous": false,
      "inputs": [
        {
          "indexed": false,
          "internalType": "uint256",
          "name": "timeDuration",
          "type": "uint256"
        }
      ],
      "name": "Update",
      "type": "event"
    },
    {
      "anonymous": false,
      "inputs": [
        {
          "indexed": false,
          "internalType": "address",
          "name": "sender",
          "type": "address"
        },
        {
          "indexed": false,
          "internalType": "bool",
          "name": "upkeep",
          "type": "bool"
        }
      ],
      "name": "Upkeep",
      "type": "event"
    },
    {
      "anonymous": false,
      "inputs": [
        {
          "indexed": false,
          "internalType": "address",
          "name": "from",
          "type": "address"
        },
        {
          "indexed": false,
          "internalType": "address",
          "name": "to",
          "type": "address"
        },
        {
          "indexed": false,
          "internalType": "uint256",
          "name": "amount",
          "type": "uint256"
        }
      ],
      "name": "Withdraw",
      "type": "event"
    },
    {
      "inputs": [
        {
          "internalType": "address",
          "name": "",
          "type": "address"
        }
      ],
      "name": "amountSupplied",
      "outputs": [
        {
          "internalType": "uint256",
          "name": "",
          "type": "uint256"
        }
      ],
      "stateMutability": "view",
      "type": "function",
      "constant": true
    },
    {
      "inputs": [
        {
          "internalType": "address",
          "name": "",
          "type": "address"
        },
        {
          "internalType": "address",
          "name": "",
          "type": "address"
        }
      ],
      "name": "assets",
      "outputs": [
        {
          "internalType": "uint256",
          "name": "",
          "type": "uint256"
        }
      ],
      "stateMutability": "view",
      "type": "function",
      "constant": true
    },
    {
      "inputs": [],
      "name": "busd",
      "outputs": [
        {
          "internalType": "contract IERC20",
          "name": "",
          "type": "address"
        }
      ],
      "stateMutability": "view",
      "type": "function",
      "constant": true
    },
    {
      "inputs": [
        {
          "internalType": "address",
          "name": "",
          "type": "address"
        }
      ],
      "name": "isRegistered",
      "outputs": [
        {
          "internalType": "bool",
          "name": "",
          "type": "bool"
        }
      ],
      "stateMutability": "view",
      "type": "function",
      "constant": true
    },
    {
      "inputs": [],
      "name": "lastTimeStamp",
      "outputs": [
        {
          "internalType": "uint256",
          "name": "",
          "type": "uint256"
        }
      ],
      "stateMutability": "view",
      "type": "function",
      "constant": true
    },
    {
      "inputs": [],
      "name": "owner",
      "outputs": [
        {
          "internalType": "address",
          "name": "",
          "type": "address"
        }
      ],
      "stateMutability": "view",
      "type": "function",
      "constant": true
    },
    {
      "inputs": [],
      "name": "paused",
      "outputs": [
        {
          "internalType": "bool",
          "name": "",
          "type": "bool"
        }
      ],
      "stateMutability": "view",
      "type": "function",
      "constant": true
    },
    {
      "inputs": [
        {
          "internalType": "address",
          "name": "",
          "type": "address"
        }
      ],
      "name": "pensionServiceApplicant",
      "outputs": [
        {
          "internalType": "uint256",
          "name": "id",
          "type": "uint256"
        },
        {
          "internalType": "address payable",
          "name": "userAddress",
          "type": "address"
        },
        {
          "internalType": "string",
          "name": "userDetails",
          "type": "string"
        },
        {
          "components": [
            {
              "internalType": "address",
              "name": "underlyingAsset",
              "type": "address"
            },
            {
              "internalType": "uint256",
              "name": "depositedAmount",
              "type": "uint256"
            },
            {
              "internalType": "uint256",
              "name": "amountToSpend",
              "type": "uint256"
            },
            {
              "internalType": "uint256",
              "name": "approvedAmountToSpend",
              "type": "uint256"
            },
            {
              "internalType": "uint256",
              "name": "startTime",
              "type": "uint256"
            },
            {
              "internalType": "uint256",
              "name": "timeDurationOfdeposit",
              "type": "uint256"
            },
            {
              "internalType": "uint256",
              "name": "lockTime",
              "type": "uint256"
            },
            {
              "internalType": "string",
              "name": "ipfsHashOfUserPensionDetails",
              "type": "string"
            },
            {
              "internalType": "uint256",
              "name": "userLastRewardBlock",
              "type": "uint256"
            },
            {
              "internalType": "bool",
              "name": "hasPlan",
              "type": "bool"
            }
          ],
          "internalType": "struct PensionServiceProvider.Client",
          "name": "client",
          "type": "tuple"
        }
      ],
      "stateMutability": "view",
      "type": "function",
      "constant": true
    },
    {
      "inputs": [],
      "name": "renounceOwnership",
      "outputs": [],
      "stateMutability": "nonpayable",
      "type": "function"
    },
    {
      "inputs": [
        {
          "internalType": "address",
          "name": "newOwner",
          "type": "address"
        }
      ],
      "name": "transferOwnership",
      "outputs": [],
      "stateMutability": "nonpayable",
      "type": "function"
    },
    {
      "inputs": [],
      "name": "upKeepInterval",
      "outputs": [
        {
          "internalType": "uint256",
          "name": "",
          "type": "uint256"
        }
      ],
      "stateMutability": "view",
      "type": "function",
      "constant": true
    },
    {
      "inputs": [
        {
          "internalType": "uint256",
          "name": "",
          "type": "uint256"
        }
      ],
      "name": "users",
      "outputs": [
        {
          "internalType": "uint256",
          "name": "id",
          "type": "uint256"
        },
        {
          "internalType": "address payable",
          "name": "userAddress",
          "type": "address"
        },
        {
          "internalType": "string",
          "name": "userDetails",
          "type": "string"
        },
        {
          "components": [
            {
              "internalType": "address",
              "name": "underlyingAsset",
              "type": "address"
            },
            {
              "internalType": "uint256",
              "name": "depositedAmount",
              "type": "uint256"
            },
            {
              "internalType": "uint256",
              "name": "amountToSpend",
              "type": "uint256"
            },
            {
              "internalType": "uint256",
              "name": "approvedAmountToSpend",
              "type": "uint256"
            },
            {
              "internalType": "uint256",
              "name": "startTime",
              "type": "uint256"
            },
            {
              "internalType": "uint256",
              "name": "timeDurationOfdeposit",
              "type": "uint256"
            },
            {
              "internalType": "uint256",
              "name": "lockTime",
              "type": "uint256"
            },
            {
              "internalType": "string",
              "name": "ipfsHashOfUserPensionDetails",
              "type": "string"
            },
            {
              "internalType": "uint256",
              "name": "userLastRewardBlock",
              "type": "uint256"
            },
            {
              "internalType": "bool",
              "name": "hasPlan",
              "type": "bool"
            }
          ],
          "internalType": "struct PensionServiceProvider.Client",
          "name": "client",
          "type": "tuple"
        }
      ],
      "stateMutability": "view",
      "type": "function",
      "constant": true
    },
    {
      "inputs": [],
      "name": "xend",
      "outputs": [
        {
          "internalType": "contract IERC20",
          "name": "",
          "type": "address"
        }
      ],
      "stateMutability": "view",
      "type": "function",
      "constant": true
    },
    {
      "inputs": [],
      "name": "xendFinance",
      "outputs": [
        {
          "internalType": "contract XendFinanceInterface",
          "name": "",
          "type": "address"
        }
      ],
      "stateMutability": "view",
      "type": "function",
      "constant": true
    },
    {
      "stateMutability": "payable",
      "type": "receive",
      "payable": true
    },
    {
      "inputs": [
        {
          "internalType": "string",
          "name": "_userDetails",
          "type": "string"
        }
      ],
      "name": "register",
      "outputs": [],
      "stateMutability": "nonpayable",
      "type": "function"
    },
    {
      "inputs": [],
      "name": "updateTimeDurationOfDeposit",
      "outputs": [],
      "stateMutability": "nonpayable",
      "type": "function"
    },
    {
      "inputs": [
        {
          "internalType": "address",
          "name": "_underlyingAsset",
          "type": "address"
        },
        {
          "internalType": "string",
          "name": "_ipfsHashOfUserPensionDetails",
          "type": "string"
        },
        {
          "internalType": "uint256",
          "name": "_approvedAmountToSpend",
          "type": "uint256"
        },
        {
          "internalType": "uint256",
          "name": "_amountToSpend",
          "type": "uint256"
        },
        {
          "internalType": "uint256",
          "name": "_timeDurationOfDeposit",
          "type": "uint256"
        },
        {
          "internalType": "uint256",
          "name": "_lockTime",
          "type": "uint256"
        }
      ],
      "name": "setPlan",
      "outputs": [],
      "stateMutability": "nonpayable",
      "type": "function"
    },
    {
      "inputs": [
        {
          "internalType": "address",
          "name": "_user",
          "type": "address"
        },
        {
          "internalType": "address",
          "name": "_asset",
          "type": "address"
        }
      ],
      "name": "getXendPendingRewards",
      "outputs": [
        {
          "internalType": "uint256",
          "name": "",
          "type": "uint256"
        }
      ],
      "stateMutability": "view",
      "type": "function",
      "constant": true
    },
    {
      "inputs": [
        {
          "internalType": "address",
          "name": "_asset",
          "type": "address"
        },
        {
          "internalType": "uint256",
          "name": "_amount",
          "type": "uint256"
        }
      ],
      "name": "depositToken",
      "outputs": [],
      "stateMutability": "nonpayable",
      "type": "function"
    },
    {
      "inputs": [
        {
          "internalType": "uint256",
          "name": "_amount",
          "type": "uint256"
        }
      ],
      "name": "depositToXendFinance",
      "outputs": [],
      "stateMutability": "nonpayable",
      "type": "function"
    },
    {
      "inputs": [],
      "name": "withdrawAssetFromXend",
      "outputs": [],
      "stateMutability": "nonpayable",
      "type": "function"
    },
    {
      "inputs": [
        {
          "internalType": "address",
          "name": "_asset",
          "type": "address"
        }
      ],
      "name": "withdrawFromXendFinance",
      "outputs": [],
      "stateMutability": "nonpayable",
      "type": "function"
    },
    {
      "inputs": [
        {
          "internalType": "address",
          "name": "_asset",
          "type": "address"
        },
        {
          "internalType": "uint256",
          "name": "_amount",
          "type": "uint256"
        }
      ],
      "name": "withdrawToken",
      "outputs": [],
      "stateMutability": "nonpayable",
      "type": "function"
    },
    {
      "inputs": [],
      "name": "withrawAsset",
      "outputs": [],
      "stateMutability": "nonpayable",
      "type": "function"
    }
  ],
  "bytecode": "0x60806040523480156200001157600080fd5b506040516200557e3803806200557e8339818101604052810190620000379190620002fd565b60016000819055506000600160006101000a81548160ff0219169083151502179055506200007a6200006e620001d660201b60201c565b620001de60201b60201c565b83600760006101000a81548173ffffffffffffffffffffffffffffffffffffffff021916908373ffffffffffffffffffffffffffffffffffffffff16021790555082600860006101000a81548173ffffffffffffffffffffffffffffffffffffffff021916908373ffffffffffffffffffffffffffffffffffffffff16021790555081600660006101000a81548173ffffffffffffffffffffffffffffffffffffffff021916908373ffffffffffffffffffffffffffffffffffffffff16021790555062000160600a6729a2241af62c0000620002a160201b62003b301790919060201c565b6005819055504260098190555080600a8190555033600b60006101000a81548173ffffffffffffffffffffffffffffffffffffffff021916908373ffffffffffffffffffffffffffffffffffffffff160217905550620001cc6002620002b960201b62003b461760201c565b5050505062000442565b600033905090565b600060018054906101000a900473ffffffffffffffffffffffffffffffffffffffff169050816001806101000a81548173ffffffffffffffffffffffffffffffffffffffff021916908373ffffffffffffffffffffffffffffffffffffffff1602179055508173ffffffffffffffffffffffffffffffffffffffff168173ffffffffffffffffffffffffffffffffffffffff167f8be0079c531659141344cd1fd0a4f28419497f9722a3daafe3b4186f6b6457e060405160405180910390a35050565b60008183620002b1919062000369565b905092915050565b6001816000016000828254019250508190555050565b600081519050620002e0816200040e565b92915050565b600081519050620002f78162000428565b92915050565b600080600080608085870312156200031457600080fd5b60006200032487828801620002cf565b94505060206200033787828801620002cf565b93505060406200034a87828801620002cf565b92505060606200035d87828801620002e6565b91505092959194509250565b60006200037682620003d5565b91506200038383620003d5565b925082620003965762000395620003df565b5b828204905092915050565b6000620003ae82620003b5565b9050919050565b600073ffffffffffffffffffffffffffffffffffffffff82169050919050565b6000819050919050565b7f4e487b7100000000000000000000000000000000000000000000000000000000600052601260045260246000fd5b6200041981620003a1565b81146200042557600080fd5b50565b6200043381620003d5565b81146200043f57600080fd5b50565b61512c80620004526000396000f3fe60806040526004361061014f5760003560e01c80635c975abb116100b6578063c2fab6351161006f578063c2fab6351461045e578063c3c5a5471461049b578063de15f0da146104d8578063f2c298be14610501578063f2fde38b1461052a578063f5dd6065146105535761015d565b80635c975abb146103625780635daa4bfa1461038d5780636ae4be7c146103b6578063715018a6146103f35780638da5cb5b1461040a5780639e281a98146104355761015d565b8063363f56e711610108578063363f56e71461025e578063365b98b2146102755780633ca5b234146102b55780633f3b3b27146102e057806356dc5d8e1461030b5780635bc9d2bf146103225761015d565b80630e66e61d146101625780631a15687b1461018b5780632108234d146101b657806324bdca56146101f35780633245f2281461020a578063338b5dea146102355761015d565b3661015d5734600381905550005b600080fd5b34801561016e57600080fd5b5061018960048036038101906101849190613dd6565b61057e565b005b34801561019757600080fd5b506101a0610c2b565b6040516101ad9190614c9d565b60405180910390f35b3480156101c257600080fd5b506101dd60048036038101906101d89190613dff565b610c31565b6040516101ea9190614c9d565b60405180910390f35b3480156101ff57600080fd5b50610208610c56565b005b34801561021657600080fd5b5061021f610e94565b60405161022c91906149a7565b60405180910390f35b34801561024157600080fd5b5061025c60048036038101906102579190613edc565b610eba565b005b34801561026a57600080fd5b5061027361164e565b005b34801561028157600080fd5b5061029c60048036038101906102979190613f82565b611967565b6040516102ac9493929190614cb8565b60405180910390f35b3480156102c157600080fd5b506102ca611ba3565b6040516102d791906149a7565b60405180910390f35b3480156102ec57600080fd5b506102f5611bc9565b6040516103029190614c9d565b60405180910390f35b34801561031757600080fd5b50610320611bcf565b005b34801561032e57600080fd5b5061034960048036038101906103449190613dd6565b611fca565b6040516103599493929190614cb8565b60405180910390f35b34801561036e57600080fd5b506103776121f6565b604051610384919061498c565b60405180910390f35b34801561039957600080fd5b506103b460048036038101906103af9190613f82565b61220d565b005b3480156103c257600080fd5b506103dd60048036038101906103d89190613dff565b61252a565b6040516103ea9190614c9d565b60405180910390f35b3480156103ff57600080fd5b5061040861292d565b005b34801561041657600080fd5b5061041f6129b5565b60405161042c91906148d3565b60405180910390f35b34801561044157600080fd5b5061045c60048036038101906104579190613edc565b6129dd565b005b34801561046a57600080fd5b5061048560048036038101906104809190613dd6565b613223565b6040516104929190614c9d565b60405180910390f35b3480156104a757600080fd5b506104c260048036038101906104bd9190613dd6565b61323b565b6040516104cf919061498c565b60405180910390f35b3480156104e457600080fd5b506104ff60048036038101906104fa9190613e3b565b61325b565b005b34801561050d57600080fd5b5061052860048036038101906105239190613f41565b61350e565b005b34801561053657600080fd5b50610551600480360381019061054c9190613dd6565b613a12565b005b34801561055f57600080fd5b50610568613b0a565b60405161057591906149c2565b60405180910390f35b600260005414156105c4576040517f08c379a00000000000000000000000000000000000000000000000000000000081526004016105bb90614c5d565b60405180910390fd5b6002600081905550600f60003373ffffffffffffffffffffffffffffffffffffffff1673ffffffffffffffffffffffffffffffffffffffff16815260200190815260200160002060009054906101000a900460ff16610658576040517f08c379a000000000000000000000000000000000000000000000000000000000815260040161064f906149fd565b60405180910390fd5b6000600c60003373ffffffffffffffffffffffffffffffffffffffff1673ffffffffffffffffffffffffffffffffffffffff168152602001908152602001600020604051806080016040529081600082015481526020016001820160009054906101000a900473ffffffffffffffffffffffffffffffffffffffff1673ffffffffffffffffffffffffffffffffffffffff1673ffffffffffffffffffffffffffffffffffffffff16815260200160028201805461071490614fb2565b80601f016020809104026020016040519081016040528092919081815260200182805461074090614fb2565b801561078d5780601f106107625761010080835404028352916020019161078d565b820191906000526020600020905b81548152906001019060200180831161077057829003601f168201915b5050505050815260200160038201604051806101400160405290816000820160009054906101000a900473ffffffffffffffffffffffffffffffffffffffff1673ffffffffffffffffffffffffffffffffffffffff1673ffffffffffffffffffffffffffffffffffffffff16815260200160018201548152602001600282015481526020016003820154815260200160048201548152602001600582015481526020016006820154815260200160078201805461084990614fb2565b80601f016020809104026020016040519081016040528092919081815260200182805461087590614fb2565b80156108c25780601f10610897576101008083540402835291602001916108c2565b820191906000526020600020905b8154815290600101906020018083116108a557829003601f168201915b50505050508152602001600882015481526020016009820160009054906101000a900460ff161515151581525050815250509050600660009054906101000a900473ffffffffffffffffffffffffffffffffffffffff1673ffffffffffffffffffffffffffffffffffffffff16632e1a7d4d600d60008573ffffffffffffffffffffffffffffffffffffffff1673ffffffffffffffffffffffffffffffffffffffff16815260200190815260200160002060003373ffffffffffffffffffffffffffffffffffffffff1673ffffffffffffffffffffffffffffffffffffffff168152602001908152602001600020546040518263ffffffff1660e01b81526004016109cd9190614c9d565b600060405180830381600087803b1580156109e757600080fd5b505af11580156109fb573d6000803e3d6000fd5b50505050600d60008373ffffffffffffffffffffffffffffffffffffffff1673ffffffffffffffffffffffffffffffffffffffff16815260200190815260200160002060003373ffffffffffffffffffffffffffffffffffffffff1673ffffffffffffffffffffffffffffffffffffffff168152602001908152602001600020548273ffffffffffffffffffffffffffffffffffffffff166370a08231306040518263ffffffff1660e01b8152600401610ab591906148d3565b60206040518083038186803b158015610acd57600080fd5b505afa158015610ae1573d6000803e3d6000fd5b505050506040513d601f19601f82011682018060405250810190610b059190613fab565b1015610b46576040517f08c379a0000000000000000000000000000000000000000000000000000000008152600401610b3d90614a1d565b60405180910390fd5b7f9b1bfa7fa9ee420a16e124f794c35ac9f90472acc99140eb2f6447c714cad8eb600660009054906101000a900473ffffffffffffffffffffffffffffffffffffffff1630600d60008673ffffffffffffffffffffffffffffffffffffffff1673ffffffffffffffffffffffffffffffffffffffff16815260200190815260200160002060003373ffffffffffffffffffffffffffffffffffffffff1673ffffffffffffffffffffffffffffffffffffffff16815260200190815260200160002054604051610c17939291906148ee565b60405180910390a150600160008190555050565b600a5481565b600d602052816000526040600020602052806000526040600020600091509150505481565b610c5e613b5c565b73ffffffffffffffffffffffffffffffffffffffff16610c7c6129b5565b73ffffffffffffffffffffffffffffffffffffffff1614610cd2576040517f08c379a0000000000000000000000000000000000000000000000000000000008152600401610cc990614b7d565b60405180910390fd5b6000600860009054906101000a900473ffffffffffffffffffffffffffffffffffffffff1673ffffffffffffffffffffffffffffffffffffffff166370a08231306040518263ffffffff1660e01b8152600401610d2f91906148d3565b60206040518083038186803b158015610d4757600080fd5b505afa158015610d5b573d6000803e3d6000fd5b505050506040513d601f19601f82011682018060405250810190610d7f9190613fab565b9050600860009054906101000a900473ffffffffffffffffffffffffffffffffffffffff1673ffffffffffffffffffffffffffffffffffffffff1663a9059cbb600b60009054906101000a900473ffffffffffffffffffffffffffffffffffffffff16836040518363ffffffff1660e01b8152600401610e00929190614963565b602060405180830381600087803b158015610e1a57600080fd5b505af1158015610e2e573d6000803e3d6000fd5b505050506040513d601f19601f82011682018060405250810190610e529190613f18565b610e91576040517f08c379a0000000000000000000000000000000000000000000000000000000008152600401610e8890614a3d565b60405180910390fd5b50565b600760009054906101000a900473ffffffffffffffffffffffffffffffffffffffff1681565b6000600c60003373ffffffffffffffffffffffffffffffffffffffff1673ffffffffffffffffffffffffffffffffffffffff168152602001908152602001600020604051806080016040529081600082015481526020016001820160009054906101000a900473ffffffffffffffffffffffffffffffffffffffff1673ffffffffffffffffffffffffffffffffffffffff1673ffffffffffffffffffffffffffffffffffffffff168152602001600282018054610f7690614fb2565b80601f0160208091040260200160405190810160405280929190818152602001828054610fa290614fb2565b8015610fef5780601f10610fc457610100808354040283529160200191610fef565b820191906000526020600020905b815481529060010190602001808311610fd257829003601f168201915b5050505050815260200160038201604051806101400160405290816000820160009054906101000a900473ffffffffffffffffffffffffffffffffffffffff1673ffffffffffffffffffffffffffffffffffffffff1673ffffffffffffffffffffffffffffffffffffffff1681526020016001820154815260200160028201548152602001600382015481526020016004820154815260200160058201548152602001600682015481526020016007820180546110ab90614fb2565b80601f01602080910402602001604051908101604052809291908181526020018280546110d790614fb2565b80156111245780601f106110f957610100808354040283529160200191611124565b820191906000526020600020905b81548152906001019060200180831161110757829003601f168201915b50505050508152602001600882015481526020016009820160009054906101000a900460ff16151515158152505081525050905080606001516040015181606001516060015110156111ab576040517f08c379a00000000000000000000000000000000000000000000000000000000081526004016111a290614add565b60405180910390fd5b600f60003373ffffffffffffffffffffffffffffffffffffffff1673ffffffffffffffffffffffffffffffffffffffff16815260200190815260200160002060009054906101000a900460ff16611237576040517f08c379a000000000000000000000000000000000000000000000000000000000815260040161122e90614b3d565b60405180910390fd5b80606001516101200151611280576040517f08c379a000000000000000000000000000000000000000000000000000000000815260040161127790614abd565b60405180910390fd5b600073ffffffffffffffffffffffffffffffffffffffff168373ffffffffffffffffffffffffffffffffffffffff1614156112f0576040517f08c379a00000000000000000000000000000000000000000000000000000000081526004016112e790614c7d565b60405180910390fd5b8273ffffffffffffffffffffffffffffffffffffffff166323b872dd3330856040518463ffffffff1660e01b815260040161132d939291906148ee565b602060405180830381600087803b15801561134757600080fd5b505af115801561135b573d6000803e3d6000fd5b505050506040513d601f19601f8201168201806040525081019061137f9190613f18565b6113be576040517f08c379a00000000000000000000000000000000000000000000000000000000081526004016113b590614c1d565b60405180910390fd5b61144d82600d60008673ffffffffffffffffffffffffffffffffffffffff1673ffffffffffffffffffffffffffffffffffffffff16815260200190815260200160002060003373ffffffffffffffffffffffffffffffffffffffff1673ffffffffffffffffffffffffffffffffffffffff16815260200190815260200160002054613b6490919063ffffffff16565b600d60008573ffffffffffffffffffffffffffffffffffffffff1673ffffffffffffffffffffffffffffffffffffffff16815260200190815260200160002060003373ffffffffffffffffffffffffffffffffffffffff1673ffffffffffffffffffffffffffffffffffffffff1681526020019081526020016000208190555061151f82600e60003373ffffffffffffffffffffffffffffffffffffffff1673ffffffffffffffffffffffffffffffffffffffff16815260200190815260200160002054613b6490919063ffffffff16565b600e60003373ffffffffffffffffffffffffffffffffffffffff1673ffffffffffffffffffffffffffffffffffffffff168152602001908152602001600020819055506115786001600554613b6490919063ffffffff16565b600581905550600d60008473ffffffffffffffffffffffffffffffffffffffff1673ffffffffffffffffffffffffffffffffffffffff16815260200190815260200160002060003373ffffffffffffffffffffffffffffffffffffffff1673ffffffffffffffffffffffffffffffffffffffff168152602001908152602001600020543373ffffffffffffffffffffffffffffffffffffffff167f5548c837ab068cf56a2c2479df0882a4922fd203edb7517321831d95078c5f623060405161164191906148d3565b60405180910390a3505050565b611656613b5c565b73ffffffffffffffffffffffffffffffffffffffff166116746129b5565b73ffffffffffffffffffffffffffffffffffffffff16146116ca576040517f08c379a00000000000000000000000000000000000000000000000000000000081526004016116c190614b7d565b60405180910390fd5b6000600860009054906101000a900473ffffffffffffffffffffffffffffffffffffffff1673ffffffffffffffffffffffffffffffffffffffff166370a08231306040518263ffffffff1660e01b815260040161172791906148d3565b60206040518083038186803b15801561173f57600080fd5b505afa158015611753573d6000803e3d6000fd5b505050506040513d601f19601f820116820180604052508101906117779190613fab565b9050600660009054906101000a900473ffffffffffffffffffffffffffffffffffffffff1673ffffffffffffffffffffffffffffffffffffffff16632e1a7d4d826040518263ffffffff1660e01b81526004016117d49190614c9d565b600060405180830381600087803b1580156117ee57600080fd5b505af1158015611802573d6000803e3d6000fd5b5050505080600860009054906101000a900473ffffffffffffffffffffffffffffffffffffffff1673ffffffffffffffffffffffffffffffffffffffff166370a08231306040518263ffffffff1660e01b815260040161186291906148d3565b60206040518083038186803b15801561187a57600080fd5b505afa15801561188e573d6000803e3d6000fd5b505050506040513d601f19601f820116820180604052508101906118b29190613fab565b10156118f3576040517f08c379a00000000000000000000000000000000000000000000000000000000081526004016118ea90614bbd565b60405180910390fd5b803373ffffffffffffffffffffffffffffffffffffffff167f5548c837ab068cf56a2c2479df0882a4922fd203edb7517321831d95078c5f62600760009054906101000a900473ffffffffffffffffffffffffffffffffffffffff1660405161195c91906148d3565b60405180910390a350565b6010818154811061197757600080fd5b90600052602060002090600d02016000915090508060000154908060010160009054906101000a900473ffffffffffffffffffffffffffffffffffffffff16908060020180546119c690614fb2565b80601f01602080910402602001604051908101604052809291908181526020018280546119f290614fb2565b8015611a3f5780601f10611a1457610100808354040283529160200191611a3f565b820191906000526020600020905b815481529060010190602001808311611a2257829003601f168201915b50505050509080600301604051806101400160405290816000820160009054906101000a900473ffffffffffffffffffffffffffffffffffffffff1673ffffffffffffffffffffffffffffffffffffffff1673ffffffffffffffffffffffffffffffffffffffff168152602001600182015481526020016002820154815260200160038201548152602001600482015481526020016005820154815260200160068201548152602001600782018054611af790614fb2565b80601f0160208091040260200160405190810160405280929190818152602001828054611b2390614fb2565b8015611b705780601f10611b4557610100808354040283529160200191611b70565b820191906000526020600020905b815481529060010190602001808311611b5357829003601f168201915b50505050508152602001600882015481526020016009820160009054906101000a900460ff161515151581525050905084565b600860009054906101000a900473ffffffffffffffffffffffffffffffffffffffff1681565b60095481565b611bd7613b5c565b73ffffffffffffffffffffffffffffffffffffffff16611bf56129b5565b73ffffffffffffffffffffffffffffffffffffffff1614611c4b576040517f08c379a0000000000000000000000000000000000000000000000000000000008152600401611c4290614b7d565b60405180910390fd5b6000600c60003373ffffffffffffffffffffffffffffffffffffffff1673ffffffffffffffffffffffffffffffffffffffff168152602001908152602001600020604051806080016040529081600082015481526020016001820160009054906101000a900473ffffffffffffffffffffffffffffffffffffffff1673ffffffffffffffffffffffffffffffffffffffff1673ffffffffffffffffffffffffffffffffffffffff168152602001600282018054611d0790614fb2565b80601f0160208091040260200160405190810160405280929190818152602001828054611d3390614fb2565b8015611d805780601f10611d5557610100808354040283529160200191611d80565b820191906000526020600020905b815481529060010190602001808311611d6357829003601f168201915b5050505050815260200160038201604051806101400160405290816000820160009054906101000a900473ffffffffffffffffffffffffffffffffffffffff1673ffffffffffffffffffffffffffffffffffffffff1673ffffffffffffffffffffffffffffffffffffffff168152602001600182015481526020016002820154815260200160038201548152602001600482015481526020016005820154815260200160068201548152602001600782018054611e3c90614fb2565b80601f0160208091040260200160405190810160405280929190818152602001828054611e6890614fb2565b8015611eb55780601f10611e8a57610100808354040283529160200191611eb5565b820191906000526020600020905b815481529060010190602001808311611e9857829003601f168201915b50505050508152602001600882015481526020016009820160009054906101000a900460ff161515151581525050815250509050600f6000826020015173ffffffffffffffffffffffffffffffffffffffff1673ffffffffffffffffffffffffffffffffffffffff16815260200190815260200160002060009054906101000a900460ff16611f79576040517f08c379a0000000000000000000000000000000000000000000000000000000008152600401611f7090614a5d565b60405180910390fd5b6000816060015160a00181815250507f164f7b2ab803097dab5e39f06d2e4f3c3ddc5d4171abbdcc3e76443b8359c7f5816060015160a00151604051611fbf9190614c9d565b60405180910390a150565b600c6020528060005260406000206000915090508060000154908060010160009054906101000a900473ffffffffffffffffffffffffffffffffffffffff169080600201805461201990614fb2565b80601f016020809104026020016040519081016040528092919081815260200182805461204590614fb2565b80156120925780601f1061206757610100808354040283529160200191612092565b820191906000526020600020905b81548152906001019060200180831161207557829003601f168201915b50505050509080600301604051806101400160405290816000820160009054906101000a900473ffffffffffffffffffffffffffffffffffffffff1673ffffffffffffffffffffffffffffffffffffffff1673ffffffffffffffffffffffffffffffffffffffff16815260200160018201548152602001600282015481526020016003820154815260200160048201548152602001600582015481526020016006820154815260200160078201805461214a90614fb2565b80601f016020809104026020016040519081016040528092919081815260200182805461217690614fb2565b80156121c35780601f10612198576101008083540402835291602001916121c3565b820191906000526020600020905b8154815290600101906020018083116121a657829003601f168201915b50505050508152602001600882015481526020016009820160009054906101000a900460ff161515151581525050905084565b6000600160009054906101000a900460ff16905090565b6000600e60003373ffffffffffffffffffffffffffffffffffffffff1673ffffffffffffffffffffffffffffffffffffffff168152602001908152602001600020541161228f576040517f08c379a000000000000000000000000000000000000000000000000000000000815260040161228690614b9d565b60405180910390fd5b600860009054906101000a900473ffffffffffffffffffffffffffffffffffffffff1673ffffffffffffffffffffffffffffffffffffffff1663095ea7b3600660009054906101000a900473ffffffffffffffffffffffffffffffffffffffff16836040518363ffffffff1660e01b815260040161230e929190614963565b602060405180830381600087803b15801561232857600080fd5b505af115801561233c573d6000803e3d6000fd5b505050506040513d601f19601f820116820180604052508101906123609190613f18565b61239f576040517f08c379a000000000000000000000000000000000000000000000000000000000815260040161239690614b1d565b60405180910390fd5b600660009054906101000a900473ffffffffffffffffffffffffffffffffffffffff1673ffffffffffffffffffffffffffffffffffffffff1663d0e30db06040518163ffffffff1660e01b8152600401600060405180830381600087803b15801561240957600080fd5b505af115801561241d573d6000803e3d6000fd5b5050505061247381600e60003373ffffffffffffffffffffffffffffffffffffffff1673ffffffffffffffffffffffffffffffffffffffff16815260200190815260200160002054613b6490919063ffffffff16565b600e60003373ffffffffffffffffffffffffffffffffffffffff1673ffffffffffffffffffffffffffffffffffffffff16815260200190815260200160002081905550803373ffffffffffffffffffffffffffffffffffffffff167f5548c837ab068cf56a2c2479df0882a4922fd203edb7517321831d95078c5f62600760009054906101000a900473ffffffffffffffffffffffffffffffffffffffff1660405161251f91906148d3565b60405180910390a350565b600080600c60008573ffffffffffffffffffffffffffffffffffffffff1673ffffffffffffffffffffffffffffffffffffffff168152602001908152602001600020604051806080016040529081600082015481526020016001820160009054906101000a900473ffffffffffffffffffffffffffffffffffffffff1673ffffffffffffffffffffffffffffffffffffffff1673ffffffffffffffffffffffffffffffffffffffff1681526020016002820180546125e790614fb2565b80601f016020809104026020016040519081016040528092919081815260200182805461261390614fb2565b80156126605780601f1061263557610100808354040283529160200191612660565b820191906000526020600020905b81548152906001019060200180831161264357829003601f168201915b5050505050815260200160038201604051806101400160405290816000820160009054906101000a900473ffffffffffffffffffffffffffffffffffffffff1673ffffffffffffffffffffffffffffffffffffffff1673ffffffffffffffffffffffffffffffffffffffff16815260200160018201548152602001600282015481526020016003820154815260200160048201548152602001600582015481526020016006820154815260200160078201805461271c90614fb2565b80601f016020809104026020016040519081016040528092919081815260200182805461274890614fb2565b80156127955780601f1061276a57610100808354040283529160200191612795565b820191906000526020600020905b81548152906001019060200180831161277857829003601f168201915b50505050508152602001600882015481526020016009820160009054906101000a900460ff1615151515815250508152505090506000600660009054906101000a900473ffffffffffffffffffffffffffffffffffffffff1673ffffffffffffffffffffffffffffffffffffffff1663eec562c3306040518263ffffffff1660e01b815260040161282691906148d3565b60206040518083038186803b15801561283e57600080fd5b505afa158015612852573d6000803e3d6000fd5b505050506040513d601f19601f820116820180604052508101906128769190613fab565b9050600061291f6305f5e10061291184600d60008a73ffffffffffffffffffffffffffffffffffffffff1673ffffffffffffffffffffffffffffffffffffffff16815260200190815260200160002060008b73ffffffffffffffffffffffffffffffffffffffff1673ffffffffffffffffffffffffffffffffffffffff16815260200190815260200160002054613b7a90919063ffffffff16565b613b3090919063ffffffff16565b905080935050505092915050565b612935613b5c565b73ffffffffffffffffffffffffffffffffffffffff166129536129b5565b73ffffffffffffffffffffffffffffffffffffffff16146129a9576040517f08c379a00000000000000000000000000000000000000000000000000000000081526004016129a090614b7d565b60405180910390fd5b6129b36000613b90565b565b600060018054906101000a900473ffffffffffffffffffffffffffffffffffffffff16905090565b60026000541415612a23576040517f08c379a0000000000000000000000000000000000000000000000000000000008152600401612a1a90614c5d565b60405180910390fd5b6002600081905550612a336121f6565b15612a73576040517f08c379a0000000000000000000000000000000000000000000000000000000008152600401612a6a90614a9d565b60405180910390fd5b80600d60008473ffffffffffffffffffffffffffffffffffffffff1673ffffffffffffffffffffffffffffffffffffffff16815260200190815260200160002060003373ffffffffffffffffffffffffffffffffffffffff1673ffffffffffffffffffffffffffffffffffffffff168152602001908152602001600020541015612afc57600080fd5b600073ffffffffffffffffffffffffffffffffffffffff168273ffffffffffffffffffffffffffffffffffffffff161415612b3657600080fd5b60008111612b79576040517f08c379a0000000000000000000000000000000000000000000000000000000008152600401612b7090614bfd565b60405180910390fd5b6000600c60003373ffffffffffffffffffffffffffffffffffffffff1673ffffffffffffffffffffffffffffffffffffffff168152602001908152602001600020604051806080016040529081600082015481526020016001820160009054906101000a900473ffffffffffffffffffffffffffffffffffffffff1673ffffffffffffffffffffffffffffffffffffffff1673ffffffffffffffffffffffffffffffffffffffff168152602001600282018054612c3590614fb2565b80601f0160208091040260200160405190810160405280929190818152602001828054612c6190614fb2565b8015612cae5780601f10612c8357610100808354040283529160200191612cae565b820191906000526020600020905b815481529060010190602001808311612c9157829003601f168201915b5050505050815260200160038201604051806101400160405290816000820160009054906101000a900473ffffffffffffffffffffffffffffffffffffffff1673ffffffffffffffffffffffffffffffffffffffff1673ffffffffffffffffffffffffffffffffffffffff168152602001600182015481526020016002820154815260200160038201548152602001600482015481526020016005820154815260200160068201548152602001600782018054612d6a90614fb2565b80601f0160208091040260200160405190810160405280929190818152602001828054612d9690614fb2565b8015612de35780601f10612db857610100808354040283529160200191612de3565b820191906000526020600020905b815481529060010190602001808311612dc657829003601f168201915b50505050508152602001600882015481526020016009820160009054906101000a900460ff161515151581525050815250509050612ea682600d60008673ffffffffffffffffffffffffffffffffffffffff1673ffffffffffffffffffffffffffffffffffffffff16815260200190815260200160002060003373ffffffffffffffffffffffffffffffffffffffff1673ffffffffffffffffffffffffffffffffffffffff16815260200190815260200160002054613c5390919063ffffffff16565b600d60008573ffffffffffffffffffffffffffffffffffffffff1673ffffffffffffffffffffffffffffffffffffffff16815260200190815260200160002060003373ffffffffffffffffffffffffffffffffffffffff1673ffffffffffffffffffffffffffffffffffffffff168152602001908152602001600020819055506000600e60003373ffffffffffffffffffffffffffffffffffffffff1673ffffffffffffffffffffffffffffffffffffffff16815260200190815260200160002054111561312e57612fff600e60003373ffffffffffffffffffffffffffffffffffffffff1673ffffffffffffffffffffffffffffffffffffffff16815260200190815260200160002054600e60003373ffffffffffffffffffffffffffffffffffffffff1673ffffffffffffffffffffffffffffffffffffffff16815260200190815260200160002054613c5390919063ffffffff16565b600e60003373ffffffffffffffffffffffffffffffffffffffff1673ffffffffffffffffffffffffffffffffffffffff168152602001908152602001600020819055508273ffffffffffffffffffffffffffffffffffffffff1663a9059cbb33846040518363ffffffff1660e01b815260040161307d929190614963565b602060405180830381600087803b15801561309757600080fd5b505af11580156130ab573d6000803e3d6000fd5b505050506040513d601f19601f820116820180604052508101906130cf9190613f18565b6130d857600080fd5b600081606001516101200190151590811515815250507f9b1bfa7fa9ee420a16e124f794c35ac9f90472acc99140eb2f6447c714cad8eb303384604051613121939291906148ee565b60405180910390a1613216565b8273ffffffffffffffffffffffffffffffffffffffff1663a9059cbb33846040518363ffffffff1660e01b8152600401613169929190614963565b602060405180830381600087803b15801561318357600080fd5b505af1158015613197573d6000803e3d6000fd5b505050506040513d601f19601f820116820180604052508101906131bb9190613f18565b6131c457600080fd5b600081606001516101200190151590811515815250507f9b1bfa7fa9ee420a16e124f794c35ac9f90472acc99140eb2f6447c714cad8eb30338460405161320d939291906148ee565b60405180910390a15b5060016000819055505050565b600e6020528060005260406000206000915090505481565b600f6020528060005260406000206000915054906101000a900460ff1681565b82841161329d576040517f08c379a000000000000000000000000000000000000000000000000000000000815260040161329490614c3d565b60405180910390fd5b600083116132e0576040517f08c379a00000000000000000000000000000000000000000000000000000000081526004016132d790614bdd565b60405180910390fd5b600f60003373ffffffffffffffffffffffffffffffffffffffff1673ffffffffffffffffffffffffffffffffffffffff16815260200190815260200160002060009054906101000a900460ff1661336c576040517f08c379a000000000000000000000000000000000000000000000000000000000815260040161336390614b5d565b60405180910390fd5b6000600c60003373ffffffffffffffffffffffffffffffffffffffff1673ffffffffffffffffffffffffffffffffffffffff168152602001908152602001600020905060008160030160060154146133f9576040517f08c379a00000000000000000000000000000000000000000000000000000000081526004016133f090614afd565b60405180910390fd5b868160030160000160006101000a81548173ffffffffffffffffffffffffffffffffffffffff021916908373ffffffffffffffffffffffffffffffffffffffff16021790555081816003016006018190555061345e8342613b6490919063ffffffff16565b816003016005018190555085816003016007019080519060200190613484929190613c77565b5084816003016003018190555083816003016002018190555060018160030160090160006101000a81548160ff0219169083151502179055507f0a342f2e207c3c328a10158ad0b71a9e64a10e319c5d635be24f8c7e418ea6e4338260030160070183600301600601546040516134fd93929190614925565b60405180910390a150505050505050565b600f60003373ffffffffffffffffffffffffffffffffffffffff1673ffffffffffffffffffffffffffffffffffffffff16815260200190815260200160002060009054906101000a900460ff161561359b576040517f08c379a000000000000000000000000000000000000000000000000000000000815260040161359290614a7d565b60405180910390fd5b6000604051806101400160405280600073ffffffffffffffffffffffffffffffffffffffff16815260200160008152602001600081526020016000815260200142815260200160008152602001600081526020016040518060200160405280600081525081526020014381526020016000151581525090506000604051806080016040528061362a6002613c69565b81526020013373ffffffffffffffffffffffffffffffffffffffff16815260200184815260200183815250905080600c60003373ffffffffffffffffffffffffffffffffffffffff1673ffffffffffffffffffffffffffffffffffffffff1681526020019081526020016000206000820151816000015560208201518160010160006101000a81548173ffffffffffffffffffffffffffffffffffffffff021916908373ffffffffffffffffffffffffffffffffffffffff1602179055506040820151816002019080519060200190613704929190613c77565b5060608201518160030160008201518160000160006101000a81548173ffffffffffffffffffffffffffffffffffffffff021916908373ffffffffffffffffffffffffffffffffffffffff1602179055506020820151816001015560408201518160020155606082015181600301556080820151816004015560a0820151816005015560c0820151816006015560e08201518160070190805190602001906137ad929190613c77565b5061010082015181600801556101208201518160090160006101000a81548160ff021916908315150217905550505090505060108190806001815401808255809150506001900390600052602060002090600d02016000909190919091506000820151816000015560208201518160010160006101000a81548173ffffffffffffffffffffffffffffffffffffffff021916908373ffffffffffffffffffffffffffffffffffffffff1602179055506040820151816002019080519060200190613878929190613c77565b5060608201518160030160008201518160000160006101000a81548173ffffffffffffffffffffffffffffffffffffffff021916908373ffffffffffffffffffffffffffffffffffffffff1602179055506020820151816001015560408201518160020155606082015181600301556080820151816004015560a0820151816005015560c0820151816006015560e0820151816007019080519060200190613921929190613c77565b5061010082015181600801556101208201518160090160006101000a81548160ff021916908315150217905550505050506001600f60003373ffffffffffffffffffffffffffffffffffffffff1673ffffffffffffffffffffffffffffffffffffffff16815260200190815260200160002060006101000a81548160ff0219169083151502179055506139b46002613b46565b826040516139c291906148bc565b60405180910390203373ffffffffffffffffffffffffffffffffffffffff167f6ba0831d2f62ae5cbf7214bcc1d79c5da1d705f12811efda0beaa840006f874e60405160405180910390a3505050565b613a1a613b5c565b73ffffffffffffffffffffffffffffffffffffffff16613a386129b5565b73ffffffffffffffffffffffffffffffffffffffff1614613a8e576040517f08c379a0000000000000000000000000000000000000000000000000000000008152600401613a8590614b7d565b60405180910390fd5b600073ffffffffffffffffffffffffffffffffffffffff168173ffffffffffffffffffffffffffffffffffffffff161415613afe576040517f08c379a0000000000000000000000000000000000000000000000000000000008152600401613af5906149dd565b60405180910390fd5b613b0781613b90565b50565b600660009054906101000a900473ffffffffffffffffffffffffffffffffffffffff1681565b60008183613b3e9190614e0f565b905092915050565b6001816000016000828254019250508190555050565b600033905090565b60008183613b729190614db9565b905092915050565b60008183613b889190614e40565b905092915050565b600060018054906101000a900473ffffffffffffffffffffffffffffffffffffffff169050816001806101000a81548173ffffffffffffffffffffffffffffffffffffffff021916908373ffffffffffffffffffffffffffffffffffffffff1602179055508173ffffffffffffffffffffffffffffffffffffffff168173ffffffffffffffffffffffffffffffffffffffff167f8be0079c531659141344cd1fd0a4f28419497f9722a3daafe3b4186f6b6457e060405160405180910390a35050565b60008183613c619190614e9a565b905092915050565b600081600001549050919050565b828054613c8390614fb2565b90600052602060002090601f016020900481019282613ca55760008555613cec565b82601f10613cbe57805160ff1916838001178555613cec565b82800160010185558215613cec579182015b82811115613ceb578251825591602001919060010190613cd0565b5b509050613cf99190613cfd565b5090565b5b80821115613d16576000816000905550600101613cfe565b5090565b6000613d2d613d2884614d3c565b614d0b565b905082815260208101848484011115613d4557600080fd5b613d50848285614f70565b509392505050565b600081359050613d67816150b1565b92915050565b600081519050613d7c816150c8565b92915050565b600082601f830112613d9357600080fd5b8135613da3848260208601613d1a565b91505092915050565b600081359050613dbb816150df565b92915050565b600081519050613dd0816150df565b92915050565b600060208284031215613de857600080fd5b6000613df684828501613d58565b91505092915050565b60008060408385031215613e1257600080fd5b6000613e2085828601613d58565b9250506020613e3185828601613d58565b9150509250929050565b60008060008060008060c08789031215613e5457600080fd5b6000613e6289828a01613d58565b965050602087013567ffffffffffffffff811115613e7f57600080fd5b613e8b89828a01613d82565b9550506040613e9c89828a01613dac565b9450506060613ead89828a01613dac565b9350506080613ebe89828a01613dac565b92505060a0613ecf89828a01613dac565b9150509295509295509295565b60008060408385031215613eef57600080fd5b6000613efd85828601613d58565b9250506020613f0e85828601613dac565b9150509250929050565b600060208284031215613f2a57600080fd5b6000613f3884828501613d6d565b91505092915050565b600060208284031215613f5357600080fd5b600082013567ffffffffffffffff811115613f6d57600080fd5b613f7984828501613d82565b91505092915050565b600060208284031215613f9457600080fd5b6000613fa284828501613dac565b91505092915050565b600060208284031215613fbd57600080fd5b6000613fcb84828501613dc1565b91505092915050565b613fdd81614ee0565b82525050565b613fec81614ece565b82525050565b613ffb81614ece565b82525050565b61400a81614ef2565b82525050565b61401981614ef2565b82525050565b61402881614f28565b82525050565b61403781614f4c565b82525050565b600061404882614d81565b6140528185614d8c565b9350614062818560208601614f7f565b61406b816150a0565b840191505092915050565b600061408182614d81565b61408b8185614d9d565b935061409b818560208601614f7f565b6140a4816150a0565b840191505092915050565b60006140ba82614d81565b6140c48185614dae565b93506140d4818560208601614f7f565b80840191505092915050565b600081546140ed81614fb2565b6140f78186614d9d565b94506001821660008114614112576001811461412457614157565b60ff1983168652602086019350614157565b61412d85614d6c565b60005b8381101561414f57815481890152600182019150602081019050614130565b808801955050505b50505092915050565b600061416d602683614d9d565b91507f4f776e61626c653a206e6577206f776e657220697320746865207a65726f206160008301527f64647265737300000000000000000000000000000000000000000000000000006020830152604082019050919050565b60006141d3601583614d9d565b91507f43616c6c6572206e6f74205265676973746572656400000000000000000000006000830152602082019050919050565b6000614213600f83614d9d565b91507f5769746864726177206661696c656400000000000000000000000000000000006000830152602082019050919050565b6000614253602783614d9d565b91507f5472616e73666572206f6620617373657473206261636b20746f206f776e657260008301527f206661696c6564000000000000000000000000000000000000000000000000006020830152604082019050919050565b60006142b9601883614d9d565b91507f43616c6c6572206973206e6f74207265676973746572656400000000000000006000830152602082019050919050565b60006142f9601d83614d9d565b91507f43616c6c6572206164647265737320616c7265616479206578697374730000006000830152602082019050919050565b6000614339601083614d9d565b91507f5061757361626c653a20706175736564000000000000000000000000000000006000830152602082019050919050565b6000614379601283614d9d565b91507f43616c6c657220686173206e6f20706c616e00000000000000000000000000006000830152602082019050919050565b60006143b9604e83614d9d565b91507f596f752068617665206578656365656465642074686520617070726f7665642060008301527f616d6f756e7420666f72207468697320706c616e2c20706c65617365206d616b60208301527f6520616e6f7468657220706c616e0000000000000000000000000000000000006040830152606082019050919050565b6000614445602283614d9d565b91507f43616c6c657220616c7265616479206861732061206c6f636b2054696d65205360008301527f65740000000000000000000000000000000000000000000000000000000000006020830152604082019050919050565b60006144ab600e83614d9d565b91507f417070726f7665206661696c65640000000000000000000000000000000000006000830152602082019050919050565b60006144eb601583614d9d565b91507f43616c6c6572206e6f74207265676973746572656400000000000000000000006000830152602082019050919050565b600061452b601b83614d9d565b91507f43616c6c65722068617320746f206265205265676973746572656400000000006000830152602082019050919050565b600061456b602083614d9d565b91507f4f776e61626c653a2063616c6c6572206973206e6f7420746865206f776e65726000830152602082019050919050565b60006145ab601283614d9d565b91507f416d6f756e742063616e6e6f74206265203000000000000000000000000000006000830152602082019050919050565b60006145eb601e83614d9d565b91507f57697468647261772066726f6d2058656e20756e7375636365737366756c00006000830152602082019050919050565b600061462b602083614d9d565b91507f617070726f766520616e20616d6f756e742067726561746572207468616e20306000830152602082019050919050565b600061466b601383614d9d565b91507f416d6f756e742063616e6e6f74206e62652030000000000000000000000000006000830152602082019050919050565b60006146ab601283614d9d565b91507f4465706f73697420686173206661696c656400000000000000000000000000006000830152602082019050919050565b60006146eb602f83614d9d565b91507f53657420616e20616d6f756e742067726561746572207468616e20746865207260008301527f6563757272696e6720616d6f756e7400000000000000000000000000000000006020830152604082019050919050565b6000614751601f83614d9d565b91507f5265656e7472616e637947756172643a207265656e7472616e742063616c6c006000830152602082019050919050565b6000614791601283614d9d565b91507f4164647265737320697320696e76616c696400000000000000000000000000006000830152602082019050919050565b6000610140830160008301516147dd6000860182613fe3565b5060208301516147f0602086018261489e565b506040830151614803604086018261489e565b506060830151614816606086018261489e565b506080830151614829608086018261489e565b5060a083015161483c60a086018261489e565b5060c083015161484f60c086018261489e565b5060e083015184820360e0860152614867828261403d565b91505061010083015161487e61010086018261489e565b50610120830151614893610120860182614001565b508091505092915050565b6148a781614f1e565b82525050565b6148b681614f1e565b82525050565b60006148c882846140af565b915081905092915050565b60006020820190506148e86000830184613ff2565b92915050565b60006060820190506149036000830186613ff2565b6149106020830185613ff2565b61491d60408301846148ad565b949350505050565b600060608201905061493a6000830186613ff2565b818103602083015261494c81856140e0565b905061495b60408301846148ad565b949350505050565b60006040820190506149786000830185613ff2565b61498560208301846148ad565b9392505050565b60006020820190506149a16000830184614010565b92915050565b60006020820190506149bc600083018461401f565b92915050565b60006020820190506149d7600083018461402e565b92915050565b600060208201905081810360008301526149f681614160565b9050919050565b60006020820190508181036000830152614a16816141c6565b9050919050565b60006020820190508181036000830152614a3681614206565b9050919050565b60006020820190508181036000830152614a5681614246565b9050919050565b60006020820190508181036000830152614a76816142ac565b9050919050565b60006020820190508181036000830152614a96816142ec565b9050919050565b60006020820190508181036000830152614ab68161432c565b9050919050565b60006020820190508181036000830152614ad68161436c565b9050919050565b60006020820190508181036000830152614af6816143ac565b9050919050565b60006020820190508181036000830152614b1681614438565b9050919050565b60006020820190508181036000830152614b368161449e565b9050919050565b60006020820190508181036000830152614b56816144de565b9050919050565b60006020820190508181036000830152614b768161451e565b9050919050565b60006020820190508181036000830152614b968161455e565b9050919050565b60006020820190508181036000830152614bb68161459e565b9050919050565b60006020820190508181036000830152614bd6816145de565b9050919050565b60006020820190508181036000830152614bf68161461e565b9050919050565b60006020820190508181036000830152614c168161465e565b9050919050565b60006020820190508181036000830152614c368161469e565b9050919050565b60006020820190508181036000830152614c56816146de565b9050919050565b60006020820190508181036000830152614c7681614744565b9050919050565b60006020820190508181036000830152614c9681614784565b9050919050565b6000602082019050614cb260008301846148ad565b92915050565b6000608082019050614ccd60008301876148ad565b614cda6020830186613fd4565b8181036040830152614cec8185614076565b90508181036060830152614d0081846147c4565b905095945050505050565b6000604051905081810181811067ffffffffffffffff82111715614d3257614d31615071565b5b8060405250919050565b600067ffffffffffffffff821115614d5757614d56615071565b5b601f19601f8301169050602081019050919050565b60008190508160005260206000209050919050565b600081519050919050565b600082825260208201905092915050565b600082825260208201905092915050565b600081905092915050565b6000614dc482614f1e565b9150614dcf83614f1e565b9250827fffffffffffffffffffffffffffffffffffffffffffffffffffffffffffffffff03821115614e0457614e03614fe4565b5b828201905092915050565b6000614e1a82614f1e565b9150614e2583614f1e565b925082614e3557614e34615013565b5b828204905092915050565b6000614e4b82614f1e565b9150614e5683614f1e565b9250817fffffffffffffffffffffffffffffffffffffffffffffffffffffffffffffffff0483118215151615614e8f57614e8e614fe4565b5b828202905092915050565b6000614ea582614f1e565b9150614eb083614f1e565b925082821015614ec357614ec2614fe4565b5b828203905092915050565b6000614ed982614efe565b9050919050565b6000614eeb82614efe565b9050919050565b60008115159050919050565b600073ffffffffffffffffffffffffffffffffffffffff82169050919050565b6000819050919050565b6000614f3382614f3a565b9050919050565b6000614f4582614efe565b9050919050565b6000614f5782614f5e565b9050919050565b6000614f6982614efe565b9050919050565b82818337600083830152505050565b60005b83811015614f9d578082015181840152602081019050614f82565b83811115614fac576000848401525b50505050565b60006002820490506001821680614fca57607f821691505b60208210811415614fde57614fdd615042565b5b50919050565b7f4e487b7100000000000000000000000000000000000000000000000000000000600052601160045260246000fd5b7f4e487b7100000000000000000000000000000000000000000000000000000000600052601260045260246000fd5b7f4e487b7100000000000000000000000000000000000000000000000000000000600052602260045260246000fd5b7f4e487b7100000000000000000000000000000000000000000000000000000000600052604160045260246000fd5b6000601f19601f8301169050919050565b6150ba81614ece565b81146150c557600080fd5b50565b6150d181614ef2565b81146150dc57600080fd5b50565b6150e881614f1e565b81146150f357600080fd5b5056fea26469706673582212203fd970f1d923564cd8e5caeb26785b33723668f0f430cf05170db7e8c379acc764736f6c63430008000033",
  "immutableReferences": {},
  "source": "//SPDX-License-Identifier: Unlicense\r\npragma solidity ^0.8.0;\r\n\r\nimport \"@openzeppelin/contracts/utils/math/SafeMath.sol\";\r\nimport \"@openzeppelin/contracts/security/Pausable.sol\";\r\nimport \"@openzeppelin/contracts/security/ReentrancyGuard.sol\";\r\nimport \"@openzeppelin/contracts/access/Ownable.sol\";\r\nimport \"@openzeppelin/contracts/utils/Counters.sol\";\r\nimport '@openzeppelin/contracts/token/ERC20/IERC20.sol';\r\nimport \"@chainlink/contracts/src/v0.8/interfaces/KeeperCompatibleInterface.sol\";\r\nimport \"./XendFinanceInterface.sol\";\r\n\r\n\r\n// approve the user's underlying asset to be able to use the chainklink keepers\r\n\r\ncontract PensionServiceProvider is ReentrancyGuard, Pausable, Ownable {\r\n    using SafeMath for uint;\r\n    using Counters for Counters.Counter;\r\n\r\n    // variables\r\n    // ComptrollerInterface public comptroller;\r\n\t// PriceOracleInterface public priceOracle;\r\n    Counters.Counter private id;\r\n    uint balance;\r\n\r\n    uint accXendTokens;\r\n    uint256 ccInterest;\r\n    XendFinanceInterface public xendFinance;\r\n    IERC20 public xend;\r\n    IERC20 public busd;\r\n\r\n    uint public lastTimeStamp;\r\n    uint public upKeepInterval;\r\n    address admin;\r\n\r\n\r\n\r\n    \r\n\r\n\r\n\r\n    struct Client {\r\n        address underlyingAsset;\r\n        uint256 depositedAmount;\r\n        uint256 amountToSpend;\r\n        uint256 approvedAmountToSpend;\r\n        uint256 startTime;\r\n        uint256 timeDurationOfdeposit;\r\n        uint256 lockTime;\r\n        string ipfsHashOfUserPensionDetails;\r\n        uint256 userLastRewardBlock;\r\n        bool hasPlan;\r\n    }\r\n\r\n\r\n    // A user Object\r\n    struct User {\r\n        uint256 id;\r\n        address payable userAddress;\r\n        string  userDetails;\r\n        Client client;\r\n\r\n    }\r\n\r\n\r\n\r\n    \r\n\r\n    \r\n\r\n\r\n    event Register(address indexed applicant, string indexed applicantDetails);\r\n    event Withdraw(address from, address to, uint amount);\r\n    event Deposit(address indexed sender, address receiver, uint indexed amountSpent);\r\n    event Upkeep(address sender, bool upkeep);\r\n    event Plan(address user, string planDetails, uint lockTime);\r\n    event Update(uint256 timeDuration);\r\n    event Transfer(address indexed sender, uint amount, address indexed receiver);\r\n    event MyLog(string, uint256);\r\n\r\n    mapping(address => User) public pensionServiceApplicant;\r\n    address constant ETHER = address(0); // Stores ether in the tokens mapping\r\n\tmapping(address => mapping(address => uint256)) public assets;\r\n    mapping(address => uint) public amountSupplied;\r\n\r\n    // keep track of registered users\r\n    mapping(address => bool) public isRegistered;\r\n\r\n    User[] public users;\r\n\r\n\r\n    constructor(address _xend, address _busd, address _xendFinanceIndividual_Yearn_V1, uint _upKeepInterval)  {\r\n        xend = IERC20(_xend);\r\n        busd = IERC20(_busd);\r\n        xendFinance = XendFinanceInterface(_xendFinanceIndividual_Yearn_V1);\r\n        ccInterest = uint256(3 ether).div(10); // .3% \r\n        lastTimeStamp = block.timestamp;\r\n        upKeepInterval = _upKeepInterval;\r\n        admin = payable(msg.sender);\r\n\r\n        id.increment();\r\n        \r\n    }\r\n\r\n\r\n    receive() external payable {\r\n        balance = msg.value;\r\n    }\r\n\r\n    function register(\r\n        string memory _userDetails\r\n        ) \r\n        public  {\r\n        require(!isRegistered[msg.sender], \"Caller address already exists\");\r\n\r\n        Client memory client = Client({\r\n            underlyingAsset: address(0),\r\n            depositedAmount: 0,\r\n            amountToSpend: 0,\r\n            approvedAmountToSpend: 0,\r\n            startTime: block.timestamp,\r\n            timeDurationOfdeposit: 0,\r\n            lockTime: 0,\r\n            ipfsHashOfUserPensionDetails: \"\",\r\n            userLastRewardBlock: block.number,\r\n            hasPlan: false\r\n        });\r\n\r\n        User memory user = User({\r\n            id: id.current(),\r\n            userAddress: payable(msg.sender),\r\n            userDetails: _userDetails,\r\n            client: client\r\n        });\r\n\r\n       \r\n\r\n        pensionServiceApplicant[msg.sender] = user;\r\n        users.push(user);\r\n        isRegistered[msg.sender] = true;\r\n\r\n        id.increment();\r\n\r\n        emit Register(msg.sender, _userDetails);\r\n    }\r\n\r\n\r\n\r\n    // function depositToBeima(address _asset ,uint256 _amount) external payable nonReentrant()  {\r\n    //     IERC20(_asset).transfer(address(this), _amount);\r\n    //     require(isRegistered[msg.sender], \"Caller is not Registered\");\r\n    //     // require(_amount > 0, \"Amount cannot be 0\");\r\n    //     User storage user = pensionServiceApplicant[msg.sender];\r\n    //     // require(IERC20(cToken.underlying()).balanceOf(address(this)) >= _amount, \"Transfer failed\");\r\n    //     user.client.depositedAmount = user.client.depositedAmount.add(_amount);\r\n    //     user.client.approvedAmountToSpend = user.client.approvedAmountToSpend.sub(user.client.amountToSpend);\r\n    //     user.client.startTime = block.timestamp;\r\n    //     user.client.userLastRewardBlock = user.client.userLastRewardBlock.add(block.number);\r\n    //     lastTimeStamp = block.timestamp;\r\n    //     // _supply(_asset, _amount);\r\n    //     emit Deposit(address(this), _asset, _amount);\r\n\r\n    // }\r\n\r\n\r\n\r\n\r\n//     // chainlink keeper function call\r\n    // function checkUpkeep(bytes calldata /* checkData */) external view override returns(bool, bytes memory)   {\r\n        \r\n    //     return (block.timestamp.sub(lastTimeStamp) > upKeepInterval, bytes(abi.encode(users)));\r\n    //     // (block.timestamp.sub(lastTimeStamp) > upKeepInterval);\r\n        \r\n    // }\r\n\r\n\r\n\r\n\r\n    // function performUpkeep(bytes calldata performData ) external override  {\r\n    //     // User[] memory usersArray = abi.decode(performData, (User[]));\r\n    //     // for(uint256 i = 0; i < usersArray.length - 1; i++ ) {\r\n    //             User memory  user = pensionServiceApplicant[msg.sender];\r\n    //             require(isRegistered[user.userAddress], \"Address not registered\");\r\n    //             require(user.client.approvedAmountToSpend > 0, \"Insufficient balance cannot perform upkeep\");\r\n    //             require(user.client.hasPlan, \"Client has no plan\");\r\n    //              CTokenInterface cToken = CTokenInterface(user.client.underlyingAsset);\r\n\r\n    //             uint amountToDeposit = user.client.amountToSpend;\r\n    //             address underlyingAsset = cToken.underlying();\r\n    //             user.client.depositedAmount = user.client.depositedAmount.add(amountToDeposit);\r\n    //             IERC20(underlyingAsset).transferFrom(user.userAddress, address(this),  amountToDeposit);\r\n    //             uint balance = IERC20(underlyingAsset).balanceOf(address(this));\r\n    //             require(balance == amountToDeposit, \"Transfer failed\");\r\n    //             _deposit(user.client.underlyingAsset, balance);\r\n    //             // address cLink = 0xFAce851a4921ce59e912d19329929CE6da6EB0c7;\r\n    //             // emit Transfer(user.userAddress, user.client.depositedAmount, address(this));\r\n    //             // _supply(user.client.underlyingAsset, user.client.amountToSpend);\r\n    //             user.client.depositedAmount = user.client.depositedAmount.add(amountToDeposit);\r\n    //             user.client.approvedAmountToSpend = user.client.approvedAmountToSpend.sub(user.client.amountToSpend);\r\n    //             user.client.startTime = block.timestamp;\r\n    //             user.client.userLastRewardBlock = user.client.userLastRewardBlock.add(block.number);\r\n    //             ccInterest = ccInterest.mul(block.number);\r\n    //             lastTimeStamp = block.timestamp;\r\n\r\n    //             emit Deposit(user.userAddress, address(this), user.client.depositedAmount);\r\n    //     // }\r\n            \r\n    //     // emit Update(pensionServiceApplicant[msg.sender].depositedAmount);\r\n\r\n    // }\r\n\r\n\r\n\r\n \r\n\r\n\r\n\r\n\r\n    // helper function for testing keepers\r\n    function updateTimeDurationOfDeposit() public onlyOwner()  {\r\n        User memory user = pensionServiceApplicant[msg.sender];\r\n        require(isRegistered[user.userAddress], \"Caller is not registered\");\r\n        user.client.timeDurationOfdeposit = 0;\r\n        emit Update(user.client.timeDurationOfdeposit);\r\n    } \r\n\r\n    function setPlan(\r\n        address _underlyingAsset, \r\n        string memory _ipfsHashOfUserPensionDetails, \r\n        uint _approvedAmountToSpend, \r\n        uint _amountToSpend, \r\n        uint _timeDurationOfDeposit, \r\n        uint _lockTime) \r\n        public {\r\n        require(_approvedAmountToSpend > _amountToSpend, \"Set an amount greater than the recurring amount\");\r\n        require(_amountToSpend > 0, \"approve an amount greater than 0\");\r\n        require(isRegistered[msg.sender], \"Caller has to be Registered\");\r\n        User storage user = pensionServiceApplicant[msg.sender];\r\n        require(user.client.lockTime == 0, \"Caller already has a lock Time Set\");\r\n        user.client.underlyingAsset = _underlyingAsset;\r\n        user.client.lockTime = _lockTime;\r\n        user.client.timeDurationOfdeposit = block.timestamp.add(_timeDurationOfDeposit);\r\n        user.client.ipfsHashOfUserPensionDetails = _ipfsHashOfUserPensionDetails;\r\n        user.client.approvedAmountToSpend = _approvedAmountToSpend;\r\n        user.client.amountToSpend = _amountToSpend;\r\n        user.client.hasPlan = true;\r\n\r\n        emit Plan(msg.sender, user.client.ipfsHashOfUserPensionDetails, user.client.lockTime);\r\n    }\r\n\r\n\r\n\r\n//     // for Xend\r\n\r\n    function getXendPendingRewards(address _user, address _asset) public view returns(uint) {\r\n        User memory user = pensionServiceApplicant[_user];\r\n        uint256 accXendRewards = xendFinance.GetMemberXendTokenReward(address(this));\r\n        uint256 userPendingRewards = assets[_asset][_user].mul(accXendRewards).div(1e8);\r\n\r\n        return userPendingRewards;\r\n    }\r\n\r\n    function depositToken (address _asset, uint _amount)public {\r\n        User memory user = pensionServiceApplicant[msg.sender];\r\n        require(user.client.approvedAmountToSpend >= user.client.amountToSpend, \"You have execeeded the approved amount for this plan, please make another plan\");\r\n        require(isRegistered[msg.sender], \"Caller not registered\");\r\n        require(user.client.hasPlan, \"Caller has no plan\");\r\n\t\trequire(_asset != ETHER, \"Address is invalid\");\r\n\t\trequire(IERC20(_asset).transferFrom(msg.sender, address(this), _amount), \"Deposit has failed\");\r\n\t\tassets[_asset][msg.sender] = assets[_asset][msg.sender].add(_amount);\r\n        amountSupplied[msg.sender] = amountSupplied[msg.sender].add(_amount);\r\n        ccInterest = ccInterest.add(1);\r\n\t\temit Deposit (msg.sender, address(this), assets[_asset][msg.sender]);\r\n\t}\r\n\r\n\r\n\r\n\r\n    function depositToXendFinance( uint _amount) public  {\r\n        require(amountSupplied[msg.sender] > 0, \"Amount cannot be 0\");\r\n        // require(isRegistered[msg.sender], \"Caller not Registered\");\r\n        // User storage user = pensionServiceApplicant[msg.sender];\r\n        // require(busd.transferFrom(msg.sender, address(this), _amount), \"Transfer not successful\");\r\n        require(busd.approve(address(xendFinance), _amount), \"Approve failed\");\r\n        xendFinance.deposit();\r\n        amountSupplied[msg.sender] = amountSupplied[msg.sender].add(_amount);\r\n        // user.client.depositedAmount = user.client.depositedAmount.add(_amount);\r\n\r\n        emit Deposit(msg.sender, address(xend), _amount);\r\n        \r\n    }\r\n\r\n    function withdrawAssetFromXend() public onlyOwner  {\r\n        uint amount = busd.balanceOf(address(this));\r\n        xendFinance.withdraw(amount);\r\n        require(busd.balanceOf(address(this)) >= amount, \"Withdraw from Xen unsuccessful\");\r\n        // user.client.depositedAmount = user.client.depositedAmount.add(_amount);\r\n\r\n        emit Deposit(msg.sender, address(xend), amount);\r\n        \r\n    }\r\n\r\n\r\n\r\n    function withdrawFromXendFinance(address _asset) public nonReentrant() {\r\n        require(isRegistered[msg.sender], \"Caller not Registered\");\r\n        User memory user = pensionServiceApplicant[msg.sender];\r\n\r\n        xendFinance.withdraw(assets[_asset][msg.sender]);\r\n        require(IERC20(_asset).balanceOf(address(this)) >= assets[_asset][msg.sender], \"Withdraw failed\");\r\n        emit Withdraw(address(xendFinance), address(this), assets[_asset][msg.sender]);\r\n        // uint256 xendBalance = xend.balanceOf(address(this));\r\n        // require(xendBalance > user.client.depositedAmount, \"Withdrawing more than you deposited\");\r\n        // accXendTokens = xendBalance;\r\n        // uint256 accXendTokensforUser = user.client.depositedAmount.mul(accXendTokens).div(1e8);\r\n        // xend.transfer(msg.sender, accXendTokensforUser);\r\n\r\n    }\r\n\r\n    function withdrawToken(address _asset, uint _amount) public nonReentrant() whenNotPaused() {\r\n\t\trequire(assets[_asset][msg.sender] >= _amount);\r\n\t\trequire(_asset != ETHER);\r\n        require(_amount > 0, \"Amount cannot nbe 0\");\r\n        User memory user = pensionServiceApplicant[msg.sender];\r\n        // uint interestAccrued = \r\n        // uint amountToSend = assets[_asset][msg.sender];\r\n\t\tassets[_asset][msg.sender] = assets[_asset][msg.sender].sub(_amount);\r\n        if(amountSupplied[msg.sender] > 0 ) {\r\n            amountSupplied[msg.sender] = amountSupplied[msg.sender].sub(amountSupplied[msg.sender]);   \r\n            require(IERC20(_asset).transfer(msg.sender, _amount));\r\n            user.client.hasPlan = false;\r\n            emit Withdraw(address(this), msg.sender, _amount);\r\n        } else {\r\n            require(IERC20(_asset).transfer(msg.sender, _amount));\r\n            user.client.hasPlan = false; \r\n            emit Withdraw(address(this), msg.sender, _amount);\r\n        }\r\n\r\n\t}\r\n\r\n    function withrawAsset() public onlyOwner {\r\n        uint amount = busd.balanceOf(address(this));\r\n        require(busd.transfer(admin, amount), \"Transfer of assets back to owner failed\");\r\n    }\r\n\r\n    // function getAccruedInterest() public view returns(uint) {\r\n    //     User memory user = pensionServiceApplicant[msg.sender];\r\n    //     require(isRegistered[user.userAddress], \"Caller not registered\");\r\n    //     CTokenInterface ctoken = CTokenInterface(user.client.underlyingAsset);\r\n    //     uint supplyRatePerBlock = ctoken.supplyRatePerBlock();\r\n    //     uint accInterest = user.client.depositedAmount.mul(supplyRatePerBlock).div(ccInterest).div(1e8);\r\n    //     return accInterest;\r\n    // }\r\n}",
  "sourcePath": "/mnt/c/Users/chuks/Desktop/Project/beima_project/beima_core/contracts/PensionServiceProvider.sol",
  "compiler": {
    "name": "solc",
    "version": "0.8.0+commit.c7dfd78e.Emscripten.clang"
  },
  "schemaVersion": "3.4.3",
  "updatedAt": "2021-12-14T11:15:15.380Z",
  "networkType": "ethereum",
  "devdoc": {
    "kind": "dev",
    "methods": {
      "owner()": {
        "details": "Returns the address of the current owner."
      },
      "paused()": {
        "details": "Returns true if the contract is paused, and false otherwise."
      },
      "renounceOwnership()": {
        "details": "Leaves the contract without owner. It will not be possible to call `onlyOwner` functions anymore. Can only be called by the current owner. NOTE: Renouncing ownership will leave the contract without an owner, thereby removing any functionality that is only available to the owner."
      },
      "transferOwnership(address)": {
        "details": "Transfers ownership of the contract to a new account (`newOwner`). Can only be called by the current owner."
      }
    },
    "version": 1
  },
  "userdoc": {
    "kind": "user",
    "methods": {},
    "version": 1
  }
}