{
  "contractName": "Beima",
  "abi": [
    {
      "inputs": [
        {
          "internalType": "address",
          "name": "_xend",
          "type": "address"
        },
        {
          "internalType": "address",
          "name": "_xendFinanceIndividual_Yearn_V1",
          "type": "address"
        },
        {
          "internalType": "address",
          "name": "_comptroller",
          "type": "address"
        },
        {
          "internalType": "address",
          "name": "_priceOracle",
          "type": "address"
        },
        {
          "internalType": "uint256",
          "name": "_upKeepInterval",
          "type": "uint256"
        }
      ],
      "stateMutability": "nonpayable",
      "type": "constructor"
    },
    {
      "anonymous": false,
      "inputs": [
        {
          "indexed": true,
          "internalType": "address",
          "name": "sender",
          "type": "address"
        },
        {
          "indexed": false,
          "internalType": "address",
          "name": "receiver",
          "type": "address"
        },
        {
          "indexed": true,
          "internalType": "uint256",
          "name": "amountSpent",
          "type": "uint256"
        }
      ],
      "name": "Deposit",
      "type": "event"
    },
    {
      "anonymous": false,
      "inputs": [
        {
          "indexed": true,
          "internalType": "address",
          "name": "previousOwner",
          "type": "address"
        },
        {
          "indexed": true,
          "internalType": "address",
          "name": "newOwner",
          "type": "address"
        }
      ],
      "name": "OwnershipTransferred",
      "type": "event"
    },
    {
      "anonymous": false,
      "inputs": [
        {
          "indexed": false,
          "internalType": "address",
          "name": "account",
          "type": "address"
        }
      ],
      "name": "Paused",
      "type": "event"
    },
    {
      "anonymous": false,
      "inputs": [
        {
          "indexed": false,
          "internalType": "address",
          "name": "user",
          "type": "address"
        },
        {
          "indexed": false,
          "internalType": "string",
          "name": "planDetails",
          "type": "string"
        },
        {
          "indexed": false,
          "internalType": "uint256",
          "name": "lockTime",
          "type": "uint256"
        }
      ],
      "name": "Plan",
      "type": "event"
    },
    {
      "anonymous": false,
      "inputs": [
        {
          "indexed": false,
          "internalType": "string",
          "name": "",
          "type": "string"
        },
        {
          "indexed": false,
          "internalType": "uint256",
          "name": "",
          "type": "uint256"
        }
      ],
      "name": "Redeem",
      "type": "event"
    },
    {
      "anonymous": false,
      "inputs": [
        {
          "indexed": true,
          "internalType": "address",
          "name": "applicant",
          "type": "address"
        },
        {
          "indexed": true,
          "internalType": "string",
          "name": "applicantDetails",
          "type": "string"
        }
      ],
      "name": "Register",
      "type": "event"
    },
    {
      "anonymous": false,
      "inputs": [
        {
          "indexed": false,
          "internalType": "address",
          "name": "sender",
          "type": "address"
        },
        {
          "indexed": false,
          "internalType": "uint256",
          "name": "amount",
          "type": "uint256"
        }
      ],
      "name": "Supply",
      "type": "event"
    },
    {
      "anonymous": false,
      "inputs": [
        {
          "indexed": true,
          "internalType": "address",
          "name": "sender",
          "type": "address"
        },
        {
          "indexed": false,
          "internalType": "uint256",
          "name": "amount",
          "type": "uint256"
        },
        {
          "indexed": true,
          "internalType": "address",
          "name": "receiver",
          "type": "address"
        }
      ],
      "name": "Transfer",
      "type": "event"
    },
    {
      "anonymous": false,
      "inputs": [
        {
          "indexed": false,
          "internalType": "address",
          "name": "account",
          "type": "address"
        }
      ],
      "name": "Unpaused",
      "type": "event"
    },
    {
      "anonymous": false,
      "inputs": [
        {
          "indexed": false,
          "internalType": "uint256",
          "name": "timeDuration",
          "type": "uint256"
        }
      ],
      "name": "Update",
      "type": "event"
    },
    {
      "anonymous": false,
      "inputs": [
        {
          "indexed": false,
          "internalType": "address",
          "name": "sender",
          "type": "address"
        },
        {
          "indexed": false,
          "internalType": "bool",
          "name": "upkeep",
          "type": "bool"
        }
      ],
      "name": "Upkeep",
      "type": "event"
    },
    {
      "anonymous": false,
      "inputs": [
        {
          "indexed": false,
          "internalType": "address",
          "name": "from",
          "type": "address"
        },
        {
          "indexed": false,
          "internalType": "address",
          "name": "to",
          "type": "address"
        },
        {
          "indexed": false,
          "internalType": "uint256",
          "name": "amount",
          "type": "uint256"
        }
      ],
      "name": "Withdraw",
      "type": "event"
    },
    {
      "inputs": [],
      "name": "admin",
      "outputs": [
        {
          "internalType": "address",
          "name": "",
          "type": "address"
        }
      ],
      "stateMutability": "view",
      "type": "function",
      "constant": true
    },
    {
      "inputs": [
        {
          "internalType": "address",
          "name": "",
          "type": "address"
        },
        {
          "internalType": "address",
          "name": "",
          "type": "address"
        }
      ],
      "name": "assets",
      "outputs": [
        {
          "internalType": "uint256",
          "name": "",
          "type": "uint256"
        }
      ],
      "stateMutability": "view",
      "type": "function",
      "constant": true
    },
    {
      "inputs": [],
      "name": "busd",
      "outputs": [
        {
          "internalType": "contract IERC20",
          "name": "",
          "type": "address"
        }
      ],
      "stateMutability": "view",
      "type": "function",
      "constant": true
    },
    {
      "inputs": [],
      "name": "comptroller",
      "outputs": [
        {
          "internalType": "contract ComptrollerInterface",
          "name": "",
          "type": "address"
        }
      ],
      "stateMutability": "view",
      "type": "function",
      "constant": true
    },
    {
      "inputs": [
        {
          "internalType": "address",
          "name": "",
          "type": "address"
        }
      ],
      "name": "hasRedeemed",
      "outputs": [
        {
          "internalType": "bool",
          "name": "",
          "type": "bool"
        }
      ],
      "stateMutability": "view",
      "type": "function",
      "constant": true
    },
    {
      "inputs": [
        {
          "internalType": "address",
          "name": "",
          "type": "address"
        }
      ],
      "name": "isRegistered",
      "outputs": [
        {
          "internalType": "bool",
          "name": "",
          "type": "bool"
        }
      ],
      "stateMutability": "view",
      "type": "function",
      "constant": true
    },
    {
      "inputs": [],
      "name": "lastTimeStamp",
      "outputs": [
        {
          "internalType": "uint256",
          "name": "",
          "type": "uint256"
        }
      ],
      "stateMutability": "view",
      "type": "function",
      "constant": true
    },
    {
      "inputs": [],
      "name": "owner",
      "outputs": [
        {
          "internalType": "address",
          "name": "",
          "type": "address"
        }
      ],
      "stateMutability": "view",
      "type": "function",
      "constant": true
    },
    {
      "inputs": [],
      "name": "paused",
      "outputs": [
        {
          "internalType": "bool",
          "name": "",
          "type": "bool"
        }
      ],
      "stateMutability": "view",
      "type": "function",
      "constant": true
    },
    {
      "inputs": [
        {
          "internalType": "address",
          "name": "",
          "type": "address"
        }
      ],
      "name": "pensionServiceApplicant",
      "outputs": [
        {
          "internalType": "uint256",
          "name": "id",
          "type": "uint256"
        },
        {
          "internalType": "address payable",
          "name": "userAddress",
          "type": "address"
        },
        {
          "internalType": "string",
          "name": "userDetails",
          "type": "string"
        },
        {
          "components": [
            {
              "internalType": "address",
              "name": "underlyingAsset",
              "type": "address"
            },
            {
              "internalType": "uint256",
              "name": "depositedAmount",
              "type": "uint256"
            },
            {
              "internalType": "uint256",
              "name": "amountToSpend",
              "type": "uint256"
            },
            {
              "internalType": "uint256",
              "name": "approvedAmountToSpend",
              "type": "uint256"
            },
            {
              "internalType": "uint256",
              "name": "startTime",
              "type": "uint256"
            },
            {
              "internalType": "uint256",
              "name": "timeDurationOfdeposit",
              "type": "uint256"
            },
            {
              "internalType": "uint256",
              "name": "lockTime",
              "type": "uint256"
            },
            {
              "internalType": "string",
              "name": "ipfsHashOfUserPensionDetails",
              "type": "string"
            },
            {
              "internalType": "uint256",
              "name": "userLastRewardBlock",
              "type": "uint256"
            },
            {
              "internalType": "bool",
              "name": "hasPlan",
              "type": "bool"
            }
          ],
          "internalType": "struct Beima.Client",
          "name": "client",
          "type": "tuple"
        }
      ],
      "stateMutability": "view",
      "type": "function",
      "constant": true
    },
    {
      "inputs": [],
      "name": "priceOracle",
      "outputs": [
        {
          "internalType": "contract PriceOracleInterface",
          "name": "",
          "type": "address"
        }
      ],
      "stateMutability": "view",
      "type": "function",
      "constant": true
    },
    {
      "inputs": [],
      "name": "renounceOwnership",
      "outputs": [],
      "stateMutability": "nonpayable",
      "type": "function"
    },
    {
      "inputs": [
        {
          "internalType": "address",
          "name": "",
          "type": "address"
        }
      ],
      "name": "stakedBalance",
      "outputs": [
        {
          "internalType": "uint256",
          "name": "",
          "type": "uint256"
        }
      ],
      "stateMutability": "view",
      "type": "function",
      "constant": true
    },
    {
      "inputs": [
        {
          "internalType": "address",
          "name": "newOwner",
          "type": "address"
        }
      ],
      "name": "transferOwnership",
      "outputs": [],
      "stateMutability": "nonpayable",
      "type": "function"
    },
    {
      "inputs": [
        {
          "internalType": "address",
          "name": "",
          "type": "address"
        }
      ],
      "name": "unsuppliedAmount",
      "outputs": [
        {
          "internalType": "uint256",
          "name": "",
          "type": "uint256"
        }
      ],
      "stateMutability": "view",
      "type": "function",
      "constant": true
    },
    {
      "inputs": [],
      "name": "upKeepInterval",
      "outputs": [
        {
          "internalType": "uint256",
          "name": "",
          "type": "uint256"
        }
      ],
      "stateMutability": "view",
      "type": "function",
      "constant": true
    },
    {
      "inputs": [
        {
          "internalType": "uint256",
          "name": "",
          "type": "uint256"
        }
      ],
      "name": "users",
      "outputs": [
        {
          "internalType": "uint256",
          "name": "id",
          "type": "uint256"
        },
        {
          "internalType": "address payable",
          "name": "userAddress",
          "type": "address"
        },
        {
          "internalType": "string",
          "name": "userDetails",
          "type": "string"
        },
        {
          "components": [
            {
              "internalType": "address",
              "name": "underlyingAsset",
              "type": "address"
            },
            {
              "internalType": "uint256",
              "name": "depositedAmount",
              "type": "uint256"
            },
            {
              "internalType": "uint256",
              "name": "amountToSpend",
              "type": "uint256"
            },
            {
              "internalType": "uint256",
              "name": "approvedAmountToSpend",
              "type": "uint256"
            },
            {
              "internalType": "uint256",
              "name": "startTime",
              "type": "uint256"
            },
            {
              "internalType": "uint256",
              "name": "timeDurationOfdeposit",
              "type": "uint256"
            },
            {
              "internalType": "uint256",
              "name": "lockTime",
              "type": "uint256"
            },
            {
              "internalType": "string",
              "name": "ipfsHashOfUserPensionDetails",
              "type": "string"
            },
            {
              "internalType": "uint256",
              "name": "userLastRewardBlock",
              "type": "uint256"
            },
            {
              "internalType": "bool",
              "name": "hasPlan",
              "type": "bool"
            }
          ],
          "internalType": "struct Beima.Client",
          "name": "client",
          "type": "tuple"
        }
      ],
      "stateMutability": "view",
      "type": "function",
      "constant": true
    },
    {
      "inputs": [],
      "name": "xend",
      "outputs": [
        {
          "internalType": "contract IERC20",
          "name": "",
          "type": "address"
        }
      ],
      "stateMutability": "view",
      "type": "function",
      "constant": true
    },
    {
      "inputs": [],
      "name": "xendFinance",
      "outputs": [
        {
          "internalType": "contract XendFinanceInterface",
          "name": "",
          "type": "address"
        }
      ],
      "stateMutability": "view",
      "type": "function",
      "constant": true
    },
    {
      "stateMutability": "payable",
      "type": "receive",
      "payable": true
    },
    {
      "inputs": [
        {
          "internalType": "string",
          "name": "_userDetails",
          "type": "string"
        }
      ],
      "name": "register",
      "outputs": [],
      "stateMutability": "nonpayable",
      "type": "function"
    },
    {
      "inputs": [
        {
          "internalType": "address",
          "name": "_asset",
          "type": "address"
        },
        {
          "internalType": "uint256",
          "name": "_amount",
          "type": "uint256"
        }
      ],
      "name": "depositToken",
      "outputs": [],
      "stateMutability": "nonpayable",
      "type": "function"
    },
    {
      "inputs": [
        {
          "internalType": "address",
          "name": "_asset",
          "type": "address"
        }
      ],
      "name": "withdrawToken",
      "outputs": [],
      "stateMutability": "nonpayable",
      "type": "function"
    },
    {
      "inputs": [
        {
          "internalType": "address",
          "name": "_asset",
          "type": "address"
        }
      ],
      "name": "forcedWithdraw",
      "outputs": [],
      "stateMutability": "nonpayable",
      "type": "function"
    },
    {
      "inputs": [
        {
          "internalType": "address",
          "name": "cTokenaddress",
          "type": "address"
        }
      ],
      "name": "supply",
      "outputs": [
        {
          "internalType": "uint256",
          "name": "",
          "type": "uint256"
        }
      ],
      "stateMutability": "nonpayable",
      "type": "function"
    },
    {
      "inputs": [
        {
          "internalType": "address",
          "name": "_cErc20Contract",
          "type": "address"
        }
      ],
      "name": "redeemCErc20Tokens",
      "outputs": [
        {
          "internalType": "bool",
          "name": "",
          "type": "bool"
        }
      ],
      "stateMutability": "nonpayable",
      "type": "function"
    },
    {
      "inputs": [
        {
          "internalType": "address",
          "name": "_underlyingAsset",
          "type": "address"
        },
        {
          "internalType": "string",
          "name": "_ipfsHashOfUserPensionDetails",
          "type": "string"
        },
        {
          "internalType": "uint256",
          "name": "_approvedAmountToSpend",
          "type": "uint256"
        },
        {
          "internalType": "uint256",
          "name": "_amountToSpend",
          "type": "uint256"
        },
        {
          "internalType": "uint256",
          "name": "_timeDurationOfDeposit",
          "type": "uint256"
        },
        {
          "internalType": "uint256",
          "name": "_lockTime",
          "type": "uint256"
        }
      ],
      "name": "setPlan",
      "outputs": [],
      "stateMutability": "nonpayable",
      "type": "function"
    },
    {
      "inputs": [
        {
          "internalType": "address",
          "name": "ctokenAddress",
          "type": "address"
        }
      ],
      "name": "getAssetAddress",
      "outputs": [
        {
          "internalType": "address",
          "name": "",
          "type": "address"
        }
      ],
      "stateMutability": "view",
      "type": "function",
      "constant": true
    },
    {
      "inputs": [
        {
          "internalType": "address",
          "name": "_asset",
          "type": "address"
        }
      ],
      "name": "getAccruedInterest",
      "outputs": [
        {
          "internalType": "uint256",
          "name": "",
          "type": "uint256"
        }
      ],
      "stateMutability": "view",
      "type": "function",
      "constant": true
    },
    {
      "inputs": [
        {
          "internalType": "address",
          "name": "_asset",
          "type": "address"
        }
      ],
      "name": "withdrawPenalty",
      "outputs": [],
      "stateMutability": "nonpayable",
      "type": "function"
    },
    {
      "inputs": [],
      "name": "updateLockTime",
      "outputs": [],
      "stateMutability": "nonpayable",
      "type": "function"
    }
  ],
  "bytecode": "0x60806040523480156200001157600080fd5b50604051620063643803806200636483398181016040528101906200003791906200033f565b60016000819055506000600160006101000a81548160ff0219169083151502179055506200007a6200006e6200021860201b60201c565b6200022060201b60201c565b84600960006101000a81548173ffffffffffffffffffffffffffffffffffffffff021916908373ffffffffffffffffffffffffffffffffffffffff16021790555082600260006101000a81548173ffffffffffffffffffffffffffffffffffffffff021916908373ffffffffffffffffffffffffffffffffffffffff16021790555081600360006101000a81548173ffffffffffffffffffffffffffffffffffffffff021916908373ffffffffffffffffffffffffffffffffffffffff16021790555083600860006101000a81548173ffffffffffffffffffffffffffffffffffffffff021916908373ffffffffffffffffffffffffffffffffffffffff160217905550620001a1600a6729a2241af62c0000620002e360201b620047041790919060201c565b60078190555042600c8190555080600d8190555033600b60006101000a81548173ffffffffffffffffffffffffffffffffffffffff021916908373ffffffffffffffffffffffffffffffffffffffff1602179055506200020d6004620002fb60201b6200471a1760201c565b50505050506200049a565b600033905090565b600060018054906101000a900473ffffffffffffffffffffffffffffffffffffffff169050816001806101000a81548173ffffffffffffffffffffffffffffffffffffffff021916908373ffffffffffffffffffffffffffffffffffffffff1602179055508173ffffffffffffffffffffffffffffffffffffffff168173ffffffffffffffffffffffffffffffffffffffff167f8be0079c531659141344cd1fd0a4f28419497f9722a3daafe3b4186f6b6457e060405160405180910390a35050565b60008183620002f39190620003c1565b905092915050565b6001816000016000828254019250508190555050565b600081519050620003228162000466565b92915050565b600081519050620003398162000480565b92915050565b600080600080600060a086880312156200035857600080fd5b6000620003688882890162000311565b95505060206200037b8882890162000311565b94505060406200038e8882890162000311565b9350506060620003a18882890162000311565b9250506080620003b48882890162000328565b9150509295509295909350565b6000620003ce826200042d565b9150620003db836200042d565b925082620003ee57620003ed62000437565b5b828204905092915050565b600062000406826200040d565b9050919050565b600073ffffffffffffffffffffffffffffffffffffffff82169050919050565b6000819050919050565b7f4e487b7100000000000000000000000000000000000000000000000000000000600052601260045260246000fd5b6200047181620003f9565b81146200047d57600080fd5b50565b6200048b816200042d565b81146200049757600080fd5b50565b615eba80620004aa6000396000f3fe6080604052600436106101d15760003560e01c80635fe3b567116100f7578063c3c5a54711610095578063f2c298be11610064578063f2c298be146106dc578063f2fde38b14610705578063f5dd60651461072e578063f851a44014610759576101df565b8063c3c5a547146105fc578063db78b67c14610639578063de15f0da14610676578063e8ab50b81461069f576101df565b806389476069116100d157806389476069146105545780638da5cb5b1461057d578063a07d6fe8146105a8578063bbf14e74146105bf576101df565b80635fe3b567146104d55780636021726714610500578063715018a61461053d576101df565b80633245f2281161016f5780633f3b3b271161013e5780633f3b3b27146104165780634537f7d1146104415780635bc9d2bf1461046a5780635c975abb146104aa576101df565b80633245f22814610357578063338b5dea14610382578063365b98b2146103ab5780633ca5b234146103eb576101df565b80632630c12f116101ab5780632630c12f146102895780632a1a6031146102b45780632b6a7221146102f15780632ce8abed1461031a576101df565b806319ae58f0146101e45780631a15687b146102215780632108234d1461024c576101df565b366101df5734600581905550005b600080fd5b3480156101f057600080fd5b5061020b600480360381019061020691906149bf565b610784565b60405161021891906159e3565b60405180910390f35b34801561022d57600080fd5b50610236610d24565b60405161024391906159e3565b60405180910390f35b34801561025857600080fd5b50610273600480360381019061026e9190614a11565b610d2a565b60405161028091906159e3565b60405180910390f35b34801561029557600080fd5b5061029e610d4f565b6040516102ab91906156bf565b60405180910390f35b3480156102c057600080fd5b506102db60048036038101906102d691906149bf565b610d75565b6040516102e891906155b5565b60405180910390f35b3480156102fd57600080fd5b50610318600480360381019061031391906149bf565b610e01565b005b34801561032657600080fd5b50610341600480360381019061033c91906149bf565b611073565b60405161034e91906159e3565b60405180910390f35b34801561036357600080fd5b5061036c61108b565b60405161037991906156a4565b60405180910390f35b34801561038e57600080fd5b506103a960048036038101906103a49190614aee565b6110b1565b005b3480156103b757600080fd5b506103d260048036038101906103cd9190614b94565b611845565b6040516103e294939291906159fe565b60405180910390f35b3480156103f757600080fd5b50610400611a81565b60405161040d91906156a4565b60405180910390f35b34801561042257600080fd5b5061042b611aa7565b60405161043891906159e3565b60405180910390f35b34801561044d57600080fd5b50610468600480360381019061046391906149bf565b611aad565b005b34801561047657600080fd5b50610491600480360381019061048c91906149bf565b61254e565b6040516104a194939291906159fe565b60405180910390f35b3480156104b657600080fd5b506104bf61277a565b6040516104cc919061566e565b60405180910390f35b3480156104e157600080fd5b506104ea612791565b6040516104f79190615689565b60405180910390f35b34801561050c57600080fd5b50610527600480360381019061052291906149bf565b6127b7565b60405161053491906159e3565b60405180910390f35b34801561054957600080fd5b506105526127cf565b005b34801561056057600080fd5b5061057b600480360381019061057691906149bf565b612857565b005b34801561058957600080fd5b506105926131c7565b60405161059f91906155b5565b60405180910390f35b3480156105b457600080fd5b506105bd6131ef565b005b3480156105cb57600080fd5b506105e660048036038101906105e191906149bf565b6132ce565b6040516105f391906159e3565b60405180910390f35b34801561060857600080fd5b50610623600480360381019061061e91906149bf565b613727565b604051610630919061566e565b60405180910390f35b34801561064557600080fd5b50610660600480360381019061065b91906149bf565b613747565b60405161066d919061566e565b60405180910390f35b34801561068257600080fd5b5061069d60048036038101906106989190614a4d565b613767565b005b3480156106ab57600080fd5b506106c660048036038101906106c191906149bf565b613a2c565b6040516106d3919061566e565b60405180910390f35b3480156106e857600080fd5b5061070360048036038101906106fe9190614b53565b6140bc565b005b34801561071157600080fd5b5061072c600480360381019061072791906149bf565b6145c0565b005b34801561073a57600080fd5b506107436146b8565b60405161075091906156da565b60405180910390f35b34801561076557600080fd5b5061076e6146de565b60405161077b91906155b5565b60405180910390f35b6000601260003373ffffffffffffffffffffffffffffffffffffffff1673ffffffffffffffffffffffffffffffffffffffff16815260200190815260200160002060009054906101000a900460ff16610812576040517f08c379a000000000000000000000000000000000000000000000000000000000815260040161080990615843565b60405180910390fd5b6000601060003373ffffffffffffffffffffffffffffffffffffffff1673ffffffffffffffffffffffffffffffffffffffff1681526020019081526020016000205411610894576040517f08c379a000000000000000000000000000000000000000000000000000000000815260040161088b906158a3565b60405180910390fd5b600082905060008173ffffffffffffffffffffffffffffffffffffffff16636f307dc36040518163ffffffff1660e01b815260040160206040518083038186803b1580156108e157600080fd5b505afa1580156108f5573d6000803e3d6000fd5b505050506040513d601f19601f8201168201806040525081019061091991906149e8565b90508073ffffffffffffffffffffffffffffffffffffffff1663095ea7b385601060003373ffffffffffffffffffffffffffffffffffffffff1673ffffffffffffffffffffffffffffffffffffffff168152602001908152602001600020546040518363ffffffff1660e01b8152600401610995929190615645565b602060405180830381600087803b1580156109af57600080fd5b505af11580156109c3573d6000803e3d6000fd5b505050506040513d601f19601f820116820180604052508101906109e79190614b2a565b5060008273ffffffffffffffffffffffffffffffffffffffff1663a0712d68601060003373ffffffffffffffffffffffffffffffffffffffff1673ffffffffffffffffffffffffffffffffffffffff168152602001908152602001600020546040518263ffffffff1660e01b8152600401610a6291906159e3565b602060405180830381600087803b158015610a7c57600080fd5b505af1158015610a90573d6000803e3d6000fd5b505050506040513d601f19601f82011682018060405250810190610ab49190614bbd565b9050610b47601060003373ffffffffffffffffffffffffffffffffffffffff1673ffffffffffffffffffffffffffffffffffffffff16815260200190815260200160002054601160003373ffffffffffffffffffffffffffffffffffffffff1673ffffffffffffffffffffffffffffffffffffffff1681526020019081526020016000205461473090919063ffffffff16565b601160003373ffffffffffffffffffffffffffffffffffffffff1673ffffffffffffffffffffffffffffffffffffffff16815260200190815260200160002081905550610c1b601060003373ffffffffffffffffffffffffffffffffffffffff1673ffffffffffffffffffffffffffffffffffffffff16815260200190815260200160002054601060003373ffffffffffffffffffffffffffffffffffffffff1673ffffffffffffffffffffffffffffffffffffffff1681526020019081526020016000205461474690919063ffffffff16565b601060003373ffffffffffffffffffffffffffffffffffffffff1673ffffffffffffffffffffffffffffffffffffffff1681526020019081526020016000208190555060008114610ca1576040517f08c379a0000000000000000000000000000000000000000000000000000000008152600401610c9890615763565b60405180910390fd5b7fadacf827efe383160192c092d8658471945c074229a9746679b5e2b74adff19133601160003373ffffffffffffffffffffffffffffffffffffffff1673ffffffffffffffffffffffffffffffffffffffff16815260200190815260200160002054604051610d11929190615645565b60405180910390a1809350505050919050565b600d5481565b600f602052816000526040600020602052806000526040600020600091509150505481565b600360009054906101000a900473ffffffffffffffffffffffffffffffffffffffff1681565b6000808290508073ffffffffffffffffffffffffffffffffffffffff16636f307dc36040518163ffffffff1660e01b815260040160206040518083038186803b158015610dc157600080fd5b505afa158015610dd5573d6000803e3d6000fd5b505050506040513d601f19601f82011682018060405250810190610df991906149e8565b915050919050565b610e0961475c565b73ffffffffffffffffffffffffffffffffffffffff16610e276131c7565b73ffffffffffffffffffffffffffffffffffffffff1614610e7d576040517f08c379a0000000000000000000000000000000000000000000000000000000008152600401610e7490615883565b60405180910390fd5b6000600f60008373ffffffffffffffffffffffffffffffffffffffff1673ffffffffffffffffffffffffffffffffffffffff16815260200190815260200160002060003073ffffffffffffffffffffffffffffffffffffffff1673ffffffffffffffffffffffffffffffffffffffff1681526020019081526020016000205411610f3c576040517f08c379a0000000000000000000000000000000000000000000000000000000008152600401610f3390615943565b60405180910390fd5b8073ffffffffffffffffffffffffffffffffffffffff1663a9059cbb600b60009054906101000a900473ffffffffffffffffffffffffffffffffffffffff16600f60008573ffffffffffffffffffffffffffffffffffffffff1673ffffffffffffffffffffffffffffffffffffffff16815260200190815260200160002060003073ffffffffffffffffffffffffffffffffffffffff1673ffffffffffffffffffffffffffffffffffffffff168152602001908152602001600020546040518363ffffffff1660e01b8152600401611015929190615645565b602060405180830381600087803b15801561102f57600080fd5b505af1158015611043573d6000803e3d6000fd5b505050506040513d601f19601f820116820180604052508101906110679190614b2a565b61107057600080fd5b50565b60106020528060005260406000206000915090505481565b600960009054906101000a900473ffffffffffffffffffffffffffffffffffffffff1681565b6000600e60003373ffffffffffffffffffffffffffffffffffffffff1673ffffffffffffffffffffffffffffffffffffffff168152602001908152602001600020604051806080016040529081600082015481526020016001820160009054906101000a900473ffffffffffffffffffffffffffffffffffffffff1673ffffffffffffffffffffffffffffffffffffffff1673ffffffffffffffffffffffffffffffffffffffff16815260200160028201805461116d90615d40565b80601f016020809104026020016040519081016040528092919081815260200182805461119990615d40565b80156111e65780601f106111bb576101008083540402835291602001916111e6565b820191906000526020600020905b8154815290600101906020018083116111c957829003601f168201915b5050505050815260200160038201604051806101400160405290816000820160009054906101000a900473ffffffffffffffffffffffffffffffffffffffff1673ffffffffffffffffffffffffffffffffffffffff1673ffffffffffffffffffffffffffffffffffffffff1681526020016001820154815260200160028201548152602001600382015481526020016004820154815260200160058201548152602001600682015481526020016007820180546112a290615d40565b80601f01602080910402602001604051908101604052809291908181526020018280546112ce90615d40565b801561131b5780601f106112f05761010080835404028352916020019161131b565b820191906000526020600020905b8154815290600101906020018083116112fe57829003601f168201915b50505050508152602001600882015481526020016009820160009054906101000a900460ff16151515158152505081525050905080606001516040015181606001516060015110156113a2576040517f08c379a000000000000000000000000000000000000000000000000000000000815260040161139990615803565b60405180910390fd5b601260003373ffffffffffffffffffffffffffffffffffffffff1673ffffffffffffffffffffffffffffffffffffffff16815260200190815260200160002060009054906101000a900460ff1661142e576040517f08c379a000000000000000000000000000000000000000000000000000000000815260040161142590615843565b60405180910390fd5b80606001516101200151611477576040517f08c379a000000000000000000000000000000000000000000000000000000000815260040161146e906157e3565b60405180910390fd5b600073ffffffffffffffffffffffffffffffffffffffff168373ffffffffffffffffffffffffffffffffffffffff1614156114e7576040517f08c379a00000000000000000000000000000000000000000000000000000000081526004016114de906159c3565b60405180910390fd5b8273ffffffffffffffffffffffffffffffffffffffff166323b872dd3330856040518463ffffffff1660e01b8152600401611524939291906155d0565b602060405180830381600087803b15801561153e57600080fd5b505af1158015611552573d6000803e3d6000fd5b505050506040513d601f19601f820116820180604052508101906115769190614b2a565b6115b5576040517f08c379a00000000000000000000000000000000000000000000000000000000081526004016115ac90615923565b60405180910390fd5b61164482600f60008673ffffffffffffffffffffffffffffffffffffffff1673ffffffffffffffffffffffffffffffffffffffff16815260200190815260200160002060003373ffffffffffffffffffffffffffffffffffffffff1673ffffffffffffffffffffffffffffffffffffffff1681526020019081526020016000205461473090919063ffffffff16565b600f60008573ffffffffffffffffffffffffffffffffffffffff1673ffffffffffffffffffffffffffffffffffffffff16815260200190815260200160002060003373ffffffffffffffffffffffffffffffffffffffff1673ffffffffffffffffffffffffffffffffffffffff1681526020019081526020016000208190555061171682601060003373ffffffffffffffffffffffffffffffffffffffff1673ffffffffffffffffffffffffffffffffffffffff1681526020019081526020016000205461473090919063ffffffff16565b601060003373ffffffffffffffffffffffffffffffffffffffff1673ffffffffffffffffffffffffffffffffffffffff1681526020019081526020016000208190555061176f600160075461473090919063ffffffff16565b600781905550600f60008473ffffffffffffffffffffffffffffffffffffffff1673ffffffffffffffffffffffffffffffffffffffff16815260200190815260200160002060003373ffffffffffffffffffffffffffffffffffffffff1673ffffffffffffffffffffffffffffffffffffffff168152602001908152602001600020543373ffffffffffffffffffffffffffffffffffffffff167f5548c837ab068cf56a2c2479df0882a4922fd203edb7517321831d95078c5f623060405161183891906155b5565b60405180910390a3505050565b6014818154811061185557600080fd5b90600052602060002090600d02016000915090508060000154908060010160009054906101000a900473ffffffffffffffffffffffffffffffffffffffff16908060020180546118a490615d40565b80601f01602080910402602001604051908101604052809291908181526020018280546118d090615d40565b801561191d5780601f106118f25761010080835404028352916020019161191d565b820191906000526020600020905b81548152906001019060200180831161190057829003601f168201915b50505050509080600301604051806101400160405290816000820160009054906101000a900473ffffffffffffffffffffffffffffffffffffffff1673ffffffffffffffffffffffffffffffffffffffff1673ffffffffffffffffffffffffffffffffffffffff1681526020016001820154815260200160028201548152602001600382015481526020016004820154815260200160058201548152602001600682015481526020016007820180546119d590615d40565b80601f0160208091040260200160405190810160405280929190818152602001828054611a0190615d40565b8015611a4e5780601f10611a2357610100808354040283529160200191611a4e565b820191906000526020600020905b815481529060010190602001808311611a3157829003601f168201915b50505050508152602001600882015481526020016009820160009054906101000a900460ff161515151581525050905084565b600a60009054906101000a900473ffffffffffffffffffffffffffffffffffffffff1681565b600c5481565b6000600f60008373ffffffffffffffffffffffffffffffffffffffff1673ffffffffffffffffffffffffffffffffffffffff16815260200190815260200160002060003373ffffffffffffffffffffffffffffffffffffffff1673ffffffffffffffffffffffffffffffffffffffff168152602001908152602001600020541015611b6d576040517f08c379a0000000000000000000000000000000000000000000000000000000008152600401611b64906158e3565b60405180910390fd5b600073ffffffffffffffffffffffffffffffffffffffff168173ffffffffffffffffffffffffffffffffffffffff161415611ba757600080fd5b6000600e60003373ffffffffffffffffffffffffffffffffffffffff1673ffffffffffffffffffffffffffffffffffffffff16815260200190815260200160002090506000611c8f6014611c816064600f60008873ffffffffffffffffffffffffffffffffffffffff1673ffffffffffffffffffffffffffffffffffffffff16815260200190815260200160002060003373ffffffffffffffffffffffffffffffffffffffff1673ffffffffffffffffffffffffffffffffffffffff1681526020019081526020016000205461470490919063ffffffff16565b61476490919063ffffffff16565b9050611d2081600f60008673ffffffffffffffffffffffffffffffffffffffff1673ffffffffffffffffffffffffffffffffffffffff16815260200190815260200160002060003073ffffffffffffffffffffffffffffffffffffffff1673ffffffffffffffffffffffffffffffffffffffff1681526020019081526020016000205461473090919063ffffffff16565b600f60008573ffffffffffffffffffffffffffffffffffffffff1673ffffffffffffffffffffffffffffffffffffffff16815260200190815260200160002060003073ffffffffffffffffffffffffffffffffffffffff1673ffffffffffffffffffffffffffffffffffffffff16815260200190815260200160002081905550600080601060003373ffffffffffffffffffffffffffffffffffffffff1673ffffffffffffffffffffffffffffffffffffffff16815260200190815260200160002054111561222d57611ec9601060003373ffffffffffffffffffffffffffffffffffffffff1673ffffffffffffffffffffffffffffffffffffffff16815260200190815260200160002054611ebb84600f60008973ffffffffffffffffffffffffffffffffffffffff1673ffffffffffffffffffffffffffffffffffffffff16815260200190815260200160002060003373ffffffffffffffffffffffffffffffffffffffff1673ffffffffffffffffffffffffffffffffffffffff1681526020019081526020016000205461474690919063ffffffff16565b61473090919063ffffffff16565b9050611f5c601060003373ffffffffffffffffffffffffffffffffffffffff1673ffffffffffffffffffffffffffffffffffffffff16815260200190815260200160002054601060003373ffffffffffffffffffffffffffffffffffffffff1673ffffffffffffffffffffffffffffffffffffffff1681526020019081526020016000205461474690919063ffffffff16565b601060003373ffffffffffffffffffffffffffffffffffffffff1673ffffffffffffffffffffffffffffffffffffffff168152602001908152602001600020819055506120aa600f60008673ffffffffffffffffffffffffffffffffffffffff1673ffffffffffffffffffffffffffffffffffffffff16815260200190815260200160002060003373ffffffffffffffffffffffffffffffffffffffff1673ffffffffffffffffffffffffffffffffffffffff16815260200190815260200160002054600f60008773ffffffffffffffffffffffffffffffffffffffff1673ffffffffffffffffffffffffffffffffffffffff16815260200190815260200160002060003373ffffffffffffffffffffffffffffffffffffffff1673ffffffffffffffffffffffffffffffffffffffff1681526020019081526020016000205461474690919063ffffffff16565b600f60008673ffffffffffffffffffffffffffffffffffffffff1673ffffffffffffffffffffffffffffffffffffffff16815260200190815260200160002060003373ffffffffffffffffffffffffffffffffffffffff1673ffffffffffffffffffffffffffffffffffffffff168152602001908152602001600020819055508373ffffffffffffffffffffffffffffffffffffffff1663a9059cbb33836040518363ffffffff1660e01b8152600401612165929190615645565b602060405180830381600087803b15801561217f57600080fd5b505af1158015612193573d6000803e3d6000fd5b505050506040513d601f19601f820116820180604052508101906121b79190614b2a565b6121c057600080fd5b60008360030160090160006101000a81548160ff021916908315150217905550600083600301600601819055507f9b1bfa7fa9ee420a16e124f794c35ac9f90472acc99140eb2f6447c714cad8eb303383604051612220939291906155d0565b60405180910390a1612548565b6122bc82600f60008773ffffffffffffffffffffffffffffffffffffffff1673ffffffffffffffffffffffffffffffffffffffff16815260200190815260200160002060003373ffffffffffffffffffffffffffffffffffffffff1673ffffffffffffffffffffffffffffffffffffffff1681526020019081526020016000205461474690919063ffffffff16565b90506123c9600f60008673ffffffffffffffffffffffffffffffffffffffff1673ffffffffffffffffffffffffffffffffffffffff16815260200190815260200160002060003373ffffffffffffffffffffffffffffffffffffffff1673ffffffffffffffffffffffffffffffffffffffff16815260200190815260200160002054600f60008773ffffffffffffffffffffffffffffffffffffffff1673ffffffffffffffffffffffffffffffffffffffff16815260200190815260200160002060003373ffffffffffffffffffffffffffffffffffffffff1673ffffffffffffffffffffffffffffffffffffffff1681526020019081526020016000205461474690919063ffffffff16565b600f60008673ffffffffffffffffffffffffffffffffffffffff1673ffffffffffffffffffffffffffffffffffffffff16815260200190815260200160002060003373ffffffffffffffffffffffffffffffffffffffff1673ffffffffffffffffffffffffffffffffffffffff168152602001908152602001600020819055508373ffffffffffffffffffffffffffffffffffffffff1663a9059cbb33836040518363ffffffff1660e01b8152600401612484929190615645565b602060405180830381600087803b15801561249e57600080fd5b505af11580156124b2573d6000803e3d6000fd5b505050506040513d601f19601f820116820180604052508101906124d69190614b2a565b6124df57600080fd5b60008360030160090160006101000a81548160ff021916908315150217905550600083600301600601819055507f9b1bfa7fa9ee420a16e124f794c35ac9f90472acc99140eb2f6447c714cad8eb30338360405161253f939291906155d0565b60405180910390a15b50505050565b600e6020528060005260406000206000915090508060000154908060010160009054906101000a900473ffffffffffffffffffffffffffffffffffffffff169080600201805461259d90615d40565b80601f01602080910402602001604051908101604052809291908181526020018280546125c990615d40565b80156126165780601f106125eb57610100808354040283529160200191612616565b820191906000526020600020905b8154815290600101906020018083116125f957829003601f168201915b50505050509080600301604051806101400160405290816000820160009054906101000a900473ffffffffffffffffffffffffffffffffffffffff1673ffffffffffffffffffffffffffffffffffffffff1673ffffffffffffffffffffffffffffffffffffffff1681526020016001820154815260200160028201548152602001600382015481526020016004820154815260200160058201548152602001600682015481526020016007820180546126ce90615d40565b80601f01602080910402602001604051908101604052809291908181526020018280546126fa90615d40565b80156127475780601f1061271c57610100808354040283529160200191612747565b820191906000526020600020905b81548152906001019060200180831161272a57829003601f168201915b50505050508152602001600882015481526020016009820160009054906101000a900460ff161515151581525050905084565b6000600160009054906101000a900460ff16905090565b600260009054906101000a900473ffffffffffffffffffffffffffffffffffffffff1681565b60116020528060005260406000206000915090505481565b6127d761475c565b73ffffffffffffffffffffffffffffffffffffffff166127f56131c7565b73ffffffffffffffffffffffffffffffffffffffff161461284b576040517f08c379a000000000000000000000000000000000000000000000000000000000815260040161284290615883565b60405180910390fd5b612855600061477a565b565b6002600054141561289d576040517f08c379a000000000000000000000000000000000000000000000000000000000815260040161289490615983565b60405180910390fd5b60026000819055506128ad61277a565b156128ed576040517f08c379a00000000000000000000000000000000000000000000000000000000081526004016128e4906157a3565b60405180910390fd5b6000600f60008373ffffffffffffffffffffffffffffffffffffffff1673ffffffffffffffffffffffffffffffffffffffff16815260200190815260200160002060003373ffffffffffffffffffffffffffffffffffffffff1673ffffffffffffffffffffffffffffffffffffffff16815260200190815260200160002054116129ac576040517f08c379a00000000000000000000000000000000000000000000000000000000081526004016129a3906157c3565b60405180910390fd5b600073ffffffffffffffffffffffffffffffffffffffff168173ffffffffffffffffffffffffffffffffffffffff1614156129e657600080fd5b6000600e60003373ffffffffffffffffffffffffffffffffffffffff1673ffffffffffffffffffffffffffffffffffffffff168152602001908152602001600020905080600301600601544211612a72576040517f08c379a0000000000000000000000000000000000000000000000000000000008152600401612a6990615903565b60405180910390fd5b6000601060003373ffffffffffffffffffffffffffffffffffffffff1673ffffffffffffffffffffffffffffffffffffffff168152602001908152602001600020541115612fc4578173ffffffffffffffffffffffffffffffffffffffff1663a9059cbb33601060003373ffffffffffffffffffffffffffffffffffffffff1673ffffffffffffffffffffffffffffffffffffffff168152602001908152602001600020546040518363ffffffff1660e01b8152600401612b34929190615645565b602060405180830381600087803b158015612b4e57600080fd5b505af1158015612b62573d6000803e3d6000fd5b505050506040513d601f19601f82011682018060405250810190612b869190614b2a565b612b8f57600080fd5b6000612c5f601060003373ffffffffffffffffffffffffffffffffffffffff1673ffffffffffffffffffffffffffffffffffffffff16815260200190815260200160002054600f60008673ffffffffffffffffffffffffffffffffffffffff1673ffffffffffffffffffffffffffffffffffffffff16815260200190815260200160002060003373ffffffffffffffffffffffffffffffffffffffff1673ffffffffffffffffffffffffffffffffffffffff1681526020019081526020016000205461474690919063ffffffff16565b9050612cf2601060003373ffffffffffffffffffffffffffffffffffffffff1673ffffffffffffffffffffffffffffffffffffffff16815260200190815260200160002054601060003373ffffffffffffffffffffffffffffffffffffffff1673ffffffffffffffffffffffffffffffffffffffff1681526020019081526020016000205461474690919063ffffffff16565b601060003373ffffffffffffffffffffffffffffffffffffffff1673ffffffffffffffffffffffffffffffffffffffff16815260200190815260200160002081905550612e40600f60008573ffffffffffffffffffffffffffffffffffffffff1673ffffffffffffffffffffffffffffffffffffffff16815260200190815260200160002060003373ffffffffffffffffffffffffffffffffffffffff1673ffffffffffffffffffffffffffffffffffffffff16815260200190815260200160002054600f60008673ffffffffffffffffffffffffffffffffffffffff1673ffffffffffffffffffffffffffffffffffffffff16815260200190815260200160002060003373ffffffffffffffffffffffffffffffffffffffff1673ffffffffffffffffffffffffffffffffffffffff1681526020019081526020016000205461474690919063ffffffff16565b600f60008573ffffffffffffffffffffffffffffffffffffffff1673ffffffffffffffffffffffffffffffffffffffff16815260200190815260200160002060003373ffffffffffffffffffffffffffffffffffffffff1673ffffffffffffffffffffffffffffffffffffffff168152602001908152602001600020819055508273ffffffffffffffffffffffffffffffffffffffff1663a9059cbb33836040518363ffffffff1660e01b8152600401612efb929190615645565b602060405180830381600087803b158015612f1557600080fd5b505af1158015612f29573d6000803e3d6000fd5b505050506040513d601f19601f82011682018060405250810190612f4d9190614b2a565b612f5657600080fd5b60008260030160090160006101000a81548160ff021916908315150217905550600082600301600601819055507f9b1bfa7fa9ee420a16e124f794c35ac9f90472acc99140eb2f6447c714cad8eb303383604051612fb6939291906155d0565b60405180910390a1506131bb565b8173ffffffffffffffffffffffffffffffffffffffff1663a9059cbb33600f60008673ffffffffffffffffffffffffffffffffffffffff1673ffffffffffffffffffffffffffffffffffffffff16815260200190815260200160002060003373ffffffffffffffffffffffffffffffffffffffff1673ffffffffffffffffffffffffffffffffffffffff168152602001908152602001600020546040518363ffffffff1660e01b815260040161307b929190615645565b602060405180830381600087803b15801561309557600080fd5b505af11580156130a9573d6000803e3d6000fd5b505050506040513d601f19601f820116820180604052508101906130cd9190614b2a565b6130d657600080fd5b60008160030160090160006101000a81548160ff021916908315150217905550600081600301600601819055507f9b1bfa7fa9ee420a16e124f794c35ac9f90472acc99140eb2f6447c714cad8eb3033600f60008673ffffffffffffffffffffffffffffffffffffffff1673ffffffffffffffffffffffffffffffffffffffff16815260200190815260200160002060003373ffffffffffffffffffffffffffffffffffffffff1673ffffffffffffffffffffffffffffffffffffffff168152602001908152602001600020546040516131b2939291906155d0565b60405180910390a15b50600160008190555050565b600060018054906101000a900473ffffffffffffffffffffffffffffffffffffffff16905090565b601260003373ffffffffffffffffffffffffffffffffffffffff1673ffffffffffffffffffffffffffffffffffffffff16815260200190815260200160002060009054906101000a900460ff1661327b576040517f08c379a0000000000000000000000000000000000000000000000000000000008152600401613272906156f5565b60405180910390fd5b6000600e60003373ffffffffffffffffffffffffffffffffffffffff1673ffffffffffffffffffffffffffffffffffffffff16815260200190815260200160002090506000816003016006018190555050565b600080600e60003373ffffffffffffffffffffffffffffffffffffffff1673ffffffffffffffffffffffffffffffffffffffff168152602001908152602001600020604051806080016040529081600082015481526020016001820160009054906101000a900473ffffffffffffffffffffffffffffffffffffffff1673ffffffffffffffffffffffffffffffffffffffff1673ffffffffffffffffffffffffffffffffffffffff16815260200160028201805461338b90615d40565b80601f01602080910402602001604051908101604052809291908181526020018280546133b790615d40565b80156134045780601f106133d957610100808354040283529160200191613404565b820191906000526020600020905b8154815290600101906020018083116133e757829003601f168201915b5050505050815260200160038201604051806101400160405290816000820160009054906101000a900473ffffffffffffffffffffffffffffffffffffffff1673ffffffffffffffffffffffffffffffffffffffff1673ffffffffffffffffffffffffffffffffffffffff1681526020016001820154815260200160028201548152602001600382015481526020016004820154815260200160058201548152602001600682015481526020016007820180546134c090615d40565b80601f01602080910402602001604051908101604052809291908181526020018280546134ec90615d40565b80156135395780601f1061350e57610100808354040283529160200191613539565b820191906000526020600020905b81548152906001019060200180831161351c57829003601f168201915b50505050508152602001600882015481526020016009820160009054906101000a900460ff161515151581525050815250509050601260003373ffffffffffffffffffffffffffffffffffffffff1673ffffffffffffffffffffffffffffffffffffffff16815260200190815260200160002060009054906101000a900460ff166135f9576040517f08c379a00000000000000000000000000000000000000000000000000000000081526004016135f090615843565b60405180910390fd5b6000816060015160000151905060008173ffffffffffffffffffffffffffffffffffffffff1663ae9d70b06040518163ffffffff1660e01b815260040160206040518083038186803b15801561364e57600080fd5b505afa158015613662573d6000803e3d6000fd5b505050506040513d601f19601f820116820180604052508101906136869190614bbd565b9050600061371982600f60008973ffffffffffffffffffffffffffffffffffffffff1673ffffffffffffffffffffffffffffffffffffffff16815260200190815260200160002060003373ffffffffffffffffffffffffffffffffffffffff1673ffffffffffffffffffffffffffffffffffffffff1681526020019081526020016000205461476490919063ffffffff16565b905080945050505050919050565b60126020528060005260406000206000915054906101000a900460ff1681565b60136020528060005260406000206000915054906101000a900460ff1681565b8284116137a9576040517f08c379a00000000000000000000000000000000000000000000000000000000081526004016137a090615963565b60405180910390fd5b600083116137ec576040517f08c379a00000000000000000000000000000000000000000000000000000000081526004016137e3906158c3565b60405180910390fd5b601260003373ffffffffffffffffffffffffffffffffffffffff1673ffffffffffffffffffffffffffffffffffffffff16815260200190815260200160002060009054906101000a900460ff16613878576040517f08c379a000000000000000000000000000000000000000000000000000000000815260040161386f90615863565b60405180910390fd5b6000600e60003373ffffffffffffffffffffffffffffffffffffffff1673ffffffffffffffffffffffffffffffffffffffff16815260200190815260200160002090506000816003016006015414613905576040517f08c379a00000000000000000000000000000000000000000000000000000000081526004016138fc90615823565b60405180910390fd5b868160030160000160006101000a81548173ffffffffffffffffffffffffffffffffffffffff021916908373ffffffffffffffffffffffffffffffffffffffff16021790555061395e824261473090919063ffffffff16565b816003016006018190555061397c834261473090919063ffffffff16565b8160030160050181905550858160030160070190805190602001906139a292919061484b565b5084816003016003018190555083816003016002018190555060018160030160090160006101000a81548160ff0219169083151502179055507f0a342f2e207c3c328a10158ad0b71a9e64a10e319c5d635be24f8c7e418ea6e433826003016007018360030160060154604051613a1b93929190615607565b60405180910390a150505050505050565b600060026000541415613a74576040517f08c379a0000000000000000000000000000000000000000000000000000000008152600401613a6b90615983565b60405180910390fd5b6002600081905550601260003373ffffffffffffffffffffffffffffffffffffffff1673ffffffffffffffffffffffffffffffffffffffff16815260200190815260200160002060009054906101000a900460ff16613b08576040517f08c379a0000000000000000000000000000000000000000000000000000000008152600401613aff90615843565b60405180910390fd5b6000601160003373ffffffffffffffffffffffffffffffffffffffff1673ffffffffffffffffffffffffffffffffffffffff1681526020019081526020016000205411613b8a576040517f08c379a0000000000000000000000000000000000000000000000000000000008152600401613b81906159a3565b60405180910390fd5b6000600e60003373ffffffffffffffffffffffffffffffffffffffff1673ffffffffffffffffffffffffffffffffffffffff168152602001908152602001600020604051806080016040529081600082015481526020016001820160009054906101000a900473ffffffffffffffffffffffffffffffffffffffff1673ffffffffffffffffffffffffffffffffffffffff1673ffffffffffffffffffffffffffffffffffffffff168152602001600282018054613c4690615d40565b80601f0160208091040260200160405190810160405280929190818152602001828054613c7290615d40565b8015613cbf5780601f10613c9457610100808354040283529160200191613cbf565b820191906000526020600020905b815481529060010190602001808311613ca257829003601f168201915b5050505050815260200160038201604051806101400160405290816000820160009054906101000a900473ffffffffffffffffffffffffffffffffffffffff1673ffffffffffffffffffffffffffffffffffffffff1673ffffffffffffffffffffffffffffffffffffffff168152602001600182015481526020016002820154815260200160038201548152602001600482015481526020016005820154815260200160068201548152602001600782018054613d7b90615d40565b80601f0160208091040260200160405190810160405280929190818152602001828054613da790615d40565b8015613df45780601f10613dc957610100808354040283529160200191613df4565b820191906000526020600020905b815481529060010190602001808311613dd757829003601f168201915b50505050508152602001600882015481526020016009820160009054906101000a900460ff161515151581525050815250509050806060015160c001514211613e72576040517f08c379a0000000000000000000000000000000000000000000000000000000008152600401613e6990615903565b60405180910390fd5b600083905060008173ffffffffffffffffffffffffffffffffffffffff1663852a12e3601160003373ffffffffffffffffffffffffffffffffffffffff1673ffffffffffffffffffffffffffffffffffffffff168152602001908152602001600020546040518263ffffffff1660e01b8152600401613ef191906159e3565b602060405180830381600087803b158015613f0b57600080fd5b505af1158015613f1f573d6000803e3d6000fd5b505050506040513d601f19601f82011682018060405250810190613f439190614bbd565b90506001601360003373ffffffffffffffffffffffffffffffffffffffff1673ffffffffffffffffffffffffffffffffffffffff16815260200190815260200160002060006101000a81548160ff02191690831515021790555061402e601160003373ffffffffffffffffffffffffffffffffffffffff1673ffffffffffffffffffffffffffffffffffffffff16815260200190815260200160002054601160003373ffffffffffffffffffffffffffffffffffffffff1673ffffffffffffffffffffffffffffffffffffffff1681526020019081526020016000205461474690919063ffffffff16565b601160003373ffffffffffffffffffffffffffffffffffffffff1673ffffffffffffffffffffffffffffffffffffffff168152602001908152602001600020819055507f603e4c2c8c15da5a0be62bd1c07839013be08e4b28a49d0ab0224958a2feb651816040516140a09190615735565b60405180910390a1600193505050506001600081905550919050565b601260003373ffffffffffffffffffffffffffffffffffffffff1673ffffffffffffffffffffffffffffffffffffffff16815260200190815260200160002060009054906101000a900460ff1615614149576040517f08c379a000000000000000000000000000000000000000000000000000000000815260040161414090615783565b60405180910390fd5b6000604051806101400160405280600073ffffffffffffffffffffffffffffffffffffffff1681526020016000815260200160008152602001600081526020014281526020016000815260200160008152602001604051806020016040528060008152508152602001438152602001600015158152509050600060405180608001604052806141d8600461483d565b81526020013373ffffffffffffffffffffffffffffffffffffffff16815260200184815260200183815250905080600e60003373ffffffffffffffffffffffffffffffffffffffff1673ffffffffffffffffffffffffffffffffffffffff1681526020019081526020016000206000820151816000015560208201518160010160006101000a81548173ffffffffffffffffffffffffffffffffffffffff021916908373ffffffffffffffffffffffffffffffffffffffff16021790555060408201518160020190805190602001906142b292919061484b565b5060608201518160030160008201518160000160006101000a81548173ffffffffffffffffffffffffffffffffffffffff021916908373ffffffffffffffffffffffffffffffffffffffff1602179055506020820151816001015560408201518160020155606082015181600301556080820151816004015560a0820151816005015560c0820151816006015560e082015181600701908051906020019061435b92919061484b565b5061010082015181600801556101208201518160090160006101000a81548160ff021916908315150217905550505090505060148190806001815401808255809150506001900390600052602060002090600d02016000909190919091506000820151816000015560208201518160010160006101000a81548173ffffffffffffffffffffffffffffffffffffffff021916908373ffffffffffffffffffffffffffffffffffffffff160217905550604082015181600201908051906020019061442692919061484b565b5060608201518160030160008201518160000160006101000a81548173ffffffffffffffffffffffffffffffffffffffff021916908373ffffffffffffffffffffffffffffffffffffffff1602179055506020820151816001015560408201518160020155606082015181600301556080820151816004015560a0820151816005015560c0820151816006015560e08201518160070190805190602001906144cf92919061484b565b5061010082015181600801556101208201518160090160006101000a81548160ff021916908315150217905550505050506001601260003373ffffffffffffffffffffffffffffffffffffffff1673ffffffffffffffffffffffffffffffffffffffff16815260200190815260200160002060006101000a81548160ff021916908315150217905550614562600461471a565b82604051614570919061559e565b60405180910390203373ffffffffffffffffffffffffffffffffffffffff167f6ba0831d2f62ae5cbf7214bcc1d79c5da1d705f12811efda0beaa840006f874e60405160405180910390a3505050565b6145c861475c565b73ffffffffffffffffffffffffffffffffffffffff166145e66131c7565b73ffffffffffffffffffffffffffffffffffffffff161461463c576040517f08c379a000000000000000000000000000000000000000000000000000000000815260040161463390615883565b60405180910390fd5b600073ffffffffffffffffffffffffffffffffffffffff168173ffffffffffffffffffffffffffffffffffffffff1614156146ac576040517f08c379a00000000000000000000000000000000000000000000000000000000081526004016146a390615715565b60405180910390fd5b6146b58161477a565b50565b600860009054906101000a900473ffffffffffffffffffffffffffffffffffffffff1681565b600b60009054906101000a900473ffffffffffffffffffffffffffffffffffffffff1681565b600081836147129190615b55565b905092915050565b6001816000016000828254019250508190555050565b6000818361473e9190615aff565b905092915050565b600081836147549190615be0565b905092915050565b600033905090565b600081836147729190615b86565b905092915050565b600060018054906101000a900473ffffffffffffffffffffffffffffffffffffffff169050816001806101000a81548173ffffffffffffffffffffffffffffffffffffffff021916908373ffffffffffffffffffffffffffffffffffffffff1602179055508173ffffffffffffffffffffffffffffffffffffffff168173ffffffffffffffffffffffffffffffffffffffff167f8be0079c531659141344cd1fd0a4f28419497f9722a3daafe3b4186f6b6457e060405160405180910390a35050565b600081600001549050919050565b82805461485790615d40565b90600052602060002090601f01602090048101928261487957600085556148c0565b82601f1061489257805160ff19168380011785556148c0565b828001600101855582156148c0579182015b828111156148bf5782518255916020019190600101906148a4565b5b5090506148cd91906148d1565b5090565b5b808211156148ea5760008160009055506001016148d2565b5090565b60006149016148fc84615a82565b615a51565b90508281526020810184848401111561491957600080fd5b614924848285615cfe565b509392505050565b60008135905061493b81615e3f565b92915050565b60008151905061495081615e3f565b92915050565b60008151905061496581615e56565b92915050565b600082601f83011261497c57600080fd5b813561498c8482602086016148ee565b91505092915050565b6000813590506149a481615e6d565b92915050565b6000815190506149b981615e6d565b92915050565b6000602082840312156149d157600080fd5b60006149df8482850161492c565b91505092915050565b6000602082840312156149fa57600080fd5b6000614a0884828501614941565b91505092915050565b60008060408385031215614a2457600080fd5b6000614a328582860161492c565b9250506020614a438582860161492c565b9150509250929050565b60008060008060008060c08789031215614a6657600080fd5b6000614a7489828a0161492c565b965050602087013567ffffffffffffffff811115614a9157600080fd5b614a9d89828a0161496b565b9550506040614aae89828a01614995565b9450506060614abf89828a01614995565b9350506080614ad089828a01614995565b92505060a0614ae189828a01614995565b9150509295509295509295565b60008060408385031215614b0157600080fd5b6000614b0f8582860161492c565b9250506020614b2085828601614995565b9150509250929050565b600060208284031215614b3c57600080fd5b6000614b4a84828501614956565b91505092915050565b600060208284031215614b6557600080fd5b600082013567ffffffffffffffff811115614b7f57600080fd5b614b8b8482850161496b565b91505092915050565b600060208284031215614ba657600080fd5b6000614bb484828501614995565b91505092915050565b600060208284031215614bcf57600080fd5b6000614bdd848285016149aa565b91505092915050565b614bef81615c26565b82525050565b614bfe81615c14565b82525050565b614c0d81615c14565b82525050565b614c1c81615c38565b82525050565b614c2b81615c38565b82525050565b614c3a81615c6e565b82525050565b614c4981615c92565b82525050565b614c5881615cb6565b82525050565b614c6781615cda565b82525050565b6000614c7882615ac7565b614c828185615ad2565b9350614c92818560208601615d0d565b614c9b81615e2e565b840191505092915050565b6000614cb182615ac7565b614cbb8185615ae3565b9350614ccb818560208601615d0d565b614cd481615e2e565b840191505092915050565b6000614cea82615ac7565b614cf48185615af4565b9350614d04818560208601615d0d565b80840191505092915050565b60008154614d1d81615d40565b614d278186615ae3565b94506001821660008114614d425760018114614d5457614d87565b60ff1983168652602086019350614d87565b614d5d85615ab2565b60005b83811015614d7f57815481890152600182019150602081019050614d60565b808801955050505b50505092915050565b6000614d9d601883615ae3565b91507f63616c6c6572206973206e6f74207265676973746572656400000000000000006000830152602082019050919050565b6000614ddd602683615ae3565b91507f4f776e61626c653a206e6577206f776e657220697320746865207a65726f206160008301527f64647265737300000000000000000000000000000000000000000000000000006020830152604082019050919050565b6000614e43602483615ae3565b91507f49662074686973206973206e6f7420302c2074686572652077617320616e206560008301527f72726f72000000000000000000000000000000000000000000000000000000006020830152604082019050919050565b6000614ea9603483615ae3565b91507f63546f6b656e236d696e742829206661696c65642e2073656520436f6d706f7560008301527f6e64204572726f725265706f727465722e736f6c0000000000000000000000006020830152604082019050919050565b6000614f0f601d83615ae3565b91507f43616c6c6572206164647265737320616c7265616479206578697374730000006000830152602082019050919050565b6000614f4f601083615ae3565b91507f5061757361626c653a20706175736564000000000000000000000000000000006000830152602082019050919050565b6000614f8f602783615ae3565b91507f596f752068617665206e6f2066756e647320617661696c61626c6520746f207760008301527f69746864726177000000000000000000000000000000000000000000000000006020830152604082019050919050565b6000614ff5601283615ae3565b91507f43616c6c657220686173206e6f20706c616e00000000000000000000000000006000830152602082019050919050565b6000615035604e83615ae3565b91507f596f752068617665206578656365656465642074686520617070726f7665642060008301527f616d6f756e7420666f72207468697320706c616e2c20706c65617365206d616b60208301527f6520616e6f7468657220706c616e0000000000000000000000000000000000006040830152606082019050919050565b60006150c1602283615ae3565b91507f43616c6c657220616c7265616479206861732061206c6f636b2054696d65205360008301527f65740000000000000000000000000000000000000000000000000000000000006020830152604082019050919050565b6000615127601583615ae3565b91507f43616c6c6572206e6f74207265676973746572656400000000000000000000006000830152602082019050919050565b6000615167601b83615ae3565b91507f43616c6c65722068617320746f206265205265676973746572656400000000006000830152602082019050919050565b60006151a7602083615ae3565b91507f4f776e61626c653a2063616c6c6572206973206e6f7420746865206f776e65726000830152602082019050919050565b60006151e7601283615ae3565b91507f416d6f756e742063616e6e6f74206265203000000000000000000000000000006000830152602082019050919050565b6000615227602083615ae3565b91507f617070726f766520616e20616d6f756e742067726561746572207468616e20306000830152602082019050919050565b6000615267601c83615ae3565b91507f596f752063616e6e6f74207769746864726177203020616d6f756e74000000006000830152602082019050919050565b60006152a7602f83615ae3565b91507f556e61626c6520746f207769746864726177206265666f726520796f7572206c60008301527f6f636b74696d65206578706972657300000000000000000000000000000000006020830152604082019050919050565b600061530d601283615ae3565b91507f4465706f73697420686173206661696c656400000000000000000000000000006000830152602082019050919050565b600061534d601883615ae3565b91507f43616e6e6f74207769746864726177203020616d6f756e7400000000000000006000830152602082019050919050565b600061538d602f83615ae3565b91507f53657420616e20616d6f756e742067726561746572207468616e20746865207260008301527f6563757272696e6720616d6f756e7400000000000000000000000000000000006020830152604082019050919050565b60006153f3601f83615ae3565b91507f5265656e7472616e637947756172643a207265656e7472616e742063616c6c006000830152602082019050919050565b6000615433601d83615ae3565b91507f43616c6c657220686173206e6f7420737570706c6965642066756e64730000006000830152602082019050919050565b6000615473601283615ae3565b91507f4164647265737320697320696e76616c696400000000000000000000000000006000830152602082019050919050565b6000610140830160008301516154bf6000860182614bf5565b5060208301516154d26020860182615580565b5060408301516154e56040860182615580565b5060608301516154f86060860182615580565b50608083015161550b6080860182615580565b5060a083015161551e60a0860182615580565b5060c083015161553160c0860182615580565b5060e083015184820360e08601526155498282614c6d565b915050610100830151615560610100860182615580565b50610120830151615575610120860182614c13565b508091505092915050565b61558981615c64565b82525050565b61559881615c64565b82525050565b60006155aa8284614cdf565b915081905092915050565b60006020820190506155ca6000830184614c04565b92915050565b60006060820190506155e56000830186614c04565b6155f26020830185614c04565b6155ff604083018461558f565b949350505050565b600060608201905061561c6000830186614c04565b818103602083015261562e8185614d10565b905061563d604083018461558f565b949350505050565b600060408201905061565a6000830185614c04565b615667602083018461558f565b9392505050565b60006020820190506156836000830184614c22565b92915050565b600060208201905061569e6000830184614c31565b92915050565b60006020820190506156b96000830184614c40565b92915050565b60006020820190506156d46000830184614c4f565b92915050565b60006020820190506156ef6000830184614c5e565b92915050565b6000602082019050818103600083015261570e81614d90565b9050919050565b6000602082019050818103600083015261572e81614dd0565b9050919050565b6000604082019050818103600083015261574e81614e36565b905061575d602083018461558f565b92915050565b6000602082019050818103600083015261577c81614e9c565b9050919050565b6000602082019050818103600083015261579c81614f02565b9050919050565b600060208201905081810360008301526157bc81614f42565b9050919050565b600060208201905081810360008301526157dc81614f82565b9050919050565b600060208201905081810360008301526157fc81614fe8565b9050919050565b6000602082019050818103600083015261581c81615028565b9050919050565b6000602082019050818103600083015261583c816150b4565b9050919050565b6000602082019050818103600083015261585c8161511a565b9050919050565b6000602082019050818103600083015261587c8161515a565b9050919050565b6000602082019050818103600083015261589c8161519a565b9050919050565b600060208201905081810360008301526158bc816151da565b9050919050565b600060208201905081810360008301526158dc8161521a565b9050919050565b600060208201905081810360008301526158fc8161525a565b9050919050565b6000602082019050818103600083015261591c8161529a565b9050919050565b6000602082019050818103600083015261593c81615300565b9050919050565b6000602082019050818103600083015261595c81615340565b9050919050565b6000602082019050818103600083015261597c81615380565b9050919050565b6000602082019050818103600083015261599c816153e6565b9050919050565b600060208201905081810360008301526159bc81615426565b9050919050565b600060208201905081810360008301526159dc81615466565b9050919050565b60006020820190506159f8600083018461558f565b92915050565b6000608082019050615a13600083018761558f565b615a206020830186614be6565b8181036040830152615a328185614ca6565b90508181036060830152615a4681846154a6565b905095945050505050565b6000604051905081810181811067ffffffffffffffff82111715615a7857615a77615dff565b5b8060405250919050565b600067ffffffffffffffff821115615a9d57615a9c615dff565b5b601f19601f8301169050602081019050919050565b60008190508160005260206000209050919050565b600081519050919050565b600082825260208201905092915050565b600082825260208201905092915050565b600081905092915050565b6000615b0a82615c64565b9150615b1583615c64565b9250827fffffffffffffffffffffffffffffffffffffffffffffffffffffffffffffffff03821115615b4a57615b49615d72565b5b828201905092915050565b6000615b6082615c64565b9150615b6b83615c64565b925082615b7b57615b7a615da1565b5b828204905092915050565b6000615b9182615c64565b9150615b9c83615c64565b9250817fffffffffffffffffffffffffffffffffffffffffffffffffffffffffffffffff0483118215151615615bd557615bd4615d72565b5b828202905092915050565b6000615beb82615c64565b9150615bf683615c64565b925082821015615c0957615c08615d72565b5b828203905092915050565b6000615c1f82615c44565b9050919050565b6000615c3182615c44565b9050919050565b60008115159050919050565b600073ffffffffffffffffffffffffffffffffffffffff82169050919050565b6000819050919050565b6000615c7982615c80565b9050919050565b6000615c8b82615c44565b9050919050565b6000615c9d82615ca4565b9050919050565b6000615caf82615c44565b9050919050565b6000615cc182615cc8565b9050919050565b6000615cd382615c44565b9050919050565b6000615ce582615cec565b9050919050565b6000615cf782615c44565b9050919050565b82818337600083830152505050565b60005b83811015615d2b578082015181840152602081019050615d10565b83811115615d3a576000848401525b50505050565b60006002820490506001821680615d5857607f821691505b60208210811415615d6c57615d6b615dd0565b5b50919050565b7f4e487b7100000000000000000000000000000000000000000000000000000000600052601160045260246000fd5b7f4e487b7100000000000000000000000000000000000000000000000000000000600052601260045260246000fd5b7f4e487b7100000000000000000000000000000000000000000000000000000000600052602260045260246000fd5b7f4e487b7100000000000000000000000000000000000000000000000000000000600052604160045260246000fd5b6000601f19601f8301169050919050565b615e4881615c14565b8114615e5357600080fd5b50565b615e5f81615c38565b8114615e6a57600080fd5b50565b615e7681615c64565b8114615e8157600080fd5b5056fea2646970667358221220a6df59b6301ee52f5fde07e8c4b7ae0fb211c9a3b146893f376e5ef3c0f5159b64736f6c63430008000033",
  "immutableReferences": {},
  "source": "//SPDX-License-Identifier: Unlicense\r\npragma solidity ^0.8.0;\r\n\r\n\r\nimport \"@openzeppelin/contracts/utils/math/SafeMath.sol\";\r\nimport '@openzeppelin/contracts/token/ERC20/IERC20.sol';\r\nimport \"@openzeppelin/contracts/security/Pausable.sol\";\r\nimport \"@openzeppelin/contracts/security/ReentrancyGuard.sol\";\r\nimport \"@openzeppelin/contracts/access/Ownable.sol\";\r\nimport \"@openzeppelin/contracts/utils/Counters.sol\";\r\nimport './CTokenInterface.sol';\r\nimport './ComptrollerInterface.sol';\r\nimport './PriceOracleInterface.sol';\r\nimport \"./XendFinanceInterface.sol\";\r\n\r\n\r\n\r\ncontract Beima is ReentrancyGuard, Pausable, Ownable{\r\n    using SafeMath for uint;\r\n    using Counters for Counters.Counter;\r\n\r\n    // variables\r\n    ComptrollerInterface public comptroller;\r\n\tPriceOracleInterface public priceOracle;\r\n    Counters.Counter private id;\r\n    uint balance;\r\n\r\n    uint accXendTokens;\r\n    uint256 ccInterest;\r\n    XendFinanceInterface public xendFinance;\r\n    IERC20 public xend;\r\n    IERC20 public busd;\r\n    address public admin;\r\n\r\n    uint public lastTimeStamp;\r\n    uint public upKeepInterval;\r\n\r\n\r\n\r\n    \r\n\r\n\r\n\r\n    struct Client {\r\n        address underlyingAsset;\r\n        uint256 depositedAmount;\r\n        uint256 amountToSpend;\r\n        uint256 approvedAmountToSpend;\r\n        uint256 startTime;\r\n        uint256 timeDurationOfdeposit;\r\n        uint256 lockTime;\r\n        string ipfsHashOfUserPensionDetails;\r\n        uint256 userLastRewardBlock;\r\n        bool hasPlan;\r\n    }\r\n\r\n\r\n    // A user Object\r\n    struct User {\r\n        uint256 id;\r\n        address payable userAddress;\r\n        string  userDetails;\r\n        Client client;\r\n\r\n    }\r\n\r\n\r\n\r\n    \r\n\r\n    \r\n\r\n\r\n    event Register(address indexed applicant, string indexed applicantDetails);\r\n    event Withdraw(address from, address to, uint amount);\r\n    event Deposit(address indexed sender, address receiver, uint indexed amountSpent);\r\n    event Upkeep(address sender, bool upkeep);\r\n    event Plan(address user, string planDetails, uint lockTime);\r\n    event Update(uint256 timeDuration);\r\n    event Transfer(address indexed sender, uint amount, address indexed receiver);\r\n    event Supply(address sender, uint amount);\r\n    event Redeem(string, uint256);\r\n\r\n    mapping(address => User) public pensionServiceApplicant;\r\n    address constant ETHER = address(0); // Stores ether in the tokens mapping\r\n\tmapping(address => mapping(address => uint256)) public assets;\r\n    mapping(address => uint) public unsuppliedAmount;\r\n    mapping(address => uint) public stakedBalance;\r\n\r\n    // keep track of registered users\r\n    mapping(address => bool) public isRegistered;\r\n    mapping(address => bool) public hasRedeemed;\r\n\r\n    User[] public users;\r\n\r\n\r\n    constructor(address _xend, address _xendFinanceIndividual_Yearn_V1,  address _comptroller, address _priceOracle, uint _upKeepInterval)  {\r\n        xend = IERC20(_xend);\r\n        comptroller = ComptrollerInterface(_comptroller);\r\n\t\tpriceOracle = PriceOracleInterface(_priceOracle);\r\n        xendFinance = XendFinanceInterface(_xendFinanceIndividual_Yearn_V1);\r\n        ccInterest = uint256(3 ether).div(10); // .3% \r\n        lastTimeStamp = block.timestamp;\r\n        upKeepInterval = _upKeepInterval;\r\n        admin = msg.sender;\r\n\r\n        id.increment();\r\n        \r\n    }\r\n\r\n\r\n    receive() external payable {\r\n        balance = msg.value;\r\n    }\r\n\r\n\r\n\r\n    function register(\r\n        string memory _userDetails\r\n        ) \r\n        public  {\r\n        require(!isRegistered[msg.sender], \"Caller address already exists\");\r\n\r\n        Client memory client = Client({\r\n            underlyingAsset: address(0),\r\n            depositedAmount: 0,\r\n            amountToSpend: 0,\r\n            approvedAmountToSpend: 0,\r\n            startTime: block.timestamp,\r\n            timeDurationOfdeposit: 0,\r\n            lockTime: 0,\r\n            ipfsHashOfUserPensionDetails: \"\",\r\n            userLastRewardBlock: block.number,\r\n            hasPlan: false\r\n        });\r\n\r\n        User memory user = User({\r\n            id: id.current(),\r\n            userAddress: payable(msg.sender),\r\n            userDetails: _userDetails,\r\n            client: client\r\n        });\r\n\r\n       \r\n\r\n        pensionServiceApplicant[msg.sender] = user;\r\n        users.push(user);\r\n        isRegistered[msg.sender] = true;\r\n\r\n        id.increment();\r\n\r\n        emit Register(msg.sender, _userDetails);\r\n    }\r\n\r\n\r\n    function depositToken (address _asset, uint _amount)public {\r\n        User memory user = pensionServiceApplicant[msg.sender];\r\n        require(user.client.approvedAmountToSpend >= user.client.amountToSpend, \"You have execeeded the approved amount for this plan, please make another plan\");\r\n        require(isRegistered[msg.sender], \"Caller not registered\");\r\n        require(user.client.hasPlan, \"Caller has no plan\");\r\n\t\trequire(_asset != ETHER, \"Address is invalid\");\r\n\t\trequire(IERC20(_asset).transferFrom(msg.sender, address(this), _amount), \"Deposit has failed\");\r\n\t\tassets[_asset][msg.sender] = assets[_asset][msg.sender].add(_amount);\r\n        unsuppliedAmount[msg.sender] = unsuppliedAmount[msg.sender].add(_amount);\r\n        // user.client.approvedAmountToSpend = user.client.approvedAmountToSpend.sub(_amount);\r\n        ccInterest = ccInterest.add(1);\r\n\t\temit Deposit (msg.sender, address(this), assets[_asset][msg.sender]);\r\n\t}\r\n\r\n\r\n\r\n    function withdrawToken(address _asset) public nonReentrant() whenNotPaused() {\r\n        // require(hasRedeemed[msg.sender], \"Funds need to be redeemed before withdraw\");\r\n\t\trequire(assets[_asset][msg.sender] > 0, \"You have no funds available to withdraw\");\r\n\t\trequire(_asset != ETHER);\r\n        User storage user = pensionServiceApplicant[msg.sender];\r\n        require(block.timestamp > user.client.lockTime, \"Unable to withdraw before your locktime expires\");\r\n        // uint interestAccrued = \r\n        // uint amountToSend = assets[_asset][msg.sender];\r\n        if(unsuppliedAmount[msg.sender] > 0 ) {\r\n            require(IERC20(_asset).transfer(msg.sender, unsuppliedAmount[msg.sender]));\r\n            uint amountToSend = assets[_asset][msg.sender].sub(unsuppliedAmount[msg.sender]);\r\n            unsuppliedAmount[msg.sender] = unsuppliedAmount[msg.sender].sub(unsuppliedAmount[msg.sender]);   \r\n\t\t    assets[_asset][msg.sender] = assets[_asset][msg.sender].sub(assets[_asset][msg.sender]);\r\n            require(IERC20(_asset).transfer(msg.sender, amountToSend));\r\n            user.client.hasPlan = false;\r\n            user.client.lockTime = 0;\r\n            emit Withdraw(address(this), msg.sender, amountToSend);\r\n        } else {\r\n            require(IERC20(_asset).transfer(msg.sender, assets[_asset][msg.sender]));\r\n            user.client.hasPlan = false; \r\n            user.client.lockTime = 0;\r\n            emit Withdraw(address(this), msg.sender, assets[_asset][msg.sender]);\r\n        }\r\n\r\n\t}\r\n\r\n\r\n    function forcedWithdraw(address _asset) public {\r\n        // require(hasRedeemed[msg.sender], \"Funds need to be redeemed before withdraw\");\r\n        require(assets[_asset][msg.sender] >= 0, \"You cannot withdraw 0 amount\");\r\n\t\trequire(_asset != ETHER);\r\n        User storage user = pensionServiceApplicant[msg.sender];\r\n        \t\t\r\n        uint penalty = assets[_asset][msg.sender].div(100).mul(20);\r\n        assets[_asset][address(this)] = assets[_asset][address(this)].add(penalty);\r\n        uint amountToSend;\r\n        if(unsuppliedAmount[msg.sender] > 0 ) {\r\n            amountToSend  = assets[_asset][msg.sender].sub(penalty).add(unsuppliedAmount[msg.sender]);\r\n            unsuppliedAmount[msg.sender] = unsuppliedAmount[msg.sender].sub(unsuppliedAmount[msg.sender]);\r\n            assets[_asset][msg.sender] = assets[_asset][msg.sender].sub(assets[_asset][msg.sender]);\r\n            require(IERC20(_asset).transfer(msg.sender, amountToSend));\r\n            user.client.hasPlan = false;\r\n            user.client.lockTime = 0;\r\n            emit Withdraw(address(this), msg.sender, amountToSend);\r\n        } else {\r\n            amountToSend  = assets[_asset][msg.sender].sub(penalty);\r\n            assets[_asset][msg.sender] = assets[_asset][msg.sender].sub(assets[_asset][msg.sender]);\r\n            require(IERC20(_asset).transfer(msg.sender, amountToSend));\r\n            user.client.hasPlan = false;\r\n            user.client.lockTime = 0;\r\n            emit Withdraw(address(this), msg.sender, amountToSend);\r\n\r\n        }\r\n\r\n    }\r\n\r\n\r\n    function supply(address cTokenaddress) public returns(uint) {\r\n        require(isRegistered[msg.sender], \"Caller not registered\");\r\n        require(unsuppliedAmount[msg.sender] > 0, \"Amount cannot be 0\");\r\n\t\tCTokenInterface cToken = CTokenInterface(cTokenaddress);\r\n\t\taddress underlyingAddress = cToken.underlying();\r\n\t\tIERC20(underlyingAddress).approve(cTokenaddress, unsuppliedAmount[msg.sender]);\r\n\r\n\t\tuint result = cToken.mint(unsuppliedAmount[msg.sender]);\r\n        stakedBalance[msg.sender] = stakedBalance[msg.sender].add(unsuppliedAmount[msg.sender]);\r\n        unsuppliedAmount[msg.sender] = unsuppliedAmount[msg.sender].sub(unsuppliedAmount[msg.sender]);\r\n\t\trequire(result == 0, 'cToken#mint() failed. see Compound ErrorReporter.sol');\r\n        emit Supply(msg.sender, stakedBalance[msg.sender]);\r\n        return result;\r\n\t}\r\n\r\n\r\n    function redeemCErc20Tokens(\r\n        address _cErc20Contract\r\n    ) public nonReentrant() returns (bool) {\r\n        require(isRegistered[msg.sender], \"Caller not registered\");\r\n        require(stakedBalance[msg.sender] > 0, \"Caller has not supplied funds\");\r\n        User memory user = pensionServiceApplicant[msg.sender];\r\n        require(block.timestamp > user.client.lockTime, \"Unable to withdraw before your locktime expires\");\r\n      \r\n        CTokenInterface cToken = CTokenInterface(_cErc20Contract);\r\n        uint256 redeemResult;\r\n\r\n        redeemResult = cToken.redeemUnderlying(stakedBalance[msg.sender]);\r\n        hasRedeemed[msg.sender] = true;\r\n        stakedBalance[msg.sender] = stakedBalance[msg.sender].sub(stakedBalance[msg.sender]);\r\n\r\n        emit Redeem(\"If this is not 0, there was an error\", redeemResult);\r\n\r\n        return true;\r\n    }\r\n\r\n    function setPlan(\r\n        address _underlyingAsset, \r\n        string memory _ipfsHashOfUserPensionDetails, \r\n        uint _approvedAmountToSpend, \r\n        uint _amountToSpend, \r\n        uint _timeDurationOfDeposit, \r\n        uint _lockTime) \r\n        public {\r\n        require(_approvedAmountToSpend > _amountToSpend, \"Set an amount greater than the recurring amount\");\r\n        require(_amountToSpend > 0, \"approve an amount greater than 0\");\r\n        require(isRegistered[msg.sender], \"Caller has to be Registered\");\r\n        User storage user = pensionServiceApplicant[msg.sender];\r\n        require(user.client.lockTime == 0, \"Caller already has a lock Time Set\");\r\n        user.client.underlyingAsset = _underlyingAsset;\r\n        user.client.lockTime = block.timestamp.add(_lockTime);\r\n        user.client.timeDurationOfdeposit = block.timestamp.add(_timeDurationOfDeposit);\r\n        user.client.ipfsHashOfUserPensionDetails = _ipfsHashOfUserPensionDetails;\r\n        user.client.approvedAmountToSpend = _approvedAmountToSpend;\r\n        user.client.amountToSpend = _amountToSpend;\r\n        user.client.hasPlan = true;\r\n\r\n        emit Plan(msg.sender, user.client.ipfsHashOfUserPensionDetails, user.client.lockTime);\r\n    }\r\n\r\n    function getAssetAddress(address ctokenAddress) public view returns(address) {\r\n        CTokenInterface cToken = CTokenInterface(ctokenAddress);\r\n        return cToken.underlying();\r\n\r\n    }\r\n\r\n    function getAccruedInterest(address _asset) public view returns(uint) {\r\n        User memory user = pensionServiceApplicant[msg.sender];\r\n        require(isRegistered[msg.sender], \"Caller not registered\");\r\n        CTokenInterface ctoken = CTokenInterface(user.client.underlyingAsset);\r\n        uint supplyRatePerBlock = ctoken.supplyRatePerBlock();\r\n        uint accInterest = assets[_asset][msg.sender].mul(supplyRatePerBlock);\r\n        return accInterest;\r\n    }\r\n\r\n    function withdrawPenalty(address _asset) public onlyOwner() {\r\n        require(assets[_asset][address(this)] > 0, \"Cannot withdraw 0 amount\");\r\n        require(IERC20(_asset).transfer(admin, assets[_asset][address(this)]));\r\n    }\r\n\r\n    // helper function to be deleted on migration to mainet\r\n    function updateLockTime() public {\r\n        require(isRegistered[msg.sender], \"caller is not registered\");\r\n        User storage user = pensionServiceApplicant[msg.sender];\r\n        user.client.lockTime = 0;\r\n    }\r\n\r\n\r\n}",
  "sourcePath": "/mnt/c/Users/chuks/Desktop/Project/beima_project/beima_core/contracts/Beima.sol",
  "compiler": {
    "name": "solc",
    "version": "0.8.0+commit.c7dfd78e.Emscripten.clang"
  },
  "schemaVersion": "3.4.3",
  "updatedAt": "2021-12-17T00:01:44.955Z",
  "networkType": "ethereum",
  "devdoc": {
    "kind": "dev",
    "methods": {
      "owner()": {
        "details": "Returns the address of the current owner."
      },
      "paused()": {
        "details": "Returns true if the contract is paused, and false otherwise."
      },
      "renounceOwnership()": {
        "details": "Leaves the contract without owner. It will not be possible to call `onlyOwner` functions anymore. Can only be called by the current owner. NOTE: Renouncing ownership will leave the contract without an owner, thereby removing any functionality that is only available to the owner."
      },
      "transferOwnership(address)": {
        "details": "Transfers ownership of the contract to a new account (`newOwner`). Can only be called by the current owner."
      }
    },
    "version": 1
  },
  "userdoc": {
    "kind": "user",
    "methods": {},
    "version": 1
  }
}