{
  "contractName": "Beima",
  "abi": [
    {
      "inputs": [
        {
          "internalType": "address",
          "name": "_xend",
          "type": "address"
        },
        {
          "internalType": "address",
          "name": "_xendFinanceIndividual_Yearn_V1",
          "type": "address"
        },
        {
          "internalType": "address",
          "name": "_comptroller",
          "type": "address"
        },
        {
          "internalType": "address",
          "name": "_priceOracle",
          "type": "address"
        },
        {
          "internalType": "uint256",
          "name": "_upKeepInterval",
          "type": "uint256"
        }
      ],
      "stateMutability": "nonpayable",
      "type": "constructor"
    },
    {
      "anonymous": false,
      "inputs": [
        {
          "indexed": true,
          "internalType": "address",
          "name": "sender",
          "type": "address"
        },
        {
          "indexed": false,
          "internalType": "address",
          "name": "receiver",
          "type": "address"
        },
        {
          "indexed": true,
          "internalType": "uint256",
          "name": "amountSpent",
          "type": "uint256"
        }
      ],
      "name": "Deposit",
      "type": "event"
    },
    {
      "anonymous": false,
      "inputs": [
        {
          "indexed": false,
          "internalType": "string",
          "name": "",
          "type": "string"
        },
        {
          "indexed": false,
          "internalType": "uint256",
          "name": "",
          "type": "uint256"
        }
      ],
      "name": "MyLog",
      "type": "event"
    },
    {
      "anonymous": false,
      "inputs": [
        {
          "indexed": true,
          "internalType": "address",
          "name": "previousOwner",
          "type": "address"
        },
        {
          "indexed": true,
          "internalType": "address",
          "name": "newOwner",
          "type": "address"
        }
      ],
      "name": "OwnershipTransferred",
      "type": "event"
    },
    {
      "anonymous": false,
      "inputs": [
        {
          "indexed": false,
          "internalType": "address",
          "name": "account",
          "type": "address"
        }
      ],
      "name": "Paused",
      "type": "event"
    },
    {
      "anonymous": false,
      "inputs": [
        {
          "indexed": false,
          "internalType": "address",
          "name": "user",
          "type": "address"
        },
        {
          "indexed": false,
          "internalType": "string",
          "name": "planDetails",
          "type": "string"
        },
        {
          "indexed": false,
          "internalType": "uint256",
          "name": "lockTime",
          "type": "uint256"
        }
      ],
      "name": "Plan",
      "type": "event"
    },
    {
      "anonymous": false,
      "inputs": [
        {
          "indexed": true,
          "internalType": "address",
          "name": "applicant",
          "type": "address"
        },
        {
          "indexed": true,
          "internalType": "string",
          "name": "applicantDetails",
          "type": "string"
        }
      ],
      "name": "Register",
      "type": "event"
    },
    {
      "anonymous": false,
      "inputs": [
        {
          "indexed": false,
          "internalType": "address",
          "name": "sender",
          "type": "address"
        },
        {
          "indexed": false,
          "internalType": "uint256",
          "name": "amount",
          "type": "uint256"
        }
      ],
      "name": "Supply",
      "type": "event"
    },
    {
      "anonymous": false,
      "inputs": [
        {
          "indexed": true,
          "internalType": "address",
          "name": "sender",
          "type": "address"
        },
        {
          "indexed": false,
          "internalType": "uint256",
          "name": "amount",
          "type": "uint256"
        },
        {
          "indexed": true,
          "internalType": "address",
          "name": "receiver",
          "type": "address"
        }
      ],
      "name": "Transfer",
      "type": "event"
    },
    {
      "anonymous": false,
      "inputs": [
        {
          "indexed": false,
          "internalType": "address",
          "name": "account",
          "type": "address"
        }
      ],
      "name": "Unpaused",
      "type": "event"
    },
    {
      "anonymous": false,
      "inputs": [
        {
          "indexed": false,
          "internalType": "uint256",
          "name": "timeDuration",
          "type": "uint256"
        }
      ],
      "name": "Update",
      "type": "event"
    },
    {
      "anonymous": false,
      "inputs": [
        {
          "indexed": false,
          "internalType": "address",
          "name": "sender",
          "type": "address"
        },
        {
          "indexed": false,
          "internalType": "bool",
          "name": "upkeep",
          "type": "bool"
        }
      ],
      "name": "Upkeep",
      "type": "event"
    },
    {
      "anonymous": false,
      "inputs": [
        {
          "indexed": false,
          "internalType": "address",
          "name": "from",
          "type": "address"
        },
        {
          "indexed": false,
          "internalType": "address",
          "name": "to",
          "type": "address"
        },
        {
          "indexed": false,
          "internalType": "uint256",
          "name": "amount",
          "type": "uint256"
        }
      ],
      "name": "Withdraw",
      "type": "event"
    },
    {
      "inputs": [
        {
          "internalType": "address",
          "name": "",
          "type": "address"
        }
      ],
      "name": "amountSupplied",
      "outputs": [
        {
          "internalType": "uint256",
          "name": "",
          "type": "uint256"
        }
      ],
      "stateMutability": "view",
      "type": "function",
      "constant": true
    },
    {
      "inputs": [
        {
          "internalType": "address",
          "name": "",
          "type": "address"
        },
        {
          "internalType": "address",
          "name": "",
          "type": "address"
        }
      ],
      "name": "assets",
      "outputs": [
        {
          "internalType": "uint256",
          "name": "",
          "type": "uint256"
        }
      ],
      "stateMutability": "view",
      "type": "function",
      "constant": true
    },
    {
      "inputs": [],
      "name": "busd",
      "outputs": [
        {
          "internalType": "contract IERC20",
          "name": "",
          "type": "address"
        }
      ],
      "stateMutability": "view",
      "type": "function",
      "constant": true
    },
    {
      "inputs": [],
      "name": "comptroller",
      "outputs": [
        {
          "internalType": "contract ComptrollerInterface",
          "name": "",
          "type": "address"
        }
      ],
      "stateMutability": "view",
      "type": "function",
      "constant": true
    },
    {
      "inputs": [
        {
          "internalType": "address",
          "name": "",
          "type": "address"
        }
      ],
      "name": "hasRedeemed",
      "outputs": [
        {
          "internalType": "bool",
          "name": "",
          "type": "bool"
        }
      ],
      "stateMutability": "view",
      "type": "function",
      "constant": true
    },
    {
      "inputs": [
        {
          "internalType": "address",
          "name": "",
          "type": "address"
        }
      ],
      "name": "isRegistered",
      "outputs": [
        {
          "internalType": "bool",
          "name": "",
          "type": "bool"
        }
      ],
      "stateMutability": "view",
      "type": "function",
      "constant": true
    },
    {
      "inputs": [],
      "name": "lastTimeStamp",
      "outputs": [
        {
          "internalType": "uint256",
          "name": "",
          "type": "uint256"
        }
      ],
      "stateMutability": "view",
      "type": "function",
      "constant": true
    },
    {
      "inputs": [],
      "name": "owner",
      "outputs": [
        {
          "internalType": "address",
          "name": "",
          "type": "address"
        }
      ],
      "stateMutability": "view",
      "type": "function",
      "constant": true
    },
    {
      "inputs": [],
      "name": "paused",
      "outputs": [
        {
          "internalType": "bool",
          "name": "",
          "type": "bool"
        }
      ],
      "stateMutability": "view",
      "type": "function",
      "constant": true
    },
    {
      "inputs": [
        {
          "internalType": "address",
          "name": "",
          "type": "address"
        }
      ],
      "name": "pensionServiceApplicant",
      "outputs": [
        {
          "internalType": "uint256",
          "name": "id",
          "type": "uint256"
        },
        {
          "internalType": "address payable",
          "name": "userAddress",
          "type": "address"
        },
        {
          "internalType": "string",
          "name": "userDetails",
          "type": "string"
        },
        {
          "components": [
            {
              "internalType": "address",
              "name": "underlyingAsset",
              "type": "address"
            },
            {
              "internalType": "uint256",
              "name": "depositedAmount",
              "type": "uint256"
            },
            {
              "internalType": "uint256",
              "name": "amountToSpend",
              "type": "uint256"
            },
            {
              "internalType": "uint256",
              "name": "approvedAmountToSpend",
              "type": "uint256"
            },
            {
              "internalType": "uint256",
              "name": "startTime",
              "type": "uint256"
            },
            {
              "internalType": "uint256",
              "name": "timeDurationOfdeposit",
              "type": "uint256"
            },
            {
              "internalType": "uint256",
              "name": "lockTime",
              "type": "uint256"
            },
            {
              "internalType": "string",
              "name": "ipfsHashOfUserPensionDetails",
              "type": "string"
            },
            {
              "internalType": "uint256",
              "name": "userLastRewardBlock",
              "type": "uint256"
            },
            {
              "internalType": "bool",
              "name": "hasPlan",
              "type": "bool"
            }
          ],
          "internalType": "struct Beima.Client",
          "name": "client",
          "type": "tuple"
        }
      ],
      "stateMutability": "view",
      "type": "function",
      "constant": true
    },
    {
      "inputs": [],
      "name": "priceOracle",
      "outputs": [
        {
          "internalType": "contract PriceOracleInterface",
          "name": "",
          "type": "address"
        }
      ],
      "stateMutability": "view",
      "type": "function",
      "constant": true
    },
    {
      "inputs": [],
      "name": "renounceOwnership",
      "outputs": [],
      "stateMutability": "nonpayable",
      "type": "function"
    },
    {
      "inputs": [
        {
          "internalType": "address",
          "name": "newOwner",
          "type": "address"
        }
      ],
      "name": "transferOwnership",
      "outputs": [],
      "stateMutability": "nonpayable",
      "type": "function"
    },
    {
      "inputs": [],
      "name": "upKeepInterval",
      "outputs": [
        {
          "internalType": "uint256",
          "name": "",
          "type": "uint256"
        }
      ],
      "stateMutability": "view",
      "type": "function",
      "constant": true
    },
    {
      "inputs": [
        {
          "internalType": "uint256",
          "name": "",
          "type": "uint256"
        }
      ],
      "name": "users",
      "outputs": [
        {
          "internalType": "uint256",
          "name": "id",
          "type": "uint256"
        },
        {
          "internalType": "address payable",
          "name": "userAddress",
          "type": "address"
        },
        {
          "internalType": "string",
          "name": "userDetails",
          "type": "string"
        },
        {
          "components": [
            {
              "internalType": "address",
              "name": "underlyingAsset",
              "type": "address"
            },
            {
              "internalType": "uint256",
              "name": "depositedAmount",
              "type": "uint256"
            },
            {
              "internalType": "uint256",
              "name": "amountToSpend",
              "type": "uint256"
            },
            {
              "internalType": "uint256",
              "name": "approvedAmountToSpend",
              "type": "uint256"
            },
            {
              "internalType": "uint256",
              "name": "startTime",
              "type": "uint256"
            },
            {
              "internalType": "uint256",
              "name": "timeDurationOfdeposit",
              "type": "uint256"
            },
            {
              "internalType": "uint256",
              "name": "lockTime",
              "type": "uint256"
            },
            {
              "internalType": "string",
              "name": "ipfsHashOfUserPensionDetails",
              "type": "string"
            },
            {
              "internalType": "uint256",
              "name": "userLastRewardBlock",
              "type": "uint256"
            },
            {
              "internalType": "bool",
              "name": "hasPlan",
              "type": "bool"
            }
          ],
          "internalType": "struct Beima.Client",
          "name": "client",
          "type": "tuple"
        }
      ],
      "stateMutability": "view",
      "type": "function",
      "constant": true
    },
    {
      "inputs": [],
      "name": "xend",
      "outputs": [
        {
          "internalType": "contract IERC20",
          "name": "",
          "type": "address"
        }
      ],
      "stateMutability": "view",
      "type": "function",
      "constant": true
    },
    {
      "inputs": [],
      "name": "xendFinance",
      "outputs": [
        {
          "internalType": "contract XendFinanceInterface",
          "name": "",
          "type": "address"
        }
      ],
      "stateMutability": "view",
      "type": "function",
      "constant": true
    },
    {
      "stateMutability": "payable",
      "type": "receive",
      "payable": true
    },
    {
      "inputs": [
        {
          "internalType": "string",
          "name": "_userDetails",
          "type": "string"
        }
      ],
      "name": "register",
      "outputs": [],
      "stateMutability": "nonpayable",
      "type": "function"
    },
    {
      "inputs": [
        {
          "internalType": "address",
          "name": "_asset",
          "type": "address"
        },
        {
          "internalType": "uint256",
          "name": "_amount",
          "type": "uint256"
        }
      ],
      "name": "depositToken",
      "outputs": [],
      "stateMutability": "nonpayable",
      "type": "function"
    },
    {
      "inputs": [
        {
          "internalType": "address",
          "name": "_asset",
          "type": "address"
        },
        {
          "internalType": "uint256",
          "name": "_amount",
          "type": "uint256"
        }
      ],
      "name": "withdrawToken",
      "outputs": [],
      "stateMutability": "nonpayable",
      "type": "function"
    },
    {
      "inputs": [
        {
          "internalType": "address",
          "name": "_asset",
          "type": "address"
        },
        {
          "internalType": "uint256",
          "name": "_amount",
          "type": "uint256"
        }
      ],
      "name": "forcedWithdraw",
      "outputs": [],
      "stateMutability": "nonpayable",
      "type": "function"
    },
    {
      "inputs": [
        {
          "internalType": "address",
          "name": "cTokenaddress",
          "type": "address"
        }
      ],
      "name": "supply",
      "outputs": [
        {
          "internalType": "uint256",
          "name": "",
          "type": "uint256"
        }
      ],
      "stateMutability": "nonpayable",
      "type": "function"
    },
    {
      "inputs": [
        {
          "internalType": "uint256",
          "name": "amount",
          "type": "uint256"
        },
        {
          "internalType": "address",
          "name": "_cErc20Contract",
          "type": "address"
        }
      ],
      "name": "redeemCErc20Tokens",
      "outputs": [
        {
          "internalType": "bool",
          "name": "",
          "type": "bool"
        }
      ],
      "stateMutability": "nonpayable",
      "type": "function"
    },
    {
      "inputs": [
        {
          "internalType": "address",
          "name": "_underlyingAsset",
          "type": "address"
        },
        {
          "internalType": "string",
          "name": "_ipfsHashOfUserPensionDetails",
          "type": "string"
        },
        {
          "internalType": "uint256",
          "name": "_approvedAmountToSpend",
          "type": "uint256"
        },
        {
          "internalType": "uint256",
          "name": "_amountToSpend",
          "type": "uint256"
        },
        {
          "internalType": "uint256",
          "name": "_timeDurationOfDeposit",
          "type": "uint256"
        },
        {
          "internalType": "uint256",
          "name": "_lockTime",
          "type": "uint256"
        }
      ],
      "name": "setPlan",
      "outputs": [],
      "stateMutability": "nonpayable",
      "type": "function"
    },
    {
      "inputs": [
        {
          "internalType": "address",
          "name": "ctokenAddress",
          "type": "address"
        }
      ],
      "name": "getAssetAddress",
      "outputs": [
        {
          "internalType": "address",
          "name": "",
          "type": "address"
        }
      ],
      "stateMutability": "view",
      "type": "function",
      "constant": true
    },
    {
      "inputs": [
        {
          "internalType": "address",
          "name": "_asset",
          "type": "address"
        }
      ],
      "name": "getAccruedInterest",
      "outputs": [
        {
          "internalType": "uint256",
          "name": "",
          "type": "uint256"
        }
      ],
      "stateMutability": "view",
      "type": "function",
      "constant": true
    }
  ],
  "bytecode": "0x60806040523480156200001157600080fd5b5060405162005275380380620052758339818101604052810190620000379190620002fe565b60016000819055506000600160006101000a81548160ff0219169083151502179055506200007a6200006e620001d760201b60201c565b620001df60201b60201c565b84600960006101000a81548173ffffffffffffffffffffffffffffffffffffffff021916908373ffffffffffffffffffffffffffffffffffffffff16021790555082600260006101000a81548173ffffffffffffffffffffffffffffffffffffffff021916908373ffffffffffffffffffffffffffffffffffffffff16021790555081600360006101000a81548173ffffffffffffffffffffffffffffffffffffffff021916908373ffffffffffffffffffffffffffffffffffffffff16021790555083600860006101000a81548173ffffffffffffffffffffffffffffffffffffffff021916908373ffffffffffffffffffffffffffffffffffffffff160217905550620001a1600a6729a2241af62c0000620002a260201b620037c01790919060201c565b60078190555042600b8190555080600c81905550620001cc6004620002ba60201b620037d61760201c565b505050505062000459565b600033905090565b600060018054906101000a900473ffffffffffffffffffffffffffffffffffffffff169050816001806101000a81548173ffffffffffffffffffffffffffffffffffffffff021916908373ffffffffffffffffffffffffffffffffffffffff1602179055508173ffffffffffffffffffffffffffffffffffffffff168173ffffffffffffffffffffffffffffffffffffffff167f8be0079c531659141344cd1fd0a4f28419497f9722a3daafe3b4186f6b6457e060405160405180910390a35050565b60008183620002b2919062000380565b905092915050565b6001816000016000828254019250508190555050565b600081519050620002e18162000425565b92915050565b600081519050620002f8816200043f565b92915050565b600080600080600060a086880312156200031757600080fd5b60006200032788828901620002d0565b95505060206200033a88828901620002d0565b94505060406200034d88828901620002d0565b93505060606200036088828901620002d0565b92505060806200037388828901620002e7565b9150509295509295909350565b60006200038d82620003ec565b91506200039a83620003ec565b925082620003ad57620003ac620003f6565b5b828204905092915050565b6000620003c582620003cc565b9050919050565b600073ffffffffffffffffffffffffffffffffffffffff82169050919050565b6000819050919050565b7f4e487b7100000000000000000000000000000000000000000000000000000000600052601260045260246000fd5b6200043081620003b8565b81146200043c57600080fd5b50565b6200044a81620003ec565b81146200045657600080fd5b50565b614e0c80620004696000396000f3fe6080604052600436106101855760003560e01c8063715018a6116100d1578063c2fab6351161008a578063de15f0da11610064578063de15f0da146105ea578063f2c298be14610613578063f2fde38b1461063c578063f5dd60651461066557610193565b8063c2fab63514610533578063c3c5a54714610570578063db78b67c146105ad57610193565b8063715018a61461042557806384fea6671461043c5780638da5cb5b146104795780639e281a98146104a4578063bbf14e74146104cd578063bd062ece1461050a57610193565b8063338b5dea1161013e5780633f3b3b27116101185780633f3b3b27146103645780635bc9d2bf1461038f5780635c975abb146103cf5780635fe3b567146103fa57610193565b8063338b5dea146102d0578063365b98b2146102f95780633ca5b2341461033957610193565b806319ae58f0146101985780631a15687b146101d55780632108234d146102005780632630c12f1461023d5780632a1a6031146102685780633245f228146102a557610193565b366101935734600581905550005b600080fd5b3480156101a457600080fd5b506101bf60048036038101906101ba9190613a7b565b610690565b6040516101cc9190614935565b60405180910390f35b3480156101e157600080fd5b506101ea610b5c565b6040516101f79190614935565b60405180910390f35b34801561020c57600080fd5b5061022760048036038101906102229190613acd565b610b62565b6040516102349190614935565b60405180910390f35b34801561024957600080fd5b50610252610b87565b60405161025f9190614691565b60405180910390f35b34801561027457600080fd5b5061028f600480360381019061028a9190613a7b565b610bad565b60405161029c9190614587565b60405180910390f35b3480156102b157600080fd5b506102ba610c39565b6040516102c79190614676565b60405180910390f35b3480156102dc57600080fd5b506102f760048036038101906102f29190613baa565b610c5f565b005b34801561030557600080fd5b50610320600480360381019061031b9190613c50565b6113f3565b6040516103309493929190614950565b60405180910390f35b34801561034557600080fd5b5061034e61162f565b60405161035b9190614676565b60405180910390f35b34801561037057600080fd5b50610379611655565b6040516103869190614935565b60405180910390f35b34801561039b57600080fd5b506103b660048036038101906103b19190613a7b565b61165b565b6040516103c69493929190614950565b60405180910390f35b3480156103db57600080fd5b506103e4611887565b6040516103f19190614640565b60405180910390f35b34801561040657600080fd5b5061040f61189e565b60405161041c919061465b565b60405180910390f35b34801561043157600080fd5b5061043a6118c4565b005b34801561044857600080fd5b50610463600480360381019061045e9190613ca2565b61194c565b6040516104709190614640565b60405180910390f35b34801561048557600080fd5b5061048e611d2d565b60405161049b9190614587565b60405180910390f35b3480156104b057600080fd5b506104cb60048036038101906104c69190613baa565b611d55565b005b3480156104d957600080fd5b506104f460048036038101906104ef9190613a7b565b61235c565b6040516105019190614935565b60405180910390f35b34801561051657600080fd5b50610531600480360381019061052c9190613baa565b6127b5565b005b34801561053f57600080fd5b5061055a60048036038101906105559190613a7b565b612e93565b6040516105679190614935565b60405180910390f35b34801561057c57600080fd5b5061059760048036038101906105929190613a7b565b612eab565b6040516105a49190614640565b60405180910390f35b3480156105b957600080fd5b506105d460048036038101906105cf9190613a7b565b612ecb565b6040516105e19190614640565b60405180910390f35b3480156105f657600080fd5b50610611600480360381019061060c9190613b09565b612eeb565b005b34801561061f57600080fd5b5061063a60048036038101906106359190613c0f565b61319e565b005b34801561064857600080fd5b50610663600480360381019061065e9190613a7b565b6136a2565b005b34801561067157600080fd5b5061067a61379a565b60405161068791906146ac565b60405180910390f35b6000601060003373ffffffffffffffffffffffffffffffffffffffff1673ffffffffffffffffffffffffffffffffffffffff16815260200190815260200160002060009054906101000a900460ff1661071e576040517f08c379a0000000000000000000000000000000000000000000000000000000008152600401610715906147f5565b60405180910390fd5b6000600f60003373ffffffffffffffffffffffffffffffffffffffff1673ffffffffffffffffffffffffffffffffffffffff16815260200190815260200160002054116107a0576040517f08c379a000000000000000000000000000000000000000000000000000000000815260040161079790614855565b60405180910390fd5b600082905060008173ffffffffffffffffffffffffffffffffffffffff16636f307dc36040518163ffffffff1660e01b815260040160206040518083038186803b1580156107ed57600080fd5b505afa158015610801573d6000803e3d6000fd5b505050506040513d601f19601f820116820180604052508101906108259190613aa4565b90508073ffffffffffffffffffffffffffffffffffffffff1663095ea7b385600f60003373ffffffffffffffffffffffffffffffffffffffff1673ffffffffffffffffffffffffffffffffffffffff168152602001908152602001600020546040518363ffffffff1660e01b81526004016108a1929190614617565b602060405180830381600087803b1580156108bb57600080fd5b505af11580156108cf573d6000803e3d6000fd5b505050506040513d601f19601f820116820180604052508101906108f39190613be6565b5060008273ffffffffffffffffffffffffffffffffffffffff1663a0712d68600f60003373ffffffffffffffffffffffffffffffffffffffff1673ffffffffffffffffffffffffffffffffffffffff168152602001908152602001600020546040518263ffffffff1660e01b815260040161096e9190614935565b602060405180830381600087803b15801561098857600080fd5b505af115801561099c573d6000803e3d6000fd5b505050506040513d601f19601f820116820180604052508101906109c09190613c79565b9050610a53600f60003373ffffffffffffffffffffffffffffffffffffffff1673ffffffffffffffffffffffffffffffffffffffff16815260200190815260200160002054600f60003373ffffffffffffffffffffffffffffffffffffffff1673ffffffffffffffffffffffffffffffffffffffff168152602001908152602001600020546137ec90919063ffffffff16565b600f60003373ffffffffffffffffffffffffffffffffffffffff1673ffffffffffffffffffffffffffffffffffffffff1681526020019081526020016000208190555060008114610ad9576040517f08c379a0000000000000000000000000000000000000000000000000000000008152600401610ad090614715565b60405180910390fd5b7fadacf827efe383160192c092d8658471945c074229a9746679b5e2b74adff19133600f60003373ffffffffffffffffffffffffffffffffffffffff1673ffffffffffffffffffffffffffffffffffffffff16815260200190815260200160002054604051610b49929190614617565b60405180910390a1809350505050919050565b600c5481565b600e602052816000526040600020602052806000526040600020600091509150505481565b600360009054906101000a900473ffffffffffffffffffffffffffffffffffffffff1681565b6000808290508073ffffffffffffffffffffffffffffffffffffffff16636f307dc36040518163ffffffff1660e01b815260040160206040518083038186803b158015610bf957600080fd5b505afa158015610c0d573d6000803e3d6000fd5b505050506040513d601f19601f82011682018060405250810190610c319190613aa4565b915050919050565b600960009054906101000a900473ffffffffffffffffffffffffffffffffffffffff1681565b6000600d60003373ffffffffffffffffffffffffffffffffffffffff1673ffffffffffffffffffffffffffffffffffffffff168152602001908152602001600020604051806080016040529081600082015481526020016001820160009054906101000a900473ffffffffffffffffffffffffffffffffffffffff1673ffffffffffffffffffffffffffffffffffffffff1673ffffffffffffffffffffffffffffffffffffffff168152602001600282018054610d1b90614c92565b80601f0160208091040260200160405190810160405280929190818152602001828054610d4790614c92565b8015610d945780601f10610d6957610100808354040283529160200191610d94565b820191906000526020600020905b815481529060010190602001808311610d7757829003601f168201915b5050505050815260200160038201604051806101400160405290816000820160009054906101000a900473ffffffffffffffffffffffffffffffffffffffff1673ffffffffffffffffffffffffffffffffffffffff1673ffffffffffffffffffffffffffffffffffffffff168152602001600182015481526020016002820154815260200160038201548152602001600482015481526020016005820154815260200160068201548152602001600782018054610e5090614c92565b80601f0160208091040260200160405190810160405280929190818152602001828054610e7c90614c92565b8015610ec95780601f10610e9e57610100808354040283529160200191610ec9565b820191906000526020600020905b815481529060010190602001808311610eac57829003601f168201915b50505050508152602001600882015481526020016009820160009054906101000a900460ff1615151515815250508152505090508060600151604001518160600151606001511015610f50576040517f08c379a0000000000000000000000000000000000000000000000000000000008152600401610f4790614795565b60405180910390fd5b601060003373ffffffffffffffffffffffffffffffffffffffff1673ffffffffffffffffffffffffffffffffffffffff16815260200190815260200160002060009054906101000a900460ff16610fdc576040517f08c379a0000000000000000000000000000000000000000000000000000000008152600401610fd3906147f5565b60405180910390fd5b80606001516101200151611025576040517f08c379a000000000000000000000000000000000000000000000000000000000815260040161101c90614775565b60405180910390fd5b600073ffffffffffffffffffffffffffffffffffffffff168373ffffffffffffffffffffffffffffffffffffffff161415611095576040517f08c379a000000000000000000000000000000000000000000000000000000000815260040161108c90614915565b60405180910390fd5b8273ffffffffffffffffffffffffffffffffffffffff166323b872dd3330856040518463ffffffff1660e01b81526004016110d2939291906145a2565b602060405180830381600087803b1580156110ec57600080fd5b505af1158015611100573d6000803e3d6000fd5b505050506040513d601f19601f820116820180604052508101906111249190613be6565b611163576040517f08c379a000000000000000000000000000000000000000000000000000000000815260040161115a906148b5565b60405180910390fd5b6111f282600e60008673ffffffffffffffffffffffffffffffffffffffff1673ffffffffffffffffffffffffffffffffffffffff16815260200190815260200160002060003373ffffffffffffffffffffffffffffffffffffffff1673ffffffffffffffffffffffffffffffffffffffff1681526020019081526020016000205461380290919063ffffffff16565b600e60008573ffffffffffffffffffffffffffffffffffffffff1673ffffffffffffffffffffffffffffffffffffffff16815260200190815260200160002060003373ffffffffffffffffffffffffffffffffffffffff1673ffffffffffffffffffffffffffffffffffffffff168152602001908152602001600020819055506112c482600f60003373ffffffffffffffffffffffffffffffffffffffff1673ffffffffffffffffffffffffffffffffffffffff1681526020019081526020016000205461380290919063ffffffff16565b600f60003373ffffffffffffffffffffffffffffffffffffffff1673ffffffffffffffffffffffffffffffffffffffff1681526020019081526020016000208190555061131d600160075461380290919063ffffffff16565b600781905550600e60008473ffffffffffffffffffffffffffffffffffffffff1673ffffffffffffffffffffffffffffffffffffffff16815260200190815260200160002060003373ffffffffffffffffffffffffffffffffffffffff1673ffffffffffffffffffffffffffffffffffffffff168152602001908152602001600020543373ffffffffffffffffffffffffffffffffffffffff167f5548c837ab068cf56a2c2479df0882a4922fd203edb7517321831d95078c5f62306040516113e69190614587565b60405180910390a3505050565b6012818154811061140357600080fd5b90600052602060002090600d02016000915090508060000154908060010160009054906101000a900473ffffffffffffffffffffffffffffffffffffffff169080600201805461145290614c92565b80601f016020809104026020016040519081016040528092919081815260200182805461147e90614c92565b80156114cb5780601f106114a0576101008083540402835291602001916114cb565b820191906000526020600020905b8154815290600101906020018083116114ae57829003601f168201915b50505050509080600301604051806101400160405290816000820160009054906101000a900473ffffffffffffffffffffffffffffffffffffffff1673ffffffffffffffffffffffffffffffffffffffff1673ffffffffffffffffffffffffffffffffffffffff16815260200160018201548152602001600282015481526020016003820154815260200160048201548152602001600582015481526020016006820154815260200160078201805461158390614c92565b80601f01602080910402602001604051908101604052809291908181526020018280546115af90614c92565b80156115fc5780601f106115d1576101008083540402835291602001916115fc565b820191906000526020600020905b8154815290600101906020018083116115df57829003601f168201915b50505050508152602001600882015481526020016009820160009054906101000a900460ff161515151581525050905084565b600a60009054906101000a900473ffffffffffffffffffffffffffffffffffffffff1681565b600b5481565b600d6020528060005260406000206000915090508060000154908060010160009054906101000a900473ffffffffffffffffffffffffffffffffffffffff16908060020180546116aa90614c92565b80601f01602080910402602001604051908101604052809291908181526020018280546116d690614c92565b80156117235780601f106116f857610100808354040283529160200191611723565b820191906000526020600020905b81548152906001019060200180831161170657829003601f168201915b50505050509080600301604051806101400160405290816000820160009054906101000a900473ffffffffffffffffffffffffffffffffffffffff1673ffffffffffffffffffffffffffffffffffffffff1673ffffffffffffffffffffffffffffffffffffffff1681526020016001820154815260200160028201548152602001600382015481526020016004820154815260200160058201548152602001600682015481526020016007820180546117db90614c92565b80601f016020809104026020016040519081016040528092919081815260200182805461180790614c92565b80156118545780601f1061182957610100808354040283529160200191611854565b820191906000526020600020905b81548152906001019060200180831161183757829003601f168201915b50505050508152602001600882015481526020016009820160009054906101000a900460ff161515151581525050905084565b6000600160009054906101000a900460ff16905090565b600260009054906101000a900473ffffffffffffffffffffffffffffffffffffffff1681565b6118cc613818565b73ffffffffffffffffffffffffffffffffffffffff166118ea611d2d565b73ffffffffffffffffffffffffffffffffffffffff1614611940576040517f08c379a000000000000000000000000000000000000000000000000000000000815260040161193790614835565b60405180910390fd5b61194a6000613820565b565b600060026000541415611994576040517f08c379a000000000000000000000000000000000000000000000000000000000815260040161198b906148f5565b60405180910390fd5b6002600081905550601060003373ffffffffffffffffffffffffffffffffffffffff1673ffffffffffffffffffffffffffffffffffffffff16815260200190815260200160002060009054906101000a900460ff16611a28576040517f08c379a0000000000000000000000000000000000000000000000000000000008152600401611a1f906147f5565b60405180910390fd5b6000600f60003373ffffffffffffffffffffffffffffffffffffffff1673ffffffffffffffffffffffffffffffffffffffff168152602001908152602001600020541115611bf5576000611ac4600f60003373ffffffffffffffffffffffffffffffffffffffff1673ffffffffffffffffffffffffffffffffffffffff16815260200190815260200160002054856137ec90919063ffffffff16565b9050600083905060008173ffffffffffffffffffffffffffffffffffffffff1663852a12e3846040518263ffffffff1660e01b8152600401611b069190614935565b602060405180830381600087803b158015611b2057600080fd5b505af1158015611b34573d6000803e3d6000fd5b505050506040513d601f19601f82011682018060405250810190611b589190613c79565b90506001601160003373ffffffffffffffffffffffffffffffffffffffff1673ffffffffffffffffffffffffffffffffffffffff16815260200190815260200160002060006101000a81548160ff0219169083151502179055507f8d1cced004452bd270777a8c670f9f7e7c4fdde56f2db331fe289d39dc2624ad81604051611be191906146e7565b60405180910390a160019350505050611d1f565b600082905060008173ffffffffffffffffffffffffffffffffffffffff1663852a12e3866040518263ffffffff1660e01b8152600401611c359190614935565b602060405180830381600087803b158015611c4f57600080fd5b505af1158015611c63573d6000803e3d6000fd5b505050506040513d601f19601f82011682018060405250810190611c879190613c79565b90506001601160003373ffffffffffffffffffffffffffffffffffffffff1673ffffffffffffffffffffffffffffffffffffffff16815260200190815260200160002060006101000a81548160ff0219169083151502179055507f8d1cced004452bd270777a8c670f9f7e7c4fdde56f2db331fe289d39dc2624ad81604051611d1091906146e7565b60405180910390a16001925050505b600160008190555092915050565b600060018054906101000a900473ffffffffffffffffffffffffffffffffffffffff16905090565b60026000541415611d9b576040517f08c379a0000000000000000000000000000000000000000000000000000000008152600401611d92906148f5565b60405180910390fd5b6002600081905550611dab611887565b15611deb576040517f08c379a0000000000000000000000000000000000000000000000000000000008152600401611de290614755565b60405180910390fd5b601160003373ffffffffffffffffffffffffffffffffffffffff1673ffffffffffffffffffffffffffffffffffffffff16815260200190815260200160002060009054906101000a900460ff16611e77576040517f08c379a0000000000000000000000000000000000000000000000000000000008152600401611e6e906147b5565b60405180910390fd5b80600e60008473ffffffffffffffffffffffffffffffffffffffff1673ffffffffffffffffffffffffffffffffffffffff16815260200190815260200160002060003373ffffffffffffffffffffffffffffffffffffffff1673ffffffffffffffffffffffffffffffffffffffff168152602001908152602001600020541015611f0057600080fd5b600073ffffffffffffffffffffffffffffffffffffffff168273ffffffffffffffffffffffffffffffffffffffff161415611f3a57600080fd5b60008111611f7d576040517f08c379a0000000000000000000000000000000000000000000000000000000008152600401611f7490614895565b60405180910390fd5b61200c81600e60008573ffffffffffffffffffffffffffffffffffffffff1673ffffffffffffffffffffffffffffffffffffffff16815260200190815260200160002060003373ffffffffffffffffffffffffffffffffffffffff1673ffffffffffffffffffffffffffffffffffffffff168152602001908152602001600020546137ec90919063ffffffff16565b600e60008473ffffffffffffffffffffffffffffffffffffffff1673ffffffffffffffffffffffffffffffffffffffff16815260200190815260200160002060003373ffffffffffffffffffffffffffffffffffffffff1673ffffffffffffffffffffffffffffffffffffffff168152602001908152602001600020819055506000600f60003373ffffffffffffffffffffffffffffffffffffffff1673ffffffffffffffffffffffffffffffffffffffff16815260200190815260200160002054111561227e57612165600f60003373ffffffffffffffffffffffffffffffffffffffff1673ffffffffffffffffffffffffffffffffffffffff16815260200190815260200160002054600f60003373ffffffffffffffffffffffffffffffffffffffff1673ffffffffffffffffffffffffffffffffffffffff168152602001908152602001600020546137ec90919063ffffffff16565b600f60003373ffffffffffffffffffffffffffffffffffffffff1673ffffffffffffffffffffffffffffffffffffffff168152602001908152602001600020819055508173ffffffffffffffffffffffffffffffffffffffff1663a9059cbb33836040518363ffffffff1660e01b81526004016121e3929190614617565b602060405180830381600087803b1580156121fd57600080fd5b505af1158015612211573d6000803e3d6000fd5b505050506040513d601f19601f820116820180604052508101906122359190613be6565b61223e57600080fd5b7f9b1bfa7fa9ee420a16e124f794c35ac9f90472acc99140eb2f6447c714cad8eb303383604051612271939291906145a2565b60405180910390a1612350565b8173ffffffffffffffffffffffffffffffffffffffff1663a9059cbb33836040518363ffffffff1660e01b81526004016122b9929190614617565b602060405180830381600087803b1580156122d357600080fd5b505af11580156122e7573d6000803e3d6000fd5b505050506040513d601f19601f8201168201806040525081019061230b9190613be6565b61231457600080fd5b7f9b1bfa7fa9ee420a16e124f794c35ac9f90472acc99140eb2f6447c714cad8eb303383604051612347939291906145a2565b60405180910390a15b60016000819055505050565b600080600d60003373ffffffffffffffffffffffffffffffffffffffff1673ffffffffffffffffffffffffffffffffffffffff168152602001908152602001600020604051806080016040529081600082015481526020016001820160009054906101000a900473ffffffffffffffffffffffffffffffffffffffff1673ffffffffffffffffffffffffffffffffffffffff1673ffffffffffffffffffffffffffffffffffffffff16815260200160028201805461241990614c92565b80601f016020809104026020016040519081016040528092919081815260200182805461244590614c92565b80156124925780601f1061246757610100808354040283529160200191612492565b820191906000526020600020905b81548152906001019060200180831161247557829003601f168201915b5050505050815260200160038201604051806101400160405290816000820160009054906101000a900473ffffffffffffffffffffffffffffffffffffffff1673ffffffffffffffffffffffffffffffffffffffff1673ffffffffffffffffffffffffffffffffffffffff16815260200160018201548152602001600282015481526020016003820154815260200160048201548152602001600582015481526020016006820154815260200160078201805461254e90614c92565b80601f016020809104026020016040519081016040528092919081815260200182805461257a90614c92565b80156125c75780601f1061259c576101008083540402835291602001916125c7565b820191906000526020600020905b8154815290600101906020018083116125aa57829003601f168201915b50505050508152602001600882015481526020016009820160009054906101000a900460ff161515151581525050815250509050601060003373ffffffffffffffffffffffffffffffffffffffff1673ffffffffffffffffffffffffffffffffffffffff16815260200190815260200160002060009054906101000a900460ff16612687576040517f08c379a000000000000000000000000000000000000000000000000000000000815260040161267e906147f5565b60405180910390fd5b6000816060015160000151905060008173ffffffffffffffffffffffffffffffffffffffff1663ae9d70b06040518163ffffffff1660e01b815260040160206040518083038186803b1580156126dc57600080fd5b505afa1580156126f0573d6000803e3d6000fd5b505050506040513d601f19601f820116820180604052508101906127149190613c79565b905060006127a782600e60008973ffffffffffffffffffffffffffffffffffffffff1673ffffffffffffffffffffffffffffffffffffffff16815260200190815260200160002060003373ffffffffffffffffffffffffffffffffffffffff1673ffffffffffffffffffffffffffffffffffffffff168152602001908152602001600020546138e390919063ffffffff16565b905080945050505050919050565b601160003373ffffffffffffffffffffffffffffffffffffffff1673ffffffffffffffffffffffffffffffffffffffff16815260200190815260200160002060009054906101000a900460ff16612841576040517f08c379a0000000000000000000000000000000000000000000000000000000008152600401612838906147b5565b60405180910390fd5b80600e60008473ffffffffffffffffffffffffffffffffffffffff1673ffffffffffffffffffffffffffffffffffffffff16815260200190815260200160002060003373ffffffffffffffffffffffffffffffffffffffff1673ffffffffffffffffffffffffffffffffffffffff1681526020019081526020016000205410156128ca57600080fd5b600073ffffffffffffffffffffffffffffffffffffffff168273ffffffffffffffffffffffffffffffffffffffff16141561290457600080fd5b61299381600e60008573ffffffffffffffffffffffffffffffffffffffff1673ffffffffffffffffffffffffffffffffffffffff16815260200190815260200160002060003373ffffffffffffffffffffffffffffffffffffffff1673ffffffffffffffffffffffffffffffffffffffff168152602001908152602001600020546137ec90919063ffffffff16565b600e60008473ffffffffffffffffffffffffffffffffffffffff1673ffffffffffffffffffffffffffffffffffffffff16815260200190815260200160002060003373ffffffffffffffffffffffffffffffffffffffff1673ffffffffffffffffffffffffffffffffffffffff168152602001908152602001600020819055506000612a3c6014612a2e6064856137c090919063ffffffff16565b6138e390919063ffffffff16565b9050612acd81600e60008673ffffffffffffffffffffffffffffffffffffffff1673ffffffffffffffffffffffffffffffffffffffff16815260200190815260200160002060003073ffffffffffffffffffffffffffffffffffffffff1673ffffffffffffffffffffffffffffffffffffffff1681526020019081526020016000205461380290919063ffffffff16565b600e60008573ffffffffffffffffffffffffffffffffffffffff1673ffffffffffffffffffffffffffffffffffffffff16815260200190815260200160002060003073ffffffffffffffffffffffffffffffffffffffff1673ffffffffffffffffffffffffffffffffffffffff16815260200190815260200160002081905550600080600f60003373ffffffffffffffffffffffffffffffffffffffff1673ffffffffffffffffffffffffffffffffffffffff168152602001908152602001600020541115612da657612bfa600f60003373ffffffffffffffffffffffffffffffffffffffff1673ffffffffffffffffffffffffffffffffffffffff16815260200190815260200160002054612bec84866137ec90919063ffffffff16565b61380290919063ffffffff16565b9050612c8d600f60003373ffffffffffffffffffffffffffffffffffffffff1673ffffffffffffffffffffffffffffffffffffffff16815260200190815260200160002054600f60003373ffffffffffffffffffffffffffffffffffffffff1673ffffffffffffffffffffffffffffffffffffffff168152602001908152602001600020546137ec90919063ffffffff16565b600f60003373ffffffffffffffffffffffffffffffffffffffff1673ffffffffffffffffffffffffffffffffffffffff168152602001908152602001600020819055508373ffffffffffffffffffffffffffffffffffffffff1663a9059cbb33836040518363ffffffff1660e01b8152600401612d0b929190614617565b602060405180830381600087803b158015612d2557600080fd5b505af1158015612d39573d6000803e3d6000fd5b505050506040513d601f19601f82011682018060405250810190612d5d9190613be6565b612d6657600080fd5b7f9b1bfa7fa9ee420a16e124f794c35ac9f90472acc99140eb2f6447c714cad8eb303383604051612d99939291906145a2565b60405180910390a1612e8d565b612db982846137ec90919063ffffffff16565b90508373ffffffffffffffffffffffffffffffffffffffff1663a9059cbb33836040518363ffffffff1660e01b8152600401612df6929190614617565b602060405180830381600087803b158015612e1057600080fd5b505af1158015612e24573d6000803e3d6000fd5b505050506040513d601f19601f82011682018060405250810190612e489190613be6565b612e5157600080fd5b7f9b1bfa7fa9ee420a16e124f794c35ac9f90472acc99140eb2f6447c714cad8eb303383604051612e84939291906145a2565b60405180910390a15b50505050565b600f6020528060005260406000206000915090505481565b60106020528060005260406000206000915054906101000a900460ff1681565b60116020528060005260406000206000915054906101000a900460ff1681565b828411612f2d576040517f08c379a0000000000000000000000000000000000000000000000000000000008152600401612f24906148d5565b60405180910390fd5b60008311612f70576040517f08c379a0000000000000000000000000000000000000000000000000000000008152600401612f6790614875565b60405180910390fd5b601060003373ffffffffffffffffffffffffffffffffffffffff1673ffffffffffffffffffffffffffffffffffffffff16815260200190815260200160002060009054906101000a900460ff16612ffc576040517f08c379a0000000000000000000000000000000000000000000000000000000008152600401612ff390614815565b60405180910390fd5b6000600d60003373ffffffffffffffffffffffffffffffffffffffff1673ffffffffffffffffffffffffffffffffffffffff16815260200190815260200160002090506000816003016006015414613089576040517f08c379a0000000000000000000000000000000000000000000000000000000008152600401613080906147d5565b60405180910390fd5b868160030160000160006101000a81548173ffffffffffffffffffffffffffffffffffffffff021916908373ffffffffffffffffffffffffffffffffffffffff1602179055508181600301600601819055506130ee834261380290919063ffffffff16565b816003016005018190555085816003016007019080519060200190613114929190613907565b5084816003016003018190555083816003016002018190555060018160030160090160006101000a81548160ff0219169083151502179055507f0a342f2e207c3c328a10158ad0b71a9e64a10e319c5d635be24f8c7e418ea6e43382600301600701836003016006015460405161318d939291906145d9565b60405180910390a150505050505050565b601060003373ffffffffffffffffffffffffffffffffffffffff1673ffffffffffffffffffffffffffffffffffffffff16815260200190815260200160002060009054906101000a900460ff161561322b576040517f08c379a000000000000000000000000000000000000000000000000000000000815260040161322290614735565b60405180910390fd5b6000604051806101400160405280600073ffffffffffffffffffffffffffffffffffffffff1681526020016000815260200160008152602001600081526020014281526020016000815260200160008152602001604051806020016040528060008152508152602001438152602001600015158152509050600060405180608001604052806132ba60046138f9565b81526020013373ffffffffffffffffffffffffffffffffffffffff16815260200184815260200183815250905080600d60003373ffffffffffffffffffffffffffffffffffffffff1673ffffffffffffffffffffffffffffffffffffffff1681526020019081526020016000206000820151816000015560208201518160010160006101000a81548173ffffffffffffffffffffffffffffffffffffffff021916908373ffffffffffffffffffffffffffffffffffffffff1602179055506040820151816002019080519060200190613394929190613907565b5060608201518160030160008201518160000160006101000a81548173ffffffffffffffffffffffffffffffffffffffff021916908373ffffffffffffffffffffffffffffffffffffffff1602179055506020820151816001015560408201518160020155606082015181600301556080820151816004015560a0820151816005015560c0820151816006015560e082015181600701908051906020019061343d929190613907565b5061010082015181600801556101208201518160090160006101000a81548160ff021916908315150217905550505090505060128190806001815401808255809150506001900390600052602060002090600d02016000909190919091506000820151816000015560208201518160010160006101000a81548173ffffffffffffffffffffffffffffffffffffffff021916908373ffffffffffffffffffffffffffffffffffffffff1602179055506040820151816002019080519060200190613508929190613907565b5060608201518160030160008201518160000160006101000a81548173ffffffffffffffffffffffffffffffffffffffff021916908373ffffffffffffffffffffffffffffffffffffffff1602179055506020820151816001015560408201518160020155606082015181600301556080820151816004015560a0820151816005015560c0820151816006015560e08201518160070190805190602001906135b1929190613907565b5061010082015181600801556101208201518160090160006101000a81548160ff021916908315150217905550505050506001601060003373ffffffffffffffffffffffffffffffffffffffff1673ffffffffffffffffffffffffffffffffffffffff16815260200190815260200160002060006101000a81548160ff02191690831515021790555061364460046137d6565b826040516136529190614570565b60405180910390203373ffffffffffffffffffffffffffffffffffffffff167f6ba0831d2f62ae5cbf7214bcc1d79c5da1d705f12811efda0beaa840006f874e60405160405180910390a3505050565b6136aa613818565b73ffffffffffffffffffffffffffffffffffffffff166136c8611d2d565b73ffffffffffffffffffffffffffffffffffffffff161461371e576040517f08c379a000000000000000000000000000000000000000000000000000000000815260040161371590614835565b60405180910390fd5b600073ffffffffffffffffffffffffffffffffffffffff168173ffffffffffffffffffffffffffffffffffffffff16141561378e576040517f08c379a0000000000000000000000000000000000000000000000000000000008152600401613785906146c7565b60405180910390fd5b61379781613820565b50565b600860009054906101000a900473ffffffffffffffffffffffffffffffffffffffff1681565b600081836137ce9190614aa7565b905092915050565b6001816000016000828254019250508190555050565b600081836137fa9190614b32565b905092915050565b600081836138109190614a51565b905092915050565b600033905090565b600060018054906101000a900473ffffffffffffffffffffffffffffffffffffffff169050816001806101000a81548173ffffffffffffffffffffffffffffffffffffffff021916908373ffffffffffffffffffffffffffffffffffffffff1602179055508173ffffffffffffffffffffffffffffffffffffffff168173ffffffffffffffffffffffffffffffffffffffff167f8be0079c531659141344cd1fd0a4f28419497f9722a3daafe3b4186f6b6457e060405160405180910390a35050565b600081836138f19190614ad8565b905092915050565b600081600001549050919050565b82805461391390614c92565b90600052602060002090601f016020900481019282613935576000855561397c565b82601f1061394e57805160ff191683800117855561397c565b8280016001018555821561397c579182015b8281111561397b578251825591602001919060010190613960565b5b509050613989919061398d565b5090565b5b808211156139a657600081600090555060010161398e565b5090565b60006139bd6139b8846149d4565b6149a3565b9050828152602081018484840111156139d557600080fd5b6139e0848285614c50565b509392505050565b6000813590506139f781614d91565b92915050565b600081519050613a0c81614d91565b92915050565b600081519050613a2181614da8565b92915050565b600082601f830112613a3857600080fd5b8135613a488482602086016139aa565b91505092915050565b600081359050613a6081614dbf565b92915050565b600081519050613a7581614dbf565b92915050565b600060208284031215613a8d57600080fd5b6000613a9b848285016139e8565b91505092915050565b600060208284031215613ab657600080fd5b6000613ac4848285016139fd565b91505092915050565b60008060408385031215613ae057600080fd5b6000613aee858286016139e8565b9250506020613aff858286016139e8565b9150509250929050565b60008060008060008060c08789031215613b2257600080fd5b6000613b3089828a016139e8565b965050602087013567ffffffffffffffff811115613b4d57600080fd5b613b5989828a01613a27565b9550506040613b6a89828a01613a51565b9450506060613b7b89828a01613a51565b9350506080613b8c89828a01613a51565b92505060a0613b9d89828a01613a51565b9150509295509295509295565b60008060408385031215613bbd57600080fd5b6000613bcb858286016139e8565b9250506020613bdc85828601613a51565b9150509250929050565b600060208284031215613bf857600080fd5b6000613c0684828501613a12565b91505092915050565b600060208284031215613c2157600080fd5b600082013567ffffffffffffffff811115613c3b57600080fd5b613c4784828501613a27565b91505092915050565b600060208284031215613c6257600080fd5b6000613c7084828501613a51565b91505092915050565b600060208284031215613c8b57600080fd5b6000613c9984828501613a66565b91505092915050565b60008060408385031215613cb557600080fd5b6000613cc385828601613a51565b9250506020613cd4858286016139e8565b9150509250929050565b613ce781614b78565b82525050565b613cf681614b66565b82525050565b613d0581614b66565b82525050565b613d1481614b8a565b82525050565b613d2381614b8a565b82525050565b613d3281614bc0565b82525050565b613d4181614be4565b82525050565b613d5081614c08565b82525050565b613d5f81614c2c565b82525050565b6000613d7082614a19565b613d7a8185614a24565b9350613d8a818560208601614c5f565b613d9381614d80565b840191505092915050565b6000613da982614a19565b613db38185614a35565b9350613dc3818560208601614c5f565b613dcc81614d80565b840191505092915050565b6000613de282614a19565b613dec8185614a46565b9350613dfc818560208601614c5f565b80840191505092915050565b60008154613e1581614c92565b613e1f8186614a35565b94506001821660008114613e3a5760018114613e4c57613e7f565b60ff1983168652602086019350613e7f565b613e5585614a04565b60005b83811015613e7757815481890152600182019150602081019050613e58565b808801955050505b50505092915050565b6000613e95602683614a35565b91507f4f776e61626c653a206e6577206f776e657220697320746865207a65726f206160008301527f64647265737300000000000000000000000000000000000000000000000000006020830152604082019050919050565b6000613efb602483614a35565b91507f49662074686973206973206e6f7420302c2074686572652077617320616e206560008301527f72726f72000000000000000000000000000000000000000000000000000000006020830152604082019050919050565b6000613f61603483614a35565b91507f63546f6b656e236d696e742829206661696c65642e2073656520436f6d706f7560008301527f6e64204572726f725265706f727465722e736f6c0000000000000000000000006020830152604082019050919050565b6000613fc7601d83614a35565b91507f43616c6c6572206164647265737320616c7265616479206578697374730000006000830152602082019050919050565b6000614007601083614a35565b91507f5061757361626c653a20706175736564000000000000000000000000000000006000830152602082019050919050565b6000614047601283614a35565b91507f43616c6c657220686173206e6f20706c616e00000000000000000000000000006000830152602082019050919050565b6000614087604e83614a35565b91507f596f752068617665206578656365656465642074686520617070726f7665642060008301527f616d6f756e7420666f72207468697320706c616e2c20706c65617365206d616b60208301527f6520616e6f7468657220706c616e0000000000000000000000000000000000006040830152606082019050919050565b6000614113602983614a35565b91507f46756e6473206e65656420746f2062652072656465656d6564206265666f726560008301527f20776974686472617700000000000000000000000000000000000000000000006020830152604082019050919050565b6000614179602283614a35565b91507f43616c6c657220616c7265616479206861732061206c6f636b2054696d65205360008301527f65740000000000000000000000000000000000000000000000000000000000006020830152604082019050919050565b60006141df601583614a35565b91507f43616c6c6572206e6f74207265676973746572656400000000000000000000006000830152602082019050919050565b600061421f601b83614a35565b91507f43616c6c65722068617320746f206265205265676973746572656400000000006000830152602082019050919050565b600061425f602083614a35565b91507f4f776e61626c653a2063616c6c6572206973206e6f7420746865206f776e65726000830152602082019050919050565b600061429f601283614a35565b91507f416d6f756e742063616e6e6f74206265203000000000000000000000000000006000830152602082019050919050565b60006142df602083614a35565b91507f617070726f766520616e20616d6f756e742067726561746572207468616e20306000830152602082019050919050565b600061431f601383614a35565b91507f416d6f756e742063616e6e6f74206e62652030000000000000000000000000006000830152602082019050919050565b600061435f601283614a35565b91507f4465706f73697420686173206661696c656400000000000000000000000000006000830152602082019050919050565b600061439f602f83614a35565b91507f53657420616e20616d6f756e742067726561746572207468616e20746865207260008301527f6563757272696e6720616d6f756e7400000000000000000000000000000000006020830152604082019050919050565b6000614405601f83614a35565b91507f5265656e7472616e637947756172643a207265656e7472616e742063616c6c006000830152602082019050919050565b6000614445601283614a35565b91507f4164647265737320697320696e76616c696400000000000000000000000000006000830152602082019050919050565b6000610140830160008301516144916000860182613ced565b5060208301516144a46020860182614552565b5060408301516144b76040860182614552565b5060608301516144ca6060860182614552565b5060808301516144dd6080860182614552565b5060a08301516144f060a0860182614552565b5060c083015161450360c0860182614552565b5060e083015184820360e086015261451b8282613d65565b915050610100830151614532610100860182614552565b50610120830151614547610120860182613d0b565b508091505092915050565b61455b81614bb6565b82525050565b61456a81614bb6565b82525050565b600061457c8284613dd7565b915081905092915050565b600060208201905061459c6000830184613cfc565b92915050565b60006060820190506145b76000830186613cfc565b6145c46020830185613cfc565b6145d16040830184614561565b949350505050565b60006060820190506145ee6000830186613cfc565b81810360208301526146008185613e08565b905061460f6040830184614561565b949350505050565b600060408201905061462c6000830185613cfc565b6146396020830184614561565b9392505050565b60006020820190506146556000830184613d1a565b92915050565b60006020820190506146706000830184613d29565b92915050565b600060208201905061468b6000830184613d38565b92915050565b60006020820190506146a66000830184613d47565b92915050565b60006020820190506146c16000830184613d56565b92915050565b600060208201905081810360008301526146e081613e88565b9050919050565b6000604082019050818103600083015261470081613eee565b905061470f6020830184614561565b92915050565b6000602082019050818103600083015261472e81613f54565b9050919050565b6000602082019050818103600083015261474e81613fba565b9050919050565b6000602082019050818103600083015261476e81613ffa565b9050919050565b6000602082019050818103600083015261478e8161403a565b9050919050565b600060208201905081810360008301526147ae8161407a565b9050919050565b600060208201905081810360008301526147ce81614106565b9050919050565b600060208201905081810360008301526147ee8161416c565b9050919050565b6000602082019050818103600083015261480e816141d2565b9050919050565b6000602082019050818103600083015261482e81614212565b9050919050565b6000602082019050818103600083015261484e81614252565b9050919050565b6000602082019050818103600083015261486e81614292565b9050919050565b6000602082019050818103600083015261488e816142d2565b9050919050565b600060208201905081810360008301526148ae81614312565b9050919050565b600060208201905081810360008301526148ce81614352565b9050919050565b600060208201905081810360008301526148ee81614392565b9050919050565b6000602082019050818103600083015261490e816143f8565b9050919050565b6000602082019050818103600083015261492e81614438565b9050919050565b600060208201905061494a6000830184614561565b92915050565b60006080820190506149656000830187614561565b6149726020830186613cde565b81810360408301526149848185613d9e565b905081810360608301526149988184614478565b905095945050505050565b6000604051905081810181811067ffffffffffffffff821117156149ca576149c9614d51565b5b8060405250919050565b600067ffffffffffffffff8211156149ef576149ee614d51565b5b601f19601f8301169050602081019050919050565b60008190508160005260206000209050919050565b600081519050919050565b600082825260208201905092915050565b600082825260208201905092915050565b600081905092915050565b6000614a5c82614bb6565b9150614a6783614bb6565b9250827fffffffffffffffffffffffffffffffffffffffffffffffffffffffffffffffff03821115614a9c57614a9b614cc4565b5b828201905092915050565b6000614ab282614bb6565b9150614abd83614bb6565b925082614acd57614acc614cf3565b5b828204905092915050565b6000614ae382614bb6565b9150614aee83614bb6565b9250817fffffffffffffffffffffffffffffffffffffffffffffffffffffffffffffffff0483118215151615614b2757614b26614cc4565b5b828202905092915050565b6000614b3d82614bb6565b9150614b4883614bb6565b925082821015614b5b57614b5a614cc4565b5b828203905092915050565b6000614b7182614b96565b9050919050565b6000614b8382614b96565b9050919050565b60008115159050919050565b600073ffffffffffffffffffffffffffffffffffffffff82169050919050565b6000819050919050565b6000614bcb82614bd2565b9050919050565b6000614bdd82614b96565b9050919050565b6000614bef82614bf6565b9050919050565b6000614c0182614b96565b9050919050565b6000614c1382614c1a565b9050919050565b6000614c2582614b96565b9050919050565b6000614c3782614c3e565b9050919050565b6000614c4982614b96565b9050919050565b82818337600083830152505050565b60005b83811015614c7d578082015181840152602081019050614c62565b83811115614c8c576000848401525b50505050565b60006002820490506001821680614caa57607f821691505b60208210811415614cbe57614cbd614d22565b5b50919050565b7f4e487b7100000000000000000000000000000000000000000000000000000000600052601160045260246000fd5b7f4e487b7100000000000000000000000000000000000000000000000000000000600052601260045260246000fd5b7f4e487b7100000000000000000000000000000000000000000000000000000000600052602260045260246000fd5b7f4e487b7100000000000000000000000000000000000000000000000000000000600052604160045260246000fd5b6000601f19601f8301169050919050565b614d9a81614b66565b8114614da557600080fd5b50565b614db181614b8a565b8114614dbc57600080fd5b50565b614dc881614bb6565b8114614dd357600080fd5b5056fea26469706673582212200eb922fb06d7abf1ea06faa086ad6da8ea20c23fc70afb265dc0fef8440d987364736f6c63430008000033",
  "immutableReferences": {},
  "source": "//SPDX-License-Identifier: Unlicense\r\npragma solidity ^0.8.0;\r\n\r\n\r\nimport \"@openzeppelin/contracts/utils/math/SafeMath.sol\";\r\nimport '@openzeppelin/contracts/token/ERC20/IERC20.sol';\r\nimport \"@openzeppelin/contracts/security/Pausable.sol\";\r\nimport \"@openzeppelin/contracts/security/ReentrancyGuard.sol\";\r\nimport \"@openzeppelin/contracts/access/Ownable.sol\";\r\nimport \"@openzeppelin/contracts/utils/Counters.sol\";\r\nimport './CTokenInterface.sol';\r\nimport './ComptrollerInterface.sol';\r\nimport './PriceOracleInterface.sol';\r\nimport \"./XendFinanceInterface.sol\";\r\n\r\n\r\n\r\ncontract Beima is ReentrancyGuard, Pausable, Ownable{\r\n    using SafeMath for uint;\r\n    using Counters for Counters.Counter;\r\n\r\n    // variables\r\n    ComptrollerInterface public comptroller;\r\n\tPriceOracleInterface public priceOracle;\r\n    Counters.Counter private id;\r\n    uint balance;\r\n\r\n    uint accXendTokens;\r\n    uint256 ccInterest;\r\n    XendFinanceInterface public xendFinance;\r\n    IERC20 public xend;\r\n    IERC20 public busd;\r\n\r\n    uint public lastTimeStamp;\r\n    uint public upKeepInterval;\r\n\r\n\r\n\r\n    \r\n\r\n\r\n\r\n    struct Client {\r\n        address underlyingAsset;\r\n        uint256 depositedAmount;\r\n        uint256 amountToSpend;\r\n        uint256 approvedAmountToSpend;\r\n        uint256 startTime;\r\n        uint256 timeDurationOfdeposit;\r\n        uint256 lockTime;\r\n        string ipfsHashOfUserPensionDetails;\r\n        uint256 userLastRewardBlock;\r\n        bool hasPlan;\r\n    }\r\n\r\n\r\n    // A user Object\r\n    struct User {\r\n        uint256 id;\r\n        address payable userAddress;\r\n        string  userDetails;\r\n        Client client;\r\n\r\n    }\r\n\r\n\r\n\r\n    \r\n\r\n    \r\n\r\n\r\n    event Register(address indexed applicant, string indexed applicantDetails);\r\n    event Withdraw(address from, address to, uint amount);\r\n    event Deposit(address indexed sender, address receiver, uint indexed amountSpent);\r\n    event Upkeep(address sender, bool upkeep);\r\n    event Plan(address user, string planDetails, uint lockTime);\r\n    event Update(uint256 timeDuration);\r\n    event Transfer(address indexed sender, uint amount, address indexed receiver);\r\n    event Supply(address sender, uint amount);\r\n    event MyLog(string, uint256);\r\n\r\n    mapping(address => User) public pensionServiceApplicant;\r\n    address constant ETHER = address(0); // Stores ether in the tokens mapping\r\n\tmapping(address => mapping(address => uint256)) public assets;\r\n    mapping(address => uint) public amountSupplied;\r\n\r\n    // keep track of registered users\r\n    mapping(address => bool) public isRegistered;\r\n    mapping(address => bool) public hasRedeemed;\r\n\r\n    User[] public users;\r\n\r\n\r\n    constructor(address _xend, address _xendFinanceIndividual_Yearn_V1,  address _comptroller, address _priceOracle, uint _upKeepInterval)  {\r\n        xend = IERC20(_xend);\r\n        comptroller = ComptrollerInterface(_comptroller);\r\n\t\tpriceOracle = PriceOracleInterface(_priceOracle);\r\n        xendFinance = XendFinanceInterface(_xendFinanceIndividual_Yearn_V1);\r\n        ccInterest = uint256(3 ether).div(10); // .3% \r\n        lastTimeStamp = block.timestamp;\r\n        upKeepInterval = _upKeepInterval;\r\n\r\n        id.increment();\r\n        \r\n    }\r\n\r\n\r\n    receive() external payable {\r\n        balance = msg.value;\r\n    }\r\n\r\n\r\n\r\n    function register(\r\n        string memory _userDetails\r\n        ) \r\n        public  {\r\n        require(!isRegistered[msg.sender], \"Caller address already exists\");\r\n\r\n        Client memory client = Client({\r\n            underlyingAsset: address(0),\r\n            depositedAmount: 0,\r\n            amountToSpend: 0,\r\n            approvedAmountToSpend: 0,\r\n            startTime: block.timestamp,\r\n            timeDurationOfdeposit: 0,\r\n            lockTime: 0,\r\n            ipfsHashOfUserPensionDetails: \"\",\r\n            userLastRewardBlock: block.number,\r\n            hasPlan: false\r\n        });\r\n\r\n        User memory user = User({\r\n            id: id.current(),\r\n            userAddress: payable(msg.sender),\r\n            userDetails: _userDetails,\r\n            client: client\r\n        });\r\n\r\n       \r\n\r\n        pensionServiceApplicant[msg.sender] = user;\r\n        users.push(user);\r\n        isRegistered[msg.sender] = true;\r\n\r\n        id.increment();\r\n\r\n        emit Register(msg.sender, _userDetails);\r\n    }\r\n\r\n\r\n    function depositToken (address _asset, uint _amount)public {\r\n        User memory user = pensionServiceApplicant[msg.sender];\r\n        require(user.client.approvedAmountToSpend >= user.client.amountToSpend, \"You have execeeded the approved amount for this plan, please make another plan\");\r\n        require(isRegistered[msg.sender], \"Caller not registered\");\r\n        require(user.client.hasPlan, \"Caller has no plan\");\r\n\t\trequire(_asset != ETHER, \"Address is invalid\");\r\n\t\trequire(IERC20(_asset).transferFrom(msg.sender, address(this), _amount), \"Deposit has failed\");\r\n\t\tassets[_asset][msg.sender] = assets[_asset][msg.sender].add(_amount);\r\n        amountSupplied[msg.sender] = amountSupplied[msg.sender].add(_amount);\r\n        ccInterest = ccInterest.add(1);\r\n\t\temit Deposit (msg.sender, address(this), assets[_asset][msg.sender]);\r\n\t}\r\n\r\n\r\n\r\n    function withdrawToken(address _asset, uint _amount) public nonReentrant() whenNotPaused() {\r\n        require(hasRedeemed[msg.sender], \"Funds need to be redeemed before withdraw\");\r\n\t\trequire(assets[_asset][msg.sender] >= _amount);\r\n\t\trequire(_asset != ETHER);\r\n        require(_amount > 0, \"Amount cannot nbe 0\");\r\n        // uint interestAccrued = \r\n        // uint amountToSend = assets[_asset][msg.sender];\r\n\t\tassets[_asset][msg.sender] = assets[_asset][msg.sender].sub(_amount);\r\n        if(amountSupplied[msg.sender] > 0 ) {\r\n            amountSupplied[msg.sender] = amountSupplied[msg.sender].sub(amountSupplied[msg.sender]);   \r\n            require(IERC20(_asset).transfer(msg.sender, _amount));\r\n            emit Withdraw(address(this), msg.sender, _amount);\r\n        } else {\r\n            require(IERC20(_asset).transfer(msg.sender, _amount)); \r\n            emit Withdraw(address(this), msg.sender, _amount);\r\n        }\r\n\r\n\t}\r\n\r\n\r\n    function forcedWithdraw(address _asset, uint _amount) public {\r\n        require(hasRedeemed[msg.sender], \"Funds need to be redeemed before withdraw\");\r\n        require(assets[_asset][msg.sender] >= _amount);\r\n\t\trequire(_asset != ETHER);\r\n\t\tassets[_asset][msg.sender] = assets[_asset][msg.sender].sub(_amount);\r\n        uint penalty = _amount.div(100).mul(20);\r\n        assets[_asset][address(this)] = assets[_asset][address(this)].add(penalty);\r\n        uint amountToSend;\r\n        if(amountSupplied[msg.sender] > 0 ) {\r\n            amountToSend  = _amount.sub(penalty).add(amountSupplied[msg.sender]);\r\n            amountSupplied[msg.sender] = amountSupplied[msg.sender].sub(amountSupplied[msg.sender]);\r\n            require(IERC20(_asset).transfer(msg.sender, amountToSend));\r\n            emit Withdraw(address(this), msg.sender, amountToSend);\r\n        } else {\r\n            amountToSend  = _amount.sub(penalty);\r\n            require(IERC20(_asset).transfer(msg.sender, amountToSend));\r\n            emit Withdraw(address(this), msg.sender, amountToSend);\r\n\r\n        }\r\n\r\n    }\r\n\r\n\r\n    function supply(address cTokenaddress) public returns(uint) {\r\n        require(isRegistered[msg.sender], \"Caller not registered\");\r\n        require(amountSupplied[msg.sender] > 0, \"Amount cannot be 0\");\r\n\t\tCTokenInterface cToken = CTokenInterface(cTokenaddress);\r\n\t\taddress underlyingAddress = cToken.underlying();\r\n\t\tIERC20(underlyingAddress).approve(cTokenaddress, amountSupplied[msg.sender]);\r\n\r\n\t\tuint result = cToken.mint(amountSupplied[msg.sender]);\r\n        amountSupplied[msg.sender] = amountSupplied[msg.sender].sub(amountSupplied[msg.sender]);\r\n\t\trequire(result == 0, 'cToken#mint() failed. see Compound ErrorReporter.sol');\r\n        emit Supply(msg.sender, amountSupplied[msg.sender]);\r\n        return result;\r\n\t}\r\n\r\n\r\n    function redeemCErc20Tokens(\r\n        uint256 amount,\r\n        address _cErc20Contract\r\n    ) public nonReentrant() returns (bool) {\r\n        require(isRegistered[msg.sender], \"Caller not registered\");\r\n        if(amountSupplied[msg.sender] > 0) {\r\n            uint amountToRedeem = amount.sub(amountSupplied[msg.sender]);\r\n            // Create a reference to the corresponding cToken contract, like cDAI\r\n            CTokenInterface cToken = CTokenInterface(_cErc20Contract);\r\n\r\n            // `amount` is scaled up, see decimal table here:\r\n            // https://compound.finance/docs#protocol-math\r\n\r\n            uint256 redeemResult;\r\n\r\n            // Retrieve your asset based on an amount of the asset\r\n            redeemResult = cToken.redeemUnderlying(amountToRedeem);\r\n            hasRedeemed[msg.sender] = true;\r\n\r\n            // Error codes are listed here:\r\n            // https://compound.finance/docs/ctokens#error-codes\r\n            emit MyLog(\"If this is not 0, there was an error\", redeemResult);\r\n\r\n            return true;\r\n        } else {\r\n\r\n            // Create a reference to the corresponding cToken contract, like cDAI\r\n            CTokenInterface cToken = CTokenInterface(_cErc20Contract);\r\n\r\n            // `amount` is scaled up, see decimal table here:\r\n            // https://compound.finance/docs#protocol-math\r\n\r\n            uint256 redeemResult;\r\n\r\n            // Retrieve your asset based on an amount of the asset\r\n            redeemResult = cToken.redeemUnderlying(amount);\r\n            hasRedeemed[msg.sender] = true;\r\n\r\n            // Error codes are listed here:\r\n            // https://compound.finance/docs/ctokens#error-codes\r\n            emit MyLog(\"If this is not 0, there was an error\", redeemResult);\r\n\r\n            return true;\r\n        }\r\n    }\r\n\r\n    function setPlan(\r\n        address _underlyingAsset, \r\n        string memory _ipfsHashOfUserPensionDetails, \r\n        uint _approvedAmountToSpend, \r\n        uint _amountToSpend, \r\n        uint _timeDurationOfDeposit, \r\n        uint _lockTime) \r\n        public {\r\n        require(_approvedAmountToSpend > _amountToSpend, \"Set an amount greater than the recurring amount\");\r\n        require(_amountToSpend > 0, \"approve an amount greater than 0\");\r\n        require(isRegistered[msg.sender], \"Caller has to be Registered\");\r\n        User storage user = pensionServiceApplicant[msg.sender];\r\n        require(user.client.lockTime == 0, \"Caller already has a lock Time Set\");\r\n        user.client.underlyingAsset = _underlyingAsset;\r\n        user.client.lockTime = _lockTime;\r\n        user.client.timeDurationOfdeposit = block.timestamp.add(_timeDurationOfDeposit);\r\n        user.client.ipfsHashOfUserPensionDetails = _ipfsHashOfUserPensionDetails;\r\n        user.client.approvedAmountToSpend = _approvedAmountToSpend;\r\n        user.client.amountToSpend = _amountToSpend;\r\n        user.client.hasPlan = true;\r\n\r\n        emit Plan(msg.sender, user.client.ipfsHashOfUserPensionDetails, user.client.lockTime);\r\n    }\r\n\r\n    function getAssetAddress(address ctokenAddress) public view returns(address) {\r\n        CTokenInterface cToken = CTokenInterface(ctokenAddress);\r\n        return cToken.underlying();\r\n\r\n    }\r\n\r\n    function getAccruedInterest(address _asset) public view returns(uint) {\r\n        User memory user = pensionServiceApplicant[msg.sender];\r\n        require(isRegistered[msg.sender], \"Caller not registered\");\r\n        CTokenInterface ctoken = CTokenInterface(user.client.underlyingAsset);\r\n        uint supplyRatePerBlock = ctoken.supplyRatePerBlock();\r\n        uint accInterest = assets[_asset][msg.sender].mul(supplyRatePerBlock);\r\n        return accInterest;\r\n    }\r\n}",
  "sourcePath": "C:\\Users\\CHIDIEBERE-PC\\Desktop\\projects\\Blockchain\\beima_app\\contracts\\Beima.sol",
  "compiler": {
    "name": "solc",
    "version": "0.8.0+commit.c7dfd78e.Emscripten.clang"
  },
  "schemaVersion": "3.4.3",
  "updatedAt": "2021-12-12T17:06:44.528Z",
  "networkType": "ethereum",
  "devdoc": {
    "kind": "dev",
    "methods": {
      "owner()": {
        "details": "Returns the address of the current owner."
      },
      "paused()": {
        "details": "Returns true if the contract is paused, and false otherwise."
      },
      "renounceOwnership()": {
        "details": "Leaves the contract without owner. It will not be possible to call `onlyOwner` functions anymore. Can only be called by the current owner. NOTE: Renouncing ownership will leave the contract without an owner, thereby removing any functionality that is only available to the owner."
      },
      "transferOwnership(address)": {
        "details": "Transfers ownership of the contract to a new account (`newOwner`). Can only be called by the current owner."
      }
    },
    "version": 1
  },
  "userdoc": {
    "kind": "user",
    "methods": {},
    "version": 1
  }
}